{
  "transactions": [
    {
      "hash": "0x8b81d07ab08628e84e06273e7feacbf00beef81960af214774aa13354aade9d9",
      "transactionType": "CREATE",
      "contractName": "MultiAssetOracle",
      "contractAddress": "0xb44d652354d12ac56b83112c6ece1fa2ccefc683",
      "function": null,
      "arguments": null,
      "transaction": {
        "from": "0xcc624ffa5df1f3f4b30aa8abd30186a86254f406",
        "gas": "0x8681e",
        "value": "0x0",
        "input": "0x608080604052346026575f80546001600160a01b0319163317905561064b908161002b8239f35b5f80fdfe6080806040526004361015610012575f80fd5b5f3560e01c908163060eb2f5146105845750806318cf42901461049a5780632bed62c2146100a057806331d98b3f1461045b57806343fa62111461040b5780635f704f3e1461038657806360846bc61461035c578063650ef52f1461022a578063837592db1461018e5780638da5cb5b14610167578063f2fde38b146100d35763fff168a8146100a0575f80fd5b346100cf5760203660031901126100cf576004355f526003602052602060ff60405f2054166040519015158152f35b5f80fd5b346100cf5760203660031901126100cf576004356001600160a01b038116908190036100cf575f546001600160a01b038116903382900361015857821561014a576001600160a01b03191682175f9081557f8be0079c531659141344cd1fd0a4f28419497f9722a3daafe3b4186f6b6457e09080a3005b62bfc92160e01b5f5260045ffd5b635fc483c560e01b5f5260045ffd5b346100cf575f3660031901126100cf575f546040516001600160a01b039091168152602090f35b346100cf5760203660031901126100cf575f54600435906001600160a01b0316330361015857805f52600360205260ff60405f2054161561021b575f818152600360209081526040808320805460ff1916905560018252808320839055600290915281208190557fe04ea870ffed321c6b17bd99491201ac9ffab5f53d6de97faca5ba5db956fbef9080a2005b630719d53360e21b5f5260045ffd5b346100cf5760403660031901126100cf5760043567ffffffffffffffff81116100cf5761025b9036906004016105c0565b60243567ffffffffffffffff81116100cf5761027b9036906004016105c0565b5f5491939092916001600160a01b0316330361015857828203610325575f5b8281106102a357005b6102ae8184846105f1565b35906102bb8186886105f1565b35825f52600360205260ff60405f2054161561021b57801561014a57826001935f52836020528160405f2055805f5260026020524260405f20557fbcd10d64fce9dcf9568572ed92e371df336d32649e8960a045c9548794a44b266020604051428152a30161029a565b60405162461bcd60e51b815260206004820152600f60248201526e098cadccee8d040dad2e6dac2e8c6d608b1b6044820152606490fd5b346100cf5760203660031901126100cf576004355f526001602052602060405f2054604051908152f35b346100cf57610394366105aa565b5f549091906001600160a01b0316330361015857805f52600360205260ff60405f2054161561021b57811561014a57805f5260016020528160405f2055805f5260026020524260405f20557fbcd10d64fce9dcf9568572ed92e371df336d32649e8960a045c9548794a44b266020604051428152a3005b346100cf5760203660031901126100cf57600435805f52600360205260ff60405f2054161561021b57806040915f526001602052815f2054905f526002602052815f205482519182526020820152f35b346100cf5760203660031901126100cf57600435805f52600360205260ff60405f2054161561021b575f526001602052602060405f2054604051908152f35b346100cf576104a8366105aa565b5f549091906001600160a01b0316330361015857801561057557805f52600360205260ff60405f20541661056657811561014a57805f52600360205260405f20600160ff19825416179055805f5260016020528160405f2055805f5260026020524260405f2055807fa36ad57ce820f3e2207fa95e8c7e671ad53c84a0e8dc94378e26f3546126905d6020604051858152a27fbcd10d64fce9dcf9568572ed92e371df336d32649e8960a045c9548794a44b266020604051428152a3005b63136d457160e21b5f5260045ffd5b6307d7e52d60e51b5f5260045ffd5b346100cf5760203660031901126100cf576020906004355f526002825260405f20548152f35b60409060031901126100cf576004359060243590565b9181601f840112156100cf5782359167ffffffffffffffff83116100cf576020808501948460051b0101116100cf57565b91908110156106015760051b0190565b634e487b7160e01b5f52603260045260245ffdfea2646970667358221220c4dcb5a73d987da04248df97a914d38994da80531efb28b7a9f2e833227fc5aa64736f6c634300081e0033",
        "nonce": "0x271",
        "chainId": "0xaa36a7"
      },
      "additionalContracts": [],
      "isFixedGasLimit": false
    },
    {
      "hash": "0xf6c05f5fb603a91a18063a6a0cac2eb94a34c382765b564fad7d87ed68565efd",
      "transactionType": "CALL",
      "contractName": "MultiAssetOracle",
      "contractAddress": "0xb44d652354d12ac56b83112c6ece1fa2ccefc683",
      "function": "registerAsset(bytes32,uint256)",
      "arguments": [
        "0x82af7da7090d6235dbc9f8cfccfb82eee2e9cb33d50be18eabf66c158261796a",
        "3790000000000000000"
      ],
      "transaction": {
        "from": "0xcc624ffa5df1f3f4b30aa8abd30186a86254f406",
        "to": "0xb44d652354d12ac56b83112c6ece1fa2ccefc683",
        "gas": "0x1fb6b",
        "value": "0x0",
        "input": "0x18cf429082af7da7090d6235dbc9f8cfccfb82eee2e9cb33d50be18eabf66c158261796a0000000000000000000000000000000000000000000000003498c8eb72bb0000",
        "nonce": "0x272",
        "chainId": "0xaa36a7"
      },
      "additionalContracts": [],
      "isFixedGasLimit": false
    },
    {
      "hash": "0x904268a8c685572950733be88fb1188d956e959423da8ba988eb3442d04e0549",
      "transactionType": "CALL",
      "contractName": "MultiAssetOracle",
      "contractAddress": "0xb44d652354d12ac56b83112c6ece1fa2ccefc683",
      "function": "registerAsset(bytes32,uint256)",
      "arguments": [
        "0x4907d2c1e61b87a99a260f8529c3c4f9e2374edae1f5ab1464a8e79d0f2c26de",
        "4202163309021113000"
      ],
      "transaction": {
        "from": "0xcc624ffa5df1f3f4b30aa8abd30186a86254f406",
        "to": "0xb44d652354d12ac56b83112c6ece1fa2ccefc683",
        "gas": "0x1fb8d",
        "value": "0x0",
        "input": "0x18cf42904907d2c1e61b87a99a260f8529c3c4f9e2374edae1f5ab1464a8e79d0f2c26de0000000000000000000000000000000000000000000000003a511543fa622aa8",
        "nonce": "0x273",
        "chainId": "0xaa36a7"
      },
      "additionalContracts": [],
      "isFixedGasLimit": false
    },
    {
      "hash": "0x2bdac80148f51cf6bf2a3fa2b4979e6de05016ce7b2a4e24b749e1cf6b66387c",
      "transactionType": "CALL",
      "contractName": "MultiAssetOracle",
      "contractAddress": "0xb44d652354d12ac56b83112c6ece1fa2ccefc683",
      "function": "registerAsset(bytes32,uint256)",
      "arguments": [
        "0xd6e43f59d2c94773a52e2c20f09762901247d1aaf2090d0b99e85c55c9833626",
        "2946243092754190000"
      ],
      "transaction": {
        "from": "0xcc624ffa5df1f3f4b30aa8abd30186a86254f406",
        "to": "0xb44d652354d12ac56b83112c6ece1fa2ccefc683",
        "gas": "0x1fb8d",
        "value": "0x0",
        "input": "0x18cf4290d6e43f59d2c94773a52e2c20f09762901247d1aaf2090d0b99e85c55c983362600000000000000000000000000000000000000000000000028e3287ba58fceb0",
        "nonce": "0x274",
        "chainId": "0xaa36a7"
      },
      "additionalContracts": [],
      "isFixedGasLimit": false
    },
    {
      "hash": "0xf743dd6b0d5a4a838940f1a4fd3d1009f7ae4800dd76e90a1429f7aea583b9e9",
      "transactionType": "CREATE",
      "contractName": "MultiAssetOracleAdapter",
      "contractAddress": "0xc3ab908634253b961bc61aa0a846f3fc05e271d8",
      "function": null,
      "arguments": [
        "0xB44d652354d12Ac56b83112c6ece1fa2ccEfc683",
        "0x82af7da7090d6235dbc9f8cfccfb82eee2e9cb33d50be18eabf66c158261796a",
        "86400"
      ],
      "transaction": {
        "from": "0xcc624ffa5df1f3f4b30aa8abd30186a86254f406",
        "gas": "0x61cad",
        "value": "0x0",
        "input": "0x60e0346100f157601f61059f38819003918201601f19168301916001600160401b038311848410176100f5578084926060946040528339810103126100f15780516001600160a01b03811691908290036100f157604060208201519101519180156100e25781156100d35760805260a05260c052604051610495908161010a823960805181818160a6015281816101790152818161025d01526103f3015260a051818181607b0152818161014e015281816102dd01526103c8015260c0518181816101bb015281816102a301526103930152f35b631d6051dd60e21b5f5260045ffd5b63b80f357d60e01b5f5260045ffd5b5f80fd5b634e487b7160e01b5f52604160045260245ffdfe60806040526004361015610011575f80fd5b5f3560e01c80631a26f4471461030057806344de240a146102c6578063687043c51461028c5780637dc0d1d01461024857806398d5fdca1461012e5763a4a281681461005b575f80fd5b3461012a575f36600319011261012a57604080516343fa621160e01b81527f0000000000000000000000000000000000000000000000000000000000000000600482015290816024817f00000000000000000000000000000000000000000000000000000000000000006001600160a01b03165afa90811561011f576040915f915f916100f0575b5082519182526020820152f35b90506101129150823d8411610118575b61010a8183610324565b81019061035a565b5f6100e3565b503d610100565b6040513d5f823e3d90fd5b5f80fd5b3461012a575f36600319011261012a57604080516343fa621160e01b81527f0000000000000000000000000000000000000000000000000000000000000000600482015290816024817f00000000000000000000000000000000000000000000000000000000000000006001600160a01b03165afa801561011f575f915f91610227575b508115610218577f00000000000000000000000000000000000000000000000000000000000000008015159182610204575b50506101f557602090604051908152f35b636888079d60e11b5f5260045ffd5b61021091925042610370565b1182806101e4565b63226b469160e01b5f5260045ffd5b9050610242915060403d6040116101185761010a8183610324565b826101b2565b3461012a575f36600319011261012a576040517f00000000000000000000000000000000000000000000000000000000000000006001600160a01b03168152602090f35b3461012a575f36600319011261012a5760206040517f00000000000000000000000000000000000000000000000000000000000000008152f35b3461012a575f36600319011261012a5760206040517f00000000000000000000000000000000000000000000000000000000000000008152f35b3461012a575f36600319011261012a57602061031a610391565b6040519015158152f35b90601f8019910116810190811067ffffffffffffffff82111761034657604052565b634e487b7160e01b5f52604160045260245ffd5b919082604091031261012a576020825192015190565b9190820391821161037d57565b634e487b7160e01b5f52601160045260245ffd5b7f0000000000000000000000000000000000000000000000000000000000000000801561045a57604080516343fa621160e01b81527f0000000000000000000000000000000000000000000000000000000000000000600482015290816024817f00000000000000000000000000000000000000000000000000000000000000006001600160a01b03165afa801561011f57610435915f91610439575b5042610370565b1190565b610452915060403d6040116101185761010a8183610324565b90505f61042e565b505f9056fea2646970667358221220faa534add4672f0ff8afb535456583009b27096e46f3d7dca2c0e8237da9c89864736f6c634300081e0033000000000000000000000000b44d652354d12ac56b83112c6ece1fa2ccefc68382af7da7090d6235dbc9f8cfccfb82eee2e9cb33d50be18eabf66c158261796a0000000000000000000000000000000000000000000000000000000000015180",
        "nonce": "0x275",
        "chainId": "0xaa36a7"
      },
      "additionalContracts": [],
      "isFixedGasLimit": false
    },
    {
      "hash": "0x201d2501f9a75ed1d1c01b1538c7415551e58922f0c675d1c4e15a43de3d708e",
      "transactionType": "CREATE",
      "contractName": "MultiAssetOracleAdapter",
      "contractAddress": "0x41fa5925b709936d533e5e1a47dd8d4c64e7c77b",
      "function": null,
      "arguments": [
        "0xB44d652354d12Ac56b83112c6ece1fa2ccEfc683",
        "0x4907d2c1e61b87a99a260f8529c3c4f9e2374edae1f5ab1464a8e79d0f2c26de",
        "86400"
      ],
      "transaction": {
        "from": "0xcc624ffa5df1f3f4b30aa8abd30186a86254f406",
        "gas": "0x61cad",
        "value": "0x0",
        "input": "0x60e0346100f157601f61059f38819003918201601f19168301916001600160401b038311848410176100f5578084926060946040528339810103126100f15780516001600160a01b03811691908290036100f157604060208201519101519180156100e25781156100d35760805260a05260c052604051610495908161010a823960805181818160a6015281816101790152818161025d01526103f3015260a051818181607b0152818161014e015281816102dd01526103c8015260c0518181816101bb015281816102a301526103930152f35b631d6051dd60e21b5f5260045ffd5b63b80f357d60e01b5f5260045ffd5b5f80fd5b634e487b7160e01b5f52604160045260245ffdfe60806040526004361015610011575f80fd5b5f3560e01c80631a26f4471461030057806344de240a146102c6578063687043c51461028c5780637dc0d1d01461024857806398d5fdca1461012e5763a4a281681461005b575f80fd5b3461012a575f36600319011261012a57604080516343fa621160e01b81527f0000000000000000000000000000000000000000000000000000000000000000600482015290816024817f00000000000000000000000000000000000000000000000000000000000000006001600160a01b03165afa90811561011f576040915f915f916100f0575b5082519182526020820152f35b90506101129150823d8411610118575b61010a8183610324565b81019061035a565b5f6100e3565b503d610100565b6040513d5f823e3d90fd5b5f80fd5b3461012a575f36600319011261012a57604080516343fa621160e01b81527f0000000000000000000000000000000000000000000000000000000000000000600482015290816024817f00000000000000000000000000000000000000000000000000000000000000006001600160a01b03165afa801561011f575f915f91610227575b508115610218577f00000000000000000000000000000000000000000000000000000000000000008015159182610204575b50506101f557602090604051908152f35b636888079d60e11b5f5260045ffd5b61021091925042610370565b1182806101e4565b63226b469160e01b5f5260045ffd5b9050610242915060403d6040116101185761010a8183610324565b826101b2565b3461012a575f36600319011261012a576040517f00000000000000000000000000000000000000000000000000000000000000006001600160a01b03168152602090f35b3461012a575f36600319011261012a5760206040517f00000000000000000000000000000000000000000000000000000000000000008152f35b3461012a575f36600319011261012a5760206040517f00000000000000000000000000000000000000000000000000000000000000008152f35b3461012a575f36600319011261012a57602061031a610391565b6040519015158152f35b90601f8019910116810190811067ffffffffffffffff82111761034657604052565b634e487b7160e01b5f52604160045260245ffd5b919082604091031261012a576020825192015190565b9190820391821161037d57565b634e487b7160e01b5f52601160045260245ffd5b7f0000000000000000000000000000000000000000000000000000000000000000801561045a57604080516343fa621160e01b81527f0000000000000000000000000000000000000000000000000000000000000000600482015290816024817f00000000000000000000000000000000000000000000000000000000000000006001600160a01b03165afa801561011f57610435915f91610439575b5042610370565b1190565b610452915060403d6040116101185761010a8183610324565b90505f61042e565b505f9056fea2646970667358221220faa534add4672f0ff8afb535456583009b27096e46f3d7dca2c0e8237da9c89864736f6c634300081e0033000000000000000000000000b44d652354d12ac56b83112c6ece1fa2ccefc6834907d2c1e61b87a99a260f8529c3c4f9e2374edae1f5ab1464a8e79d0f2c26de0000000000000000000000000000000000000000000000000000000000015180",
        "nonce": "0x276",
        "chainId": "0xaa36a7"
      },
      "additionalContracts": [],
      "isFixedGasLimit": false
    },
    {
      "hash": "0xa19841f584d33d77e8e738236601be9200d90fb29795a56fa88d7d023157f026",
      "transactionType": "CREATE",
      "contractName": "MultiAssetOracleAdapter",
      "contractAddress": "0xe6a1d2b4dc450c50ce00fc12fbbaf362c8b0edfd",
      "function": null,
      "arguments": [
        "0xB44d652354d12Ac56b83112c6ece1fa2ccEfc683",
        "0xd6e43f59d2c94773a52e2c20f09762901247d1aaf2090d0b99e85c55c9833626",
        "86400"
      ],
      "transaction": {
        "from": "0xcc624ffa5df1f3f4b30aa8abd30186a86254f406",
        "gas": "0x61cad",
        "value": "0x0",
        "input": "0x60e0346100f157601f61059f38819003918201601f19168301916001600160401b038311848410176100f5578084926060946040528339810103126100f15780516001600160a01b03811691908290036100f157604060208201519101519180156100e25781156100d35760805260a05260c052604051610495908161010a823960805181818160a6015281816101790152818161025d01526103f3015260a051818181607b0152818161014e015281816102dd01526103c8015260c0518181816101bb015281816102a301526103930152f35b631d6051dd60e21b5f5260045ffd5b63b80f357d60e01b5f5260045ffd5b5f80fd5b634e487b7160e01b5f52604160045260245ffdfe60806040526004361015610011575f80fd5b5f3560e01c80631a26f4471461030057806344de240a146102c6578063687043c51461028c5780637dc0d1d01461024857806398d5fdca1461012e5763a4a281681461005b575f80fd5b3461012a575f36600319011261012a57604080516343fa621160e01b81527f0000000000000000000000000000000000000000000000000000000000000000600482015290816024817f00000000000000000000000000000000000000000000000000000000000000006001600160a01b03165afa90811561011f576040915f915f916100f0575b5082519182526020820152f35b90506101129150823d8411610118575b61010a8183610324565b81019061035a565b5f6100e3565b503d610100565b6040513d5f823e3d90fd5b5f80fd5b3461012a575f36600319011261012a57604080516343fa621160e01b81527f0000000000000000000000000000000000000000000000000000000000000000600482015290816024817f00000000000000000000000000000000000000000000000000000000000000006001600160a01b03165afa801561011f575f915f91610227575b508115610218577f00000000000000000000000000000000000000000000000000000000000000008015159182610204575b50506101f557602090604051908152f35b636888079d60e11b5f5260045ffd5b61021091925042610370565b1182806101e4565b63226b469160e01b5f5260045ffd5b9050610242915060403d6040116101185761010a8183610324565b826101b2565b3461012a575f36600319011261012a576040517f00000000000000000000000000000000000000000000000000000000000000006001600160a01b03168152602090f35b3461012a575f36600319011261012a5760206040517f00000000000000000000000000000000000000000000000000000000000000008152f35b3461012a575f36600319011261012a5760206040517f00000000000000000000000000000000000000000000000000000000000000008152f35b3461012a575f36600319011261012a57602061031a610391565b6040519015158152f35b90601f8019910116810190811067ffffffffffffffff82111761034657604052565b634e487b7160e01b5f52604160045260245ffd5b919082604091031261012a576020825192015190565b9190820391821161037d57565b634e487b7160e01b5f52601160045260245ffd5b7f0000000000000000000000000000000000000000000000000000000000000000801561045a57604080516343fa621160e01b81527f0000000000000000000000000000000000000000000000000000000000000000600482015290816024817f00000000000000000000000000000000000000000000000000000000000000006001600160a01b03165afa801561011f57610435915f91610439575b5042610370565b1190565b610452915060403d6040116101185761010a8183610324565b90505f61042e565b505f9056fea2646970667358221220faa534add4672f0ff8afb535456583009b27096e46f3d7dca2c0e8237da9c89864736f6c634300081e0033000000000000000000000000b44d652354d12ac56b83112c6ece1fa2ccefc683d6e43f59d2c94773a52e2c20f09762901247d1aaf2090d0b99e85c55c98336260000000000000000000000000000000000000000000000000000000000015180",
        "nonce": "0x277",
        "chainId": "0xaa36a7"
      },
      "additionalContracts": [],
      "isFixedGasLimit": false
    },
    {
      "hash": "0xaf3af8ce636b9689567176a35cea932aa027a071292a752c0822865f4c367786",
      "transactionType": "CALL",
      "contractName": null,
      "contractAddress": "0xf7210ccc245323258cc15e0ca094ebbe2dc2cd85",
      "function": "setOracle(address)",
      "arguments": [
        "0xc3AB908634253b961bC61Aa0A846F3fc05e271D8"
      ],
      "transaction": {
        "from": "0xcc624ffa5df1f3f4b30aa8abd30186a86254f406",
        "to": "0xf7210ccc245323258cc15e0ca094ebbe2dc2cd85",
        "gas": "0xc9a5",
        "value": "0x0",
        "input": "0x7adbf973000000000000000000000000c3ab908634253b961bc61aa0a846f3fc05e271d8",
        "nonce": "0x278",
        "chainId": "0xaa36a7"
      },
      "additionalContracts": [],
      "isFixedGasLimit": false
    },
    {
      "hash": "0x135f16f5b72d8f8debf126791487c4bd300edb3e6859f5c0a45b1172972dfcae",
      "transactionType": "CREATE",
      "contractName": "ERC1967Proxy",
      "contractAddress": "0xfe1df531084dcf0fe379854823bc5d402932af99",
      "function": null,
      "arguments": [
        "0xd64175cE957F089bA7fb3EBdA5B17f268DE01190",
        "0xfaf3b31e00000000000000000000000018f863b1b0a3eca6b2235dc1957291e357f490b000000000000000000000000041fa5925b709936d533e5e1a47dd8d4c64e7c77b0000000000000000000000000000000000000000000000003a511543fa622aa800000000000000000000000000000000000000000000152d02c7e14af680000000000000000000000000000000000000000000000000d3c21bcecceda1000000000000000000000000000000000000000000000000000000000000000000000a00000000000000000000000000000000000000000000000000000000000000640000000000000000000000000000000000000000000000000de0b6b3a76400000000000000000000000000000000000000000000000000000000000000000384"
      ],
      "transaction": {
        "from": "0xcc624ffa5df1f3f4b30aa8abd30186a86254f406",
        "gas": "0x8c1a5",
        "value": "0x0",
        "input": "0x608060405261029d8038038061001481610168565b92833981016040828203126101645781516001600160a01b03811692909190838303610164576020810151906001600160401b03821161016457019281601f8501121561016457835161006e610069826101a1565b610168565b9481865260208601936020838301011161016457815f926020809301865e86010152823b15610152577f360894a13ba1a3210667c828492db98dca3e2076cc3735a920a3ca505d382bbc80546001600160a01b031916821790557fbc7cd75a20ee27fd9adebab32041f755214dbc6bffa90cc0225b39da2e5c2d3b5f80a282511561013a575f8091610122945190845af43d15610132573d91610113610069846101a1565b9283523d5f602085013e6101bc565b505b6040516082908161021b8239f35b6060916101bc565b50505034156101245763b398979f60e01b5f5260045ffd5b634c9c8ce360e01b5f5260045260245ffd5b5f80fd5b6040519190601f01601f191682016001600160401b0381118382101761018d57604052565b634e487b7160e01b5f52604160045260245ffd5b6001600160401b03811161018d57601f01601f191660200190565b906101e057508051156101d157602081519101fd5b63d6bda27560e01b5f5260045ffd5b81511580610211575b6101f1575090565b639996b31560e01b5f9081526001600160a01b0391909116600452602490fd5b50803b156101e956fe60806040527f360894a13ba1a3210667c828492db98dca3e2076cc3735a920a3ca505d382bbc545f9081906001600160a01b0316368280378136915af43d5f803e156048573d5ff35b3d5ffdfea2646970667358221220f3abbe39e3dcf9a90ad5135ca9a820533e685fb38918ae40cdb47aadceaf067964736f6c634300081e0033000000000000000000000000d64175ce957f089ba7fb3ebda5b17f268de0119000000000000000000000000000000000000000000000000000000000000000400000000000000000000000000000000000000000000000000000000000000124faf3b31e00000000000000000000000018f863b1b0a3eca6b2235dc1957291e357f490b000000000000000000000000041fa5925b709936d533e5e1a47dd8d4c64e7c77b0000000000000000000000000000000000000000000000003a511543fa622aa800000000000000000000000000000000000000000000152d02c7e14af680000000000000000000000000000000000000000000000000d3c21bcecceda1000000000000000000000000000000000000000000000000000000000000000000000a00000000000000000000000000000000000000000000000000000000000000640000000000000000000000000000000000000000000000000de0b6b3a7640000000000000000000000000000000000000000000000000000000000000000038400000000000000000000000000000000000000000000000000000000",
        "nonce": "0x279",
        "chainId": "0xaa36a7"
      },
      "additionalContracts": [],
      "isFixedGasLimit": false
    },
    {
      "hash": "0x24386fa7f937718740ff75b477ae3bd71f3a58771cc1265c83e66c944161ae72",
      "transactionType": "CREATE",
      "contractName": "ERC1967Proxy",
      "contractAddress": "0x19574b8c91717389231da5b0579564d6f81a79b0",
      "function": null,
      "arguments": [
        "0xd64175cE957F089bA7fb3EBdA5B17f268DE01190",
        "0xfaf3b31e00000000000000000000000018f863b1b0a3eca6b2235dc1957291e357f490b0000000000000000000000000e6a1d2b4dc450c50ce00fc12fbbaf362c8b0edfd00000000000000000000000000000000000000000000000028e3287ba58fceb000000000000000000000000000000000000000000000152d02c7e14af680000000000000000000000000000000000000000000000000d3c21bcecceda1000000000000000000000000000000000000000000000000000000000000000000000a00000000000000000000000000000000000000000000000000000000000000640000000000000000000000000000000000000000000000000de0b6b3a76400000000000000000000000000000000000000000000000000000000000000000384"
      ],
      "transaction": {
        "from": "0xcc624ffa5df1f3f4b30aa8abd30186a86254f406",
        "gas": "0x8c196",
        "value": "0x0",
        "input": "0x608060405261029d8038038061001481610168565b92833981016040828203126101645781516001600160a01b03811692909190838303610164576020810151906001600160401b03821161016457019281601f8501121561016457835161006e610069826101a1565b610168565b9481865260208601936020838301011161016457815f926020809301865e86010152823b15610152577f360894a13ba1a3210667c828492db98dca3e2076cc3735a920a3ca505d382bbc80546001600160a01b031916821790557fbc7cd75a20ee27fd9adebab32041f755214dbc6bffa90cc0225b39da2e5c2d3b5f80a282511561013a575f8091610122945190845af43d15610132573d91610113610069846101a1565b9283523d5f602085013e6101bc565b505b6040516082908161021b8239f35b6060916101bc565b50505034156101245763b398979f60e01b5f5260045ffd5b634c9c8ce360e01b5f5260045260245ffd5b5f80fd5b6040519190601f01601f191682016001600160401b0381118382101761018d57604052565b634e487b7160e01b5f52604160045260245ffd5b6001600160401b03811161018d57601f01601f191660200190565b906101e057508051156101d157602081519101fd5b63d6bda27560e01b5f5260045ffd5b81511580610211575b6101f1575090565b639996b31560e01b5f9081526001600160a01b0391909116600452602490fd5b50803b156101e956fe60806040527f360894a13ba1a3210667c828492db98dca3e2076cc3735a920a3ca505d382bbc545f9081906001600160a01b0316368280378136915af43d5f803e156048573d5ff35b3d5ffdfea2646970667358221220f3abbe39e3dcf9a90ad5135ca9a820533e685fb38918ae40cdb47aadceaf067964736f6c634300081e0033000000000000000000000000d64175ce957f089ba7fb3ebda5b17f268de0119000000000000000000000000000000000000000000000000000000000000000400000000000000000000000000000000000000000000000000000000000000124faf3b31e00000000000000000000000018f863b1b0a3eca6b2235dc1957291e357f490b0000000000000000000000000e6a1d2b4dc450c50ce00fc12fbbaf362c8b0edfd00000000000000000000000000000000000000000000000028e3287ba58fceb000000000000000000000000000000000000000000000152d02c7e14af680000000000000000000000000000000000000000000000000d3c21bcecceda1000000000000000000000000000000000000000000000000000000000000000000000a00000000000000000000000000000000000000000000000000000000000000640000000000000000000000000000000000000000000000000de0b6b3a7640000000000000000000000000000000000000000000000000000000000000000038400000000000000000000000000000000000000000000000000000000",
        "nonce": "0x27a",
        "chainId": "0xaa36a7"
      },
      "additionalContracts": [],
      "isFixedGasLimit": false
    },
    {
      "hash": "0x7512d69c0c018010cbb19c2601f5735128cb15bbe716d3ac937f3288de9feac1",
      "transactionType": "CALL",
      "contractName": null,
      "contractAddress": "0x01d2bdbed2cc4ec55b0ea92eda1aab47d57627fd",
      "function": "addMarket((bytes32,address,address,address,address,uint256,uint16,address,address))",
      "arguments": [
        "(0xf4aa47cc83b0d01511ca8025a996421dda6fbab1764466da4b0de6408d3db2e2, 0xFE1df531084Dcf0Fe379854823bC5d402932Af99, 0x41Fa5925b709936D533e5E1a47dd8d4C64E7C77B, 0xc696f32d4F8219CbA41bcD5C949b2551df13A7d6, 0x8C68933688f94BF115ad2F9C8c8e251AE5d4ade7, 1000000000000000000, 10, 0xa75839A6D2Bb2f47FE98dc81EC47eaD01D4A2c1F, 0x3C1085dF918a38A95F84945E6705CC857b664074)"
      ],
      "transaction": {
        "from": "0xcc624ffa5df1f3f4b30aa8abd30186a86254f406",
        "to": "0x01d2bdbed2cc4ec55b0ea92eda1aab47d57627fd",
        "gas": "0x43163",
        "value": "0x0",
        "input": "0xb7eaeaa0f4aa47cc83b0d01511ca8025a996421dda6fbab1764466da4b0de6408d3db2e2000000000000000000000000fe1df531084dcf0fe379854823bc5d402932af9900000000000000000000000041fa5925b709936d533e5e1a47dd8d4c64e7c77b000000000000000000000000c696f32d4f8219cba41bcd5c949b2551df13a7d60000000000000000000000008c68933688f94bf115ad2f9c8c8e251ae5d4ade70000000000000000000000000000000000000000000000000de0b6b3a7640000000000000000000000000000000000000000000000000000000000000000000a000000000000000000000000a75839a6d2bb2f47fe98dc81ec47ead01d4a2c1f0000000000000000000000003c1085df918a38a95f84945e6705cc857b664074",
        "nonce": "0x27b",
        "chainId": "0xaa36a7"
      },
      "additionalContracts": [],
      "isFixedGasLimit": false
    },
    {
      "hash": "0x23ceabd0792c18e818ae91b34b48f545cdc3a1b23e7f8fba98eefca2887a7251",
      "transactionType": "CALL",
      "contractName": null,
      "contractAddress": "0x01d2bdbed2cc4ec55b0ea92eda1aab47d57627fd",
      "function": "addMarket((bytes32,address,address,address,address,uint256,uint16,address,address))",
      "arguments": [
        "(0x9d2d658888da74a10ac9263fc14dcac4a834dd53e8edf664b4cc3b2b4a23f214, 0x19574B8C91717389231DA5b0579564d6F81a79B0, 0xE6A1d2B4DC450C50ce00fc12FBbAf362c8B0EdFD, 0xc696f32d4F8219CbA41bcD5C949b2551df13A7d6, 0x8C68933688f94BF115ad2F9C8c8e251AE5d4ade7, 1000000000000000000, 10, 0xa75839A6D2Bb2f47FE98dc81EC47eaD01D4A2c1F, 0x3C1085dF918a38A95F84945E6705CC857b664074)"
      ],
      "transaction": {
        "from": "0xcc624ffa5df1f3f4b30aa8abd30186a86254f406",
        "to": "0x01d2bdbed2cc4ec55b0ea92eda1aab47d57627fd",
        "gas": "0x3f5b0",
        "value": "0x0",
        "input": "0xb7eaeaa09d2d658888da74a10ac9263fc14dcac4a834dd53e8edf664b4cc3b2b4a23f21400000000000000000000000019574b8c91717389231da5b0579564d6f81a79b0000000000000000000000000e6a1d2b4dc450c50ce00fc12fbbaf362c8b0edfd000000000000000000000000c696f32d4f8219cba41bcd5c949b2551df13a7d60000000000000000000000008c68933688f94bf115ad2f9c8c8e251ae5d4ade70000000000000000000000000000000000000000000000000de0b6b3a7640000000000000000000000000000000000000000000000000000000000000000000a000000000000000000000000a75839a6d2bb2f47fe98dc81ec47ead01d4a2c1f0000000000000000000000003c1085df918a38a95f84945e6705cc857b664074",
        "nonce": "0x27c",
        "chainId": "0xaa36a7"
      },
      "additionalContracts": [],
      "isFixedGasLimit": false
    },
    {
      "hash": "0x85c2de6401b88ee33e8e3dcaea5707b34de5a06ae56de4378bc1c0b1344618e4",
      "transactionType": "CALL",
      "contractName": null,
      "contractAddress": "0x18f863b1b0a3eca6b2235dc1957291e357f490b0",
      "function": "setRiskParams(bytes32,uint256,uint256,uint256,uint256)",
      "arguments": [
        "0xf4aa47cc83b0d01511ca8025a996421dda6fbab1764466da4b0de6408d3db2e2",
        "1000",
        "500",
        "250",
        "1000000000000000000000"
      ],
      "transaction": {
        "from": "0xcc624ffa5df1f3f4b30aa8abd30186a86254f406",
        "to": "0x18f863b1b0a3eca6b2235dc1957291e357f490b0",
        "gas": "0x33020",
        "value": "0x0",
        "input": "0x468e0000f4aa47cc83b0d01511ca8025a996421dda6fbab1764466da4b0de6408d3db2e200000000000000000000000000000000000000000000000000000000000003e800000000000000000000000000000000000000000000000000000000000001f400000000000000000000000000000000000000000000000000000000000000fa00000000000000000000000000000000000000000000003635c9adc5dea00000",
        "nonce": "0x27d",
        "chainId": "0xaa36a7"
      },
      "additionalContracts": [],
      "isFixedGasLimit": false
    },
    {
      "hash": "0x3c87ba1505e32f17fd5b905ab428cf315da72f0bf218facb3908b7f827a3bee1",
      "transactionType": "CALL",
      "contractName": null,
      "contractAddress": "0x18f863b1b0a3eca6b2235dc1957291e357f490b0",
      "function": "setRiskParams(bytes32,uint256,uint256,uint256,uint256)",
      "arguments": [
        "0x9d2d658888da74a10ac9263fc14dcac4a834dd53e8edf664b4cc3b2b4a23f214",
        "1000",
        "500",
        "250",
        "1000000000000000000000"
      ],
      "transaction": {
        "from": "0xcc624ffa5df1f3f4b30aa8abd30186a86254f406",
        "to": "0x18f863b1b0a3eca6b2235dc1957291e357f490b0",
        "gas": "0x33020",
        "value": "0x0",
        "input": "0x468e00009d2d658888da74a10ac9263fc14dcac4a834dd53e8edf664b4cc3b2b4a23f21400000000000000000000000000000000000000000000000000000000000003e800000000000000000000000000000000000000000000000000000000000001f400000000000000000000000000000000000000000000000000000000000000fa00000000000000000000000000000000000000000000003635c9adc5dea00000",
        "nonce": "0x27e",
        "chainId": "0xaa36a7"
      },
      "additionalContracts": [],
      "isFixedGasLimit": false
    }
  ],
  "receipts": [
    {
      "status": "0x1",
      "cumulativeGasUsed": "0x622bdb",
      "logs": [],
      "logsBloom": "0x00000000000000000000000000000000000000000000000000000000000000000000000000000000000000000000000000000000000000000000000000000000000000000000000000000000000000000000000000000000000000000000000000000000000000000000000000000000000000000000000000000000000000000000000000000000000000000000000000000000000000000000000000000000000000000000000000000000000000000000000000000000000000000000000000000000000000000000000000000000000000000000000000000000000000000000000000000000000000000000000000000000000000000000000000000000",
      "type": "0x0",
      "transactionHash": "0x8b81d07ab08628e84e06273e7feacbf00beef81960af214774aa13354aade9d9",
      "transactionIndex": "0x2e",
      "blockHash": "0xb41cb0385a527edb3b2b33ceff7ab8c28807af53b87411e4fa1ef825ef6a7fac",
      "blockNumber": "0x966239",
      "gasUsed": "0x6777a",
      "effectiveGasPrice": "0x23efff30",
      "from": "0xcc624ffa5df1f3f4b30aa8abd30186a86254f406",
      "to": null,
      "contractAddress": "0xb44d652354d12ac56b83112c6ece1fa2ccefc683"
    },
    {
      "status": "0x1",
      "cumulativeGasUsed": "0x5111df",
      "logs": [
        {
          "address": "0xb44d652354d12ac56b83112c6ece1fa2ccefc683",
          "topics": [
            "0xa36ad57ce820f3e2207fa95e8c7e671ad53c84a0e8dc94378e26f3546126905d",
            "0x4907d2c1e61b87a99a260f8529c3c4f9e2374edae1f5ab1464a8e79d0f2c26de"
          ],
          "data": "0x0000000000000000000000000000000000000000000000003a511543fa622aa8",
          "blockHash": "0x2f003c85ee697d52c8ef7bb3d827b449b2c7a4d0355821f3404e1fd1b35bc0e5",
          "blockNumber": "0x9662e6",
          "blockTimestamp": "0x6941d4ec",
          "transactionHash": "0x904268a8c685572950733be88fb1188d956e959423da8ba988eb3442d04e0549",
          "transactionIndex": "0x28",
          "logIndex": "0x28",
          "removed": false
        },
        {
          "address": "0xb44d652354d12ac56b83112c6ece1fa2ccefc683",
          "topics": [
            "0xbcd10d64fce9dcf9568572ed92e371df336d32649e8960a045c9548794a44b26",
            "0x4907d2c1e61b87a99a260f8529c3c4f9e2374edae1f5ab1464a8e79d0f2c26de",
            "0x0000000000000000000000000000000000000000000000003a511543fa622aa8"
          ],
          "data": "0x000000000000000000000000000000000000000000000000000000006941d4ec",
          "blockHash": "0x2f003c85ee697d52c8ef7bb3d827b449b2c7a4d0355821f3404e1fd1b35bc0e5",
          "blockNumber": "0x9662e6",
          "blockTimestamp": "0x6941d4ec",
          "transactionHash": "0x904268a8c685572950733be88fb1188d956e959423da8ba988eb3442d04e0549",
          "transactionIndex": "0x28",
          "logIndex": "0x29",
          "removed": false
        }
      ],
      "logsBloom": "0x00000000000000000000000000000000000020000000000001000000000000000000000000000040000000000000000000000000000000000000000002000000000000000000000000000000000000000000000000000000000008000000000000020000080000000000040000000000000000000000000000200000000002000040000000000000000000000000000000000000000000000000000000000000400000000000000000000000000000000000000000000000200000000000000000000000000000000000000000000000000000800000000000000000000000000040000000000000000000000000000000000000000000000000000000000000",
      "type": "0x0",
      "transactionHash": "0x904268a8c685572950733be88fb1188d956e959423da8ba988eb3442d04e0549",
      "transactionIndex": "0x28",
      "blockHash": "0x2f003c85ee697d52c8ef7bb3d827b449b2c7a4d0355821f3404e1fd1b35bc0e5",
      "blockNumber": "0x9662e6",
      "gasUsed": "0x16f76",
      "effectiveGasPrice": "0x23efff30",
      "from": "0xcc624ffa5df1f3f4b30aa8abd30186a86254f406",
      "to": "0xb44d652354d12ac56b83112c6ece1fa2ccefc683",
      "contractAddress": null
    },
    {
      "status": "0x1",
      "cumulativeGasUsed": "0x528155",
      "logs": [
        {
          "address": "0xb44d652354d12ac56b83112c6ece1fa2ccefc683",
          "topics": [
            "0xa36ad57ce820f3e2207fa95e8c7e671ad53c84a0e8dc94378e26f3546126905d",
            "0xd6e43f59d2c94773a52e2c20f09762901247d1aaf2090d0b99e85c55c9833626"
          ],
          "data": "0x00000000000000000000000000000000000000000000000028e3287ba58fceb0",
          "blockHash": "0x2f003c85ee697d52c8ef7bb3d827b449b2c7a4d0355821f3404e1fd1b35bc0e5",
          "blockNumber": "0x9662e6",
          "blockTimestamp": "0x6941d4ec",
          "transactionHash": "0x2bdac80148f51cf6bf2a3fa2b4979e6de05016ce7b2a4e24b749e1cf6b66387c",
          "transactionIndex": "0x29",
          "logIndex": "0x2a",
          "removed": false
        },
        {
          "address": "0xb44d652354d12ac56b83112c6ece1fa2ccefc683",
          "topics": [
            "0xbcd10d64fce9dcf9568572ed92e371df336d32649e8960a045c9548794a44b26",
            "0xd6e43f59d2c94773a52e2c20f09762901247d1aaf2090d0b99e85c55c9833626",
            "0x00000000000000000000000000000000000000000000000028e3287ba58fceb0"
          ],
          "data": "0x000000000000000000000000000000000000000000000000000000006941d4ec",
          "blockHash": "0x2f003c85ee697d52c8ef7bb3d827b449b2c7a4d0355821f3404e1fd1b35bc0e5",
          "blockNumber": "0x9662e6",
          "blockTimestamp": "0x6941d4ec",
          "transactionHash": "0x2bdac80148f51cf6bf2a3fa2b4979e6de05016ce7b2a4e24b749e1cf6b66387c",
          "transactionIndex": "0x29",
          "logIndex": "0x2b",
          "removed": false
        }
      ],
      "logsBloom": "0x00000000000200000000000000000000000020000000000001001000000000000000000000000040000001000000000000000000000000000000000000000000000000000000000000000000000000000000000000000000000008000000000000000000080000000000040000000000000000000000000000000000000002000000000000000000000000000000000000000000000000000000000000000000000000000000000000000000000000000000000000000000200000000000000000000000000001000000000000000000008000800000000000000000000000000000000000000000000000000000000000000000000000000010000000000000",
      "type": "0x0",
      "transactionHash": "0x2bdac80148f51cf6bf2a3fa2b4979e6de05016ce7b2a4e24b749e1cf6b66387c",
      "transactionIndex": "0x29",
      "blockHash": "0x2f003c85ee697d52c8ef7bb3d827b449b2c7a4d0355821f3404e1fd1b35bc0e5",
      "blockNumber": "0x9662e6",
      "gasUsed": "0x16f76",
      "effectiveGasPrice": "0x23efff30",
      "from": "0xcc624ffa5df1f3f4b30aa8abd30186a86254f406",
      "to": "0xb44d652354d12ac56b83112c6ece1fa2ccefc683",
      "contractAddress": null
    },
    {
      "status": "0x1",
      "cumulativeGasUsed": "0x58a464",
      "logs": [],
      "logsBloom": "0x00000000000000000000000000000000000000000000000000000000000000000000000000000000000000000000000000000000000000000000000000000000000000000000000000000000000000000000000000000000000000000000000000000000000000000000000000000000000000000000000000000000000000000000000000000000000000000000000000000000000000000000000000000000000000000000000000000000000000000000000000000000000000000000000000000000000000000000000000000000000000000000000000000000000000000000000000000000000000000000000000000000000000000000000000000000",
      "type": "0x0",
      "transactionHash": "0x201d2501f9a75ed1d1c01b1538c7415551e58922f0c675d1c4e15a43de3d708e",
      "transactionIndex": "0x2b",
      "blockHash": "0x2f003c85ee697d52c8ef7bb3d827b449b2c7a4d0355821f3404e1fd1b35bc0e5",
      "blockNumber": "0x9662e6",
      "gasUsed": "0x4b399",
      "effectiveGasPrice": "0x23efff30",
      "from": "0xcc624ffa5df1f3f4b30aa8abd30186a86254f406",
      "to": null,
      "contractAddress": "0x41fa5925b709936d533e5e1a47dd8d4c64e7c77b"
    },
    {
      "status": "0x1",
      "cumulativeGasUsed": "0x5d57fd",
      "logs": [],
      "logsBloom": "0x00000000000000000000000000000000000000000000000000000000000000000000000000000000000000000000000000000000000000000000000000000000000000000000000000000000000000000000000000000000000000000000000000000000000000000000000000000000000000000000000000000000000000000000000000000000000000000000000000000000000000000000000000000000000000000000000000000000000000000000000000000000000000000000000000000000000000000000000000000000000000000000000000000000000000000000000000000000000000000000000000000000000000000000000000000000",
      "type": "0x0",
      "transactionHash": "0xa19841f584d33d77e8e738236601be9200d90fb29795a56fa88d7d023157f026",
      "transactionIndex": "0x2c",
      "blockHash": "0x2f003c85ee697d52c8ef7bb3d827b449b2c7a4d0355821f3404e1fd1b35bc0e5",
      "blockNumber": "0x9662e6",
      "gasUsed": "0x4b399",
      "effectiveGasPrice": "0x23efff30",
      "from": "0xcc624ffa5df1f3f4b30aa8abd30186a86254f406",
      "to": null,
      "contractAddress": "0xe6a1d2b4dc450c50ce00fc12fbbaf362c8b0edfd"
    },
    {
      "status": "0x1",
      "cumulativeGasUsed": "0x5de1de",
      "logs": [
        {
          "address": "0xf7210ccc245323258cc15e0ca094ebbe2dc2cd85",
          "topics": [
            "0x0e05ae75e8b926552cf6fcd744d19f422561e3ced1e426868730852702dbe418",
            "0x000000000000000000000000c3ab908634253b961bc61aa0a846f3fc05e271d8"
          ],
          "data": "0x",
          "blockHash": "0x2f003c85ee697d52c8ef7bb3d827b449b2c7a4d0355821f3404e1fd1b35bc0e5",
          "blockNumber": "0x9662e6",
          "blockTimestamp": "0x6941d4ec",
          "transactionHash": "0xaf3af8ce636b9689567176a35cea932aa027a071292a752c0822865f4c367786",
          "transactionIndex": "0x2d",
          "logIndex": "0x2e",
          "removed": false
        }
      ],
      "logsBloom": "0x0000000000200000000000000000000000000000008000000000000000000000000000000000000000000000000000000000000000000000000000000000000000000000000004000000000000000000000001000000000000000000000000000000000000000000000000000000000000000000000000000000100000000000000000000000000000000000000000000000000000000000000000000000000000000000000000000000000000000000000000000000000000000000000000000000080000000000000000000000000000000a000000000000000000000000000000000000000000080000000000000000000000000000000000000000000000",
      "type": "0x0",
      "transactionHash": "0xaf3af8ce636b9689567176a35cea932aa027a071292a752c0822865f4c367786",
      "transactionIndex": "0x2d",
      "blockHash": "0x2f003c85ee697d52c8ef7bb3d827b449b2c7a4d0355821f3404e1fd1b35bc0e5",
      "blockNumber": "0x9662e6",
      "gasUsed": "0x89e1",
      "effectiveGasPrice": "0x23efff30",
      "from": "0xcc624ffa5df1f3f4b30aa8abd30186a86254f406",
      "to": "0xf7210ccc245323258cc15e0ca094ebbe2dc2cd85",
      "contractAddress": null
    },
    {
      "status": "0x1",
      "cumulativeGasUsed": "0x649e36",
      "logs": [
        {
          "address": "0xfe1df531084dcf0fe379854823bc5d402932af99",
          "topics": [
            "0xbc7cd75a20ee27fd9adebab32041f755214dbc6bffa90cc0225b39da2e5c2d3b",
            "0x000000000000000000000000d64175ce957f089ba7fb3ebda5b17f268de01190"
          ],
          "data": "0x",
          "blockHash": "0x2f003c85ee697d52c8ef7bb3d827b449b2c7a4d0355821f3404e1fd1b35bc0e5",
          "blockNumber": "0x9662e6",
          "blockTimestamp": "0x6941d4ec",
          "transactionHash": "0x135f16f5b72d8f8debf126791487c4bd300edb3e6859f5c0a45b1172972dfcae",
          "transactionIndex": "0x2e",
          "logIndex": "0x2f",
          "removed": false
        },
        {
          "address": "0xfe1df531084dcf0fe379854823bc5d402932af99",
          "topics": [
            "0x4a9c62e9f5b1bd7dfbc4dbff9e13a7178fe7a004d15c4e66c942416714f28edb",
            "0x000000000000000000000000cc624ffa5df1f3f4b30aa8abd30186a86254f406",
            "0x00000000000000000000000018f863b1b0a3eca6b2235dc1957291e357f490b0"
          ],
          "data": "0x0000000000000000000000000000000000000000000000003a511543fa622aa800000000000000000000000000000000000000000000152d02c7e14af68000000000000000000000000000000000000000000000000058fbf912d9ee0a569900",
          "blockHash": "0x2f003c85ee697d52c8ef7bb3d827b449b2c7a4d0355821f3404e1fd1b35bc0e5",
          "blockNumber": "0x9662e6",
          "blockTimestamp": "0x6941d4ec",
          "transactionHash": "0x135f16f5b72d8f8debf126791487c4bd300edb3e6859f5c0a45b1172972dfcae",
          "transactionIndex": "0x2e",
          "logIndex": "0x30",
          "removed": false
        },
        {
          "address": "0xfe1df531084dcf0fe379854823bc5d402932af99",
          "topics": [
            "0xa9f34f0da0b45009199e43ae578e6e4f5f1669be878f998b42c0b42be12d1751"
          ],
          "data": "0x000000000000000000000000000000000000000000000000000000000000000a00000000000000000000000000000000000000000000000000000000000000640000000000000000000000000000000000000000000000000de0b6b3a76400000000000000000000000000000000000000000000000000000000000000000384",
          "blockHash": "0x2f003c85ee697d52c8ef7bb3d827b449b2c7a4d0355821f3404e1fd1b35bc0e5",
          "blockNumber": "0x9662e6",
          "blockTimestamp": "0x6941d4ec",
          "transactionHash": "0x135f16f5b72d8f8debf126791487c4bd300edb3e6859f5c0a45b1172972dfcae",
          "transactionIndex": "0x2e",
          "logIndex": "0x31",
          "removed": false
        },
        {
          "address": "0xfe1df531084dcf0fe379854823bc5d402932af99",
          "topics": [
            "0xda910bf02851bb8d050a9d9cde446a782984df3623b69c1316ec0785457fb03a"
          ],
          "data": "0x00000000000000000000000000000000000000000000d3c21bcecceda1000000",
          "blockHash": "0x2f003c85ee697d52c8ef7bb3d827b449b2c7a4d0355821f3404e1fd1b35bc0e5",
          "blockNumber": "0x9662e6",
          "blockTimestamp": "0x6941d4ec",
          "transactionHash": "0x135f16f5b72d8f8debf126791487c4bd300edb3e6859f5c0a45b1172972dfcae",
          "transactionIndex": "0x2e",
          "logIndex": "0x32",
          "removed": false
        },
        {
          "address": "0xfe1df531084dcf0fe379854823bc5d402932af99",
          "topics": [
            "0xc7f505b2f371ae2175ee4913f4499e1f2633a7b5936321eed1cdaeb6115181d2"
          ],
          "data": "0x0000000000000000000000000000000000000000000000000000000000000001",
          "blockHash": "0x2f003c85ee697d52c8ef7bb3d827b449b2c7a4d0355821f3404e1fd1b35bc0e5",
          "blockNumber": "0x9662e6",
          "blockTimestamp": "0x6941d4ec",
          "transactionHash": "0x135f16f5b72d8f8debf126791487c4bd300edb3e6859f5c0a45b1172972dfcae",
          "transactionIndex": "0x2e",
          "logIndex": "0x33",
          "removed": false
        }
      ],
      "logsBloom": "0x00000000000000000000000000000000400000000000000000800000000000000000200000000000400010000000000000000000020000000000004000000000000000000000000000000000000002000000000020000000200000000000000000000000000000000000002000000000800000000000000000000000000040000000000000000000000800000400000000000000000080000004000000000000000000000000400000000000000000000000200000000000000000000000000004000020000000000000100000000000000080000004000000000100000000000000001000000000000000000200000000000000000000000000000000000000",
      "type": "0x0",
      "transactionHash": "0x135f16f5b72d8f8debf126791487c4bd300edb3e6859f5c0a45b1172972dfcae",
      "transactionIndex": "0x2e",
      "blockHash": "0x2f003c85ee697d52c8ef7bb3d827b449b2c7a4d0355821f3404e1fd1b35bc0e5",
      "blockNumber": "0x9662e6",
      "gasUsed": "0x6bc58",
      "effectiveGasPrice": "0x23efff30",
      "from": "0xcc624ffa5df1f3f4b30aa8abd30186a86254f406",
      "to": null,
      "contractAddress": "0xfe1df531084dcf0fe379854823bc5d402932af99"
    },
    {
      "status": "0x1",
      "cumulativeGasUsed": "0x6b5a82",
      "logs": [
        {
          "address": "0x19574b8c91717389231da5b0579564d6f81a79b0",
          "topics": [
            "0xbc7cd75a20ee27fd9adebab32041f755214dbc6bffa90cc0225b39da2e5c2d3b",
            "0x000000000000000000000000d64175ce957f089ba7fb3ebda5b17f268de01190"
          ],
          "data": "0x",
          "blockHash": "0x2f003c85ee697d52c8ef7bb3d827b449b2c7a4d0355821f3404e1fd1b35bc0e5",
          "blockNumber": "0x9662e6",
          "blockTimestamp": "0x6941d4ec",
          "transactionHash": "0x24386fa7f937718740ff75b477ae3bd71f3a58771cc1265c83e66c944161ae72",
          "transactionIndex": "0x2f",
          "logIndex": "0x34",
          "removed": false
        },
        {
          "address": "0x19574b8c91717389231da5b0579564d6f81a79b0",
          "topics": [
            "0x4a9c62e9f5b1bd7dfbc4dbff9e13a7178fe7a004d15c4e66c942416714f28edb",
            "0x000000000000000000000000cc624ffa5df1f3f4b30aa8abd30186a86254f406",
            "0x00000000000000000000000018f863b1b0a3eca6b2235dc1957291e357f490b0"
          ],
          "data": "0x00000000000000000000000000000000000000000000000028e3287ba58fceb000000000000000000000000000000000000000000000152d02c7e14af6800000000000000000000000000000000000000000000000003e639da5ab808ec14e00",
          "blockHash": "0x2f003c85ee697d52c8ef7bb3d827b449b2c7a4d0355821f3404e1fd1b35bc0e5",
          "blockNumber": "0x9662e6",
          "blockTimestamp": "0x6941d4ec",
          "transactionHash": "0x24386fa7f937718740ff75b477ae3bd71f3a58771cc1265c83e66c944161ae72",
          "transactionIndex": "0x2f",
          "logIndex": "0x35",
          "removed": false
        },
        {
          "address": "0x19574b8c91717389231da5b0579564d6f81a79b0",
          "topics": [
            "0xa9f34f0da0b45009199e43ae578e6e4f5f1669be878f998b42c0b42be12d1751"
          ],
          "data": "0x000000000000000000000000000000000000000000000000000000000000000a00000000000000000000000000000000000000000000000000000000000000640000000000000000000000000000000000000000000000000de0b6b3a76400000000000000000000000000000000000000000000000000000000000000000384",
          "blockHash": "0x2f003c85ee697d52c8ef7bb3d827b449b2c7a4d0355821f3404e1fd1b35bc0e5",
          "blockNumber": "0x9662e6",
          "blockTimestamp": "0x6941d4ec",
          "transactionHash": "0x24386fa7f937718740ff75b477ae3bd71f3a58771cc1265c83e66c944161ae72",
          "transactionIndex": "0x2f",
          "logIndex": "0x36",
          "removed": false
        },
        {
          "address": "0x19574b8c91717389231da5b0579564d6f81a79b0",
          "topics": [
            "0xda910bf02851bb8d050a9d9cde446a782984df3623b69c1316ec0785457fb03a"
          ],
          "data": "0x00000000000000000000000000000000000000000000d3c21bcecceda1000000",
          "blockHash": "0x2f003c85ee697d52c8ef7bb3d827b449b2c7a4d0355821f3404e1fd1b35bc0e5",
          "blockNumber": "0x9662e6",
          "blockTimestamp": "0x6941d4ec",
          "transactionHash": "0x24386fa7f937718740ff75b477ae3bd71f3a58771cc1265c83e66c944161ae72",
          "transactionIndex": "0x2f",
          "logIndex": "0x37",
          "removed": false
        },
        {
          "address": "0x19574b8c91717389231da5b0579564d6f81a79b0",
          "topics": [
            "0xc7f505b2f371ae2175ee4913f4499e1f2633a7b5936321eed1cdaeb6115181d2"
          ],
          "data": "0x0000000000000000000000000000000000000000000000000000000000000001",
          "blockHash": "0x2f003c85ee697d52c8ef7bb3d827b449b2c7a4d0355821f3404e1fd1b35bc0e5",
          "blockNumber": "0x9662e6",
          "blockTimestamp": "0x6941d4ec",
          "transactionHash": "0x24386fa7f937718740ff75b477ae3bd71f3a58771cc1265c83e66c944161ae72",
          "transactionIndex": "0x2f",
          "logIndex": "0x38",
          "removed": false
        }
      ],
      "logsBloom": "0x00000000000000000000000000000000400000000000000000800000000000000000200000000000400010000000000000000000020000000000004000000000000000000000000000000000000022000000000020000000000000000000000000000000000000000000002000000000000000000000000000000000000040000000000000000000000800000000000000000000000080000004000000000000000000000000400000000000008000000000200000000000000000000000000004000020000000000000100000000000000080000004000000000100000000000000001000000000000000000200000000000000000000000000008000000000",
      "type": "0x0",
      "transactionHash": "0x24386fa7f937718740ff75b477ae3bd71f3a58771cc1265c83e66c944161ae72",
      "transactionIndex": "0x2f",
      "blockHash": "0x2f003c85ee697d52c8ef7bb3d827b449b2c7a4d0355821f3404e1fd1b35bc0e5",
      "blockNumber": "0x9662e6",
      "gasUsed": "0x6bc4c",
      "effectiveGasPrice": "0x23efff30",
      "from": "0xcc624ffa5df1f3f4b30aa8abd30186a86254f406",
      "to": null,
      "contractAddress": "0x19574b8c91717389231da5b0579564d6f81a79b0"
    },
    {
      "status": "0x1",
      "cumulativeGasUsed": "0x6e3873",
      "logs": [
        {
          "address": "0x01d2bdbed2cc4ec55b0ea92eda1aab47d57627fd",
          "topics": [
            "0x3ca3906a1acc14aee692a58b74ea4d433d5b33625fc29e6f1cfbac4df9ee7f1e",
            "0xf4aa47cc83b0d01511ca8025a996421dda6fbab1764466da4b0de6408d3db2e2",
            "0x000000000000000000000000fe1df531084dcf0fe379854823bc5d402932af99"
          ],
          "data": "0x",
          "blockHash": "0x2f003c85ee697d52c8ef7bb3d827b449b2c7a4d0355821f3404e1fd1b35bc0e5",
          "blockNumber": "0x9662e6",
          "blockTimestamp": "0x6941d4ec",
          "transactionHash": "0x7512d69c0c018010cbb19c2601f5735128cb15bbe716d3ac937f3288de9feac1",
          "transactionIndex": "0x30",
          "logIndex": "0x39",
          "removed": false
        }
      ],
      "logsBloom": "0x00000400000000000000000000000000000000000000000000000000000200000000000000000000000000000000000000000000000000000000014000000000000000000001000000000000000000000000000000000004000400000001000000000000004000000000000000000000000000000000000000000000000000000000000000000000000000000000000000000000000000000000000000000000000000000000000000000000000000000000000000000000000000000000000000000000000000000020000000000000000000000000000000000001000000000000000000000000000000000000000000000000000000000000000000000000",
      "type": "0x0",
      "transactionHash": "0x7512d69c0c018010cbb19c2601f5735128cb15bbe716d3ac937f3288de9feac1",
      "transactionIndex": "0x30",
      "blockHash": "0x2f003c85ee697d52c8ef7bb3d827b449b2c7a4d0355821f3404e1fd1b35bc0e5",
      "blockNumber": "0x9662e6",
      "gasUsed": "0x2ddf1",
      "effectiveGasPrice": "0x23efff30",
      "from": "0xcc624ffa5df1f3f4b30aa8abd30186a86254f406",
      "to": "0x01d2bdbed2cc4ec55b0ea92eda1aab47d57627fd",
      "contractAddress": null
    },
    {
      "status": "0x1",
      "cumulativeGasUsed": "0x711658",
      "logs": [
        {
          "address": "0x01d2bdbed2cc4ec55b0ea92eda1aab47d57627fd",
          "topics": [
            "0x3ca3906a1acc14aee692a58b74ea4d433d5b33625fc29e6f1cfbac4df9ee7f1e",
            "0x9d2d658888da74a10ac9263fc14dcac4a834dd53e8edf664b4cc3b2b4a23f214",
            "0x00000000000000000000000019574b8c91717389231da5b0579564d6f81a79b0"
          ],
          "data": "0x",
          "blockHash": "0x2f003c85ee697d52c8ef7bb3d827b449b2c7a4d0355821f3404e1fd1b35bc0e5",
          "blockNumber": "0x9662e6",
          "blockTimestamp": "0x6941d4ec",
          "transactionHash": "0x23ceabd0792c18e818ae91b34b48f545cdc3a1b23e7f8fba98eefca2887a7251",
          "transactionIndex": "0x31",
          "logIndex": "0x3a",
          "removed": false
        }
      ],
      "logsBloom": "0x00000400000400000000000000000000000000000008000000000002000000000000000000000000000000000000000000000000000000000000004000000000000000000000000000000000000000000000000000200004000400000001000000000000000000000000000000000000000000000000000000000000000000000000000000000000000000000000000000000000000000000002000000000000000000000000000000000000000000000000000000000000000000000000000000000000000000000000000000000080000000000000000000000001000000000000000000000000000000000000000000000000000000000000000000000000",
      "type": "0x0",
      "transactionHash": "0x23ceabd0792c18e818ae91b34b48f545cdc3a1b23e7f8fba98eefca2887a7251",
      "transactionIndex": "0x31",
      "blockHash": "0x2f003c85ee697d52c8ef7bb3d827b449b2c7a4d0355821f3404e1fd1b35bc0e5",
      "blockNumber": "0x9662e6",
      "gasUsed": "0x2dde5",
      "effectiveGasPrice": "0x23efff30",
      "from": "0xcc624ffa5df1f3f4b30aa8abd30186a86254f406",
      "to": "0x01d2bdbed2cc4ec55b0ea92eda1aab47d57627fd",
      "contractAddress": null
    },
    {
      "status": "0x1",
      "cumulativeGasUsed": "0x734461",
      "logs": [
        {
          "address": "0x18f863b1b0a3eca6b2235dc1957291e357f490b0",
          "topics": [
            "0xab89b7189222424f7474f0f10fedb16bd41c97e3baf664fb01b8b15a319ce08d",
            "0xf4aa47cc83b0d01511ca8025a996421dda6fbab1764466da4b0de6408d3db2e2"
          ],
          "data": "0x00000000000000000000000000000000000000000000000000000000000003e800000000000000000000000000000000000000000000000000000000000001f400000000000000000000000000000000000000000000000000000000000000fa00000000000000000000000000000000000000000000003635c9adc5dea00000",
          "blockHash": "0x2f003c85ee697d52c8ef7bb3d827b449b2c7a4d0355821f3404e1fd1b35bc0e5",
          "blockNumber": "0x9662e6",
          "blockTimestamp": "0x6941d4ec",
          "transactionHash": "0x85c2de6401b88ee33e8e3dcaea5707b34de5a06ae56de4378bc1c0b1344618e4",
          "transactionIndex": "0x32",
          "logIndex": "0x3b",
          "removed": false
        }
      ],
      "logsBloom": "0x00000000000000000000000000000000000000000000000000000000000000000000000000000000000000000000000000000000000000000000000000000000000000000000000000000000000000000000008000000000000000000001000000000000004000000000000000000000000000000000000000000000000000000000000000000000000000000000000000000000000000000000000000000000000000000000040000000000000000000000000084000000000000000000000000000000000100000020000000000000000000000000000000000000000000000000000000000000100000000000000000000000000000000000000000000000",
      "type": "0x0",
      "transactionHash": "0x85c2de6401b88ee33e8e3dcaea5707b34de5a06ae56de4378bc1c0b1344618e4",
      "transactionIndex": "0x32",
      "blockHash": "0x2f003c85ee697d52c8ef7bb3d827b449b2c7a4d0355821f3404e1fd1b35bc0e5",
      "blockNumber": "0x9662e6",
      "gasUsed": "0x22e09",
      "effectiveGasPrice": "0x23efff30",
      "from": "0xcc624ffa5df1f3f4b30aa8abd30186a86254f406",
      "to": "0x18f863b1b0a3eca6b2235dc1957291e357f490b0",
      "contractAddress": null
    },
    {
      "status": "0x1",
      "cumulativeGasUsed": "0x75726a",
      "logs": [
        {
          "address": "0x18f863b1b0a3eca6b2235dc1957291e357f490b0",
          "topics": [
            "0xab89b7189222424f7474f0f10fedb16bd41c97e3baf664fb01b8b15a319ce08d",
            "0x9d2d658888da74a10ac9263fc14dcac4a834dd53e8edf664b4cc3b2b4a23f214"
          ],
          "data": "0x00000000000000000000000000000000000000000000000000000000000003e800000000000000000000000000000000000000000000000000000000000001f400000000000000000000000000000000000000000000000000000000000000fa00000000000000000000000000000000000000000000003635c9adc5dea00000",
          "blockHash": "0x2f003c85ee697d52c8ef7bb3d827b449b2c7a4d0355821f3404e1fd1b35bc0e5",
          "blockNumber": "0x9662e6",
          "blockTimestamp": "0x6941d4ec",
          "transactionHash": "0x3c87ba1505e32f17fd5b905ab428cf315da72f0bf218facb3908b7f827a3bee1",
          "transactionIndex": "0x33",
          "logIndex": "0x3c",
          "removed": false
        }
      ],
      "logsBloom": "0x00000000000000000000000000000000000000000008000000000000000000000000000000000000000000000000000000000000000000000000000000000000000000000000000000000000000000000000008000200000000000000000000000000000000000000000000000000000000000000000000000000000000000000000000000000000000000000000000000000000000000000000000000000000000000000000040000000000000000000000000084000000000000000000000000000000000100000000000000000080000000000000000000000000000000000000000000000000100000000000000000000000000000000000000000000000",
      "type": "0x0",
      "transactionHash": "0x3c87ba1505e32f17fd5b905ab428cf315da72f0bf218facb3908b7f827a3bee1",
      "transactionIndex": "0x33",
      "blockHash": "0x2f003c85ee697d52c8ef7bb3d827b449b2c7a4d0355821f3404e1fd1b35bc0e5",
      "blockNumber": "0x9662e6",
      "gasUsed": "0x22e09",
      "effectiveGasPrice": "0x23efff30",
      "from": "0xcc624ffa5df1f3f4b30aa8abd30186a86254f406",
      "to": "0x18f863b1b0a3eca6b2235dc1957291e357f490b0",
      "contractAddress": null
    }
  ],
  "libraries": [],
  "pending": [
    "0xf6c05f5fb603a91a18063a6a0cac2eb94a34c382765b564fad7d87ed68565efd",
    "0xf743dd6b0d5a4a838940f1a4fd3d1009f7ae4800dd76e90a1429f7aea583b9e9"
  ],
  "returns": {},
  "timestamp": 1765938638436,
  "chain": 11155111,
  "commit": "642ec71"
}