{
  "transactions": [
    {
      "hash": "0x3606c8c0367473b54e6fd7d125be3c3781976aa961adcde9f4872298f341e9d0",
      "transactionType": "CREATE",
      "contractName": "MultiAssetOracle",
      "contractAddress": "0xce23e7298cf6300963bb722819ba54c700f8d2d1",
      "function": null,
      "arguments": null,
      "transaction": {
        "from": "0xcc624ffa5df1f3f4b30aa8abd30186a86254f406",
        "gas": "0x8681e",
        "value": "0x0",
        "input": "0x608080604052346026575f80546001600160a01b0319163317905561064b908161002b8239f35b5f80fdfe6080806040526004361015610012575f80fd5b5f3560e01c908163060eb2f5146105845750806318cf42901461049a5780632bed62c2146100a057806331d98b3f1461045b57806343fa62111461040b5780635f704f3e1461038657806360846bc61461035c578063650ef52f1461022a578063837592db1461018e5780638da5cb5b14610167578063f2fde38b146100d35763fff168a8146100a0575f80fd5b346100cf5760203660031901126100cf576004355f526003602052602060ff60405f2054166040519015158152f35b5f80fd5b346100cf5760203660031901126100cf576004356001600160a01b038116908190036100cf575f546001600160a01b038116903382900361015857821561014a576001600160a01b03191682175f9081557f8be0079c531659141344cd1fd0a4f28419497f9722a3daafe3b4186f6b6457e09080a3005b62bfc92160e01b5f5260045ffd5b635fc483c560e01b5f5260045ffd5b346100cf575f3660031901126100cf575f546040516001600160a01b039091168152602090f35b346100cf5760203660031901126100cf575f54600435906001600160a01b0316330361015857805f52600360205260ff60405f2054161561021b575f818152600360209081526040808320805460ff1916905560018252808320839055600290915281208190557fe04ea870ffed321c6b17bd99491201ac9ffab5f53d6de97faca5ba5db956fbef9080a2005b630719d53360e21b5f5260045ffd5b346100cf5760403660031901126100cf5760043567ffffffffffffffff81116100cf5761025b9036906004016105c0565b60243567ffffffffffffffff81116100cf5761027b9036906004016105c0565b5f5491939092916001600160a01b0316330361015857828203610325575f5b8281106102a357005b6102ae8184846105f1565b35906102bb8186886105f1565b35825f52600360205260ff60405f2054161561021b57801561014a57826001935f52836020528160405f2055805f5260026020524260405f20557fbcd10d64fce9dcf9568572ed92e371df336d32649e8960a045c9548794a44b266020604051428152a30161029a565b60405162461bcd60e51b815260206004820152600f60248201526e098cadccee8d040dad2e6dac2e8c6d608b1b6044820152606490fd5b346100cf5760203660031901126100cf576004355f526001602052602060405f2054604051908152f35b346100cf57610394366105aa565b5f549091906001600160a01b0316330361015857805f52600360205260ff60405f2054161561021b57811561014a57805f5260016020528160405f2055805f5260026020524260405f20557fbcd10d64fce9dcf9568572ed92e371df336d32649e8960a045c9548794a44b266020604051428152a3005b346100cf5760203660031901126100cf57600435805f52600360205260ff60405f2054161561021b57806040915f526001602052815f2054905f526002602052815f205482519182526020820152f35b346100cf5760203660031901126100cf57600435805f52600360205260ff60405f2054161561021b575f526001602052602060405f2054604051908152f35b346100cf576104a8366105aa565b5f549091906001600160a01b0316330361015857801561057557805f52600360205260ff60405f20541661056657811561014a57805f52600360205260405f20600160ff19825416179055805f5260016020528160405f2055805f5260026020524260405f2055807fa36ad57ce820f3e2207fa95e8c7e671ad53c84a0e8dc94378e26f3546126905d6020604051858152a27fbcd10d64fce9dcf9568572ed92e371df336d32649e8960a045c9548794a44b266020604051428152a3005b63136d457160e21b5f5260045ffd5b6307d7e52d60e51b5f5260045ffd5b346100cf5760203660031901126100cf576020906004355f526002825260405f20548152f35b60409060031901126100cf576004359060243590565b9181601f840112156100cf5782359167ffffffffffffffff83116100cf576020808501948460051b0101116100cf57565b91908110156106015760051b0190565b634e487b7160e01b5f52603260045260245ffdfea2646970667358221220c4dcb5a73d987da04248df97a914d38994da80531efb28b7a9f2e833227fc5aa64736f6c634300081e0033",
        "nonce": "0x272",
        "chainId": "0xaa36a7"
      },
      "additionalContracts": [],
      "isFixedGasLimit": false
    },
    {
      "hash": "0x738534cfcbf62c6381faa9ad90a97fd53b2204a6f72049b8a3d4af03bb558040",
      "transactionType": "CALL",
      "contractName": "MultiAssetOracle",
      "contractAddress": "0xce23e7298cf6300963bb722819ba54c700f8d2d1",
      "function": "registerAsset(bytes32,uint256)",
      "arguments": [
        "0x82af7da7090d6235dbc9f8cfccfb82eee2e9cb33d50be18eabf66c158261796a",
        "3790000000000000000"
      ],
      "transaction": {
        "from": "0xcc624ffa5df1f3f4b30aa8abd30186a86254f406",
        "to": "0xce23e7298cf6300963bb722819ba54c700f8d2d1",
        "gas": "0x1fb6b",
        "value": "0x0",
        "input": "0x18cf429082af7da7090d6235dbc9f8cfccfb82eee2e9cb33d50be18eabf66c158261796a0000000000000000000000000000000000000000000000003498c8eb72bb0000",
        "nonce": "0x273",
        "chainId": "0xaa36a7"
      },
      "additionalContracts": [],
      "isFixedGasLimit": false
    },
    {
      "hash": null,
      "transactionType": "CALL",
      "contractName": "MultiAssetOracle",
      "contractAddress": "0xce23e7298cf6300963bb722819ba54c700f8d2d1",
      "function": "registerAsset(bytes32,uint256)",
      "arguments": [
        "0x4907d2c1e61b87a99a260f8529c3c4f9e2374edae1f5ab1464a8e79d0f2c26de",
        "4202163309021113000"
      ],
      "transaction": {
        "from": "0xcc624ffa5df1f3f4b30aa8abd30186a86254f406",
        "to": "0xce23e7298cf6300963bb722819ba54c700f8d2d1",
        "gas": "0x1fb8d",
        "value": "0x0",
        "input": "0x18cf42904907d2c1e61b87a99a260f8529c3c4f9e2374edae1f5ab1464a8e79d0f2c26de0000000000000000000000000000000000000000000000003a511543fa622aa8",
        "nonce": "0x274",
        "chainId": "0xaa36a7"
      },
      "additionalContracts": [],
      "isFixedGasLimit": false
    },
    {
      "hash": null,
      "transactionType": "CALL",
      "contractName": "MultiAssetOracle",
      "contractAddress": "0xce23e7298cf6300963bb722819ba54c700f8d2d1",
      "function": "registerAsset(bytes32,uint256)",
      "arguments": [
        "0xd6e43f59d2c94773a52e2c20f09762901247d1aaf2090d0b99e85c55c9833626",
        "2946243092754190000"
      ],
      "transaction": {
        "from": "0xcc624ffa5df1f3f4b30aa8abd30186a86254f406",
        "to": "0xce23e7298cf6300963bb722819ba54c700f8d2d1",
        "gas": "0x1fb8d",
        "value": "0x0",
        "input": "0x18cf4290d6e43f59d2c94773a52e2c20f09762901247d1aaf2090d0b99e85c55c983362600000000000000000000000000000000000000000000000028e3287ba58fceb0",
        "nonce": "0x275",
        "chainId": "0xaa36a7"
      },
      "additionalContracts": [],
      "isFixedGasLimit": false
    },
    {
      "hash": null,
      "transactionType": "CREATE",
      "contractName": "MultiAssetOracleAdapter",
      "contractAddress": "0x41fa5925b709936d533e5e1a47dd8d4c64e7c77b",
      "function": null,
      "arguments": [
        "0xCe23E7298CF6300963bb722819Ba54C700f8D2d1",
        "0x82af7da7090d6235dbc9f8cfccfb82eee2e9cb33d50be18eabf66c158261796a",
        "86400"
      ],
      "transaction": {
        "from": "0xcc624ffa5df1f3f4b30aa8abd30186a86254f406",
        "gas": "0x61c9d",
        "value": "0x0",
        "input": "0x60e0346100f157601f61059f38819003918201601f19168301916001600160401b038311848410176100f5578084926060946040528339810103126100f15780516001600160a01b03811691908290036100f157604060208201519101519180156100e25781156100d35760805260a05260c052604051610495908161010a823960805181818160a6015281816101790152818161025d01526103f3015260a051818181607b0152818161014e015281816102dd01526103c8015260c0518181816101bb015281816102a301526103930152f35b631d6051dd60e21b5f5260045ffd5b63b80f357d60e01b5f5260045ffd5b5f80fd5b634e487b7160e01b5f52604160045260245ffdfe60806040526004361015610011575f80fd5b5f3560e01c80631a26f4471461030057806344de240a146102c6578063687043c51461028c5780637dc0d1d01461024857806398d5fdca1461012e5763a4a281681461005b575f80fd5b3461012a575f36600319011261012a57604080516343fa621160e01b81527f0000000000000000000000000000000000000000000000000000000000000000600482015290816024817f00000000000000000000000000000000000000000000000000000000000000006001600160a01b03165afa90811561011f576040915f915f916100f0575b5082519182526020820152f35b90506101129150823d8411610118575b61010a8183610324565b81019061035a565b5f6100e3565b503d610100565b6040513d5f823e3d90fd5b5f80fd5b3461012a575f36600319011261012a57604080516343fa621160e01b81527f0000000000000000000000000000000000000000000000000000000000000000600482015290816024817f00000000000000000000000000000000000000000000000000000000000000006001600160a01b03165afa801561011f575f915f91610227575b508115610218577f00000000000000000000000000000000000000000000000000000000000000008015159182610204575b50506101f557602090604051908152f35b636888079d60e11b5f5260045ffd5b61021091925042610370565b1182806101e4565b63226b469160e01b5f5260045ffd5b9050610242915060403d6040116101185761010a8183610324565b826101b2565b3461012a575f36600319011261012a576040517f00000000000000000000000000000000000000000000000000000000000000006001600160a01b03168152602090f35b3461012a575f36600319011261012a5760206040517f00000000000000000000000000000000000000000000000000000000000000008152f35b3461012a575f36600319011261012a5760206040517f00000000000000000000000000000000000000000000000000000000000000008152f35b3461012a575f36600319011261012a57602061031a610391565b6040519015158152f35b90601f8019910116810190811067ffffffffffffffff82111761034657604052565b634e487b7160e01b5f52604160045260245ffd5b919082604091031261012a576020825192015190565b9190820391821161037d57565b634e487b7160e01b5f52601160045260245ffd5b7f0000000000000000000000000000000000000000000000000000000000000000801561045a57604080516343fa621160e01b81527f0000000000000000000000000000000000000000000000000000000000000000600482015290816024817f00000000000000000000000000000000000000000000000000000000000000006001600160a01b03165afa801561011f57610435915f91610439575b5042610370565b1190565b610452915060403d6040116101185761010a8183610324565b90505f61042e565b505f9056fea2646970667358221220faa534add4672f0ff8afb535456583009b27096e46f3d7dca2c0e8237da9c89864736f6c634300081e0033000000000000000000000000ce23e7298cf6300963bb722819ba54c700f8d2d182af7da7090d6235dbc9f8cfccfb82eee2e9cb33d50be18eabf66c158261796a0000000000000000000000000000000000000000000000000000000000015180",
        "nonce": "0x276",
        "chainId": "0xaa36a7"
      },
      "additionalContracts": [],
      "isFixedGasLimit": false
    },
    {
      "hash": null,
      "transactionType": "CREATE",
      "contractName": "MultiAssetOracleAdapter",
      "contractAddress": "0xe6a1d2b4dc450c50ce00fc12fbbaf362c8b0edfd",
      "function": null,
      "arguments": [
        "0xCe23E7298CF6300963bb722819Ba54C700f8D2d1",
        "0x4907d2c1e61b87a99a260f8529c3c4f9e2374edae1f5ab1464a8e79d0f2c26de",
        "86400"
      ],
      "transaction": {
        "from": "0xcc624ffa5df1f3f4b30aa8abd30186a86254f406",
        "gas": "0x61c9d",
        "value": "0x0",
        "input": "0x60e0346100f157601f61059f38819003918201601f19168301916001600160401b038311848410176100f5578084926060946040528339810103126100f15780516001600160a01b03811691908290036100f157604060208201519101519180156100e25781156100d35760805260a05260c052604051610495908161010a823960805181818160a6015281816101790152818161025d01526103f3015260a051818181607b0152818161014e015281816102dd01526103c8015260c0518181816101bb015281816102a301526103930152f35b631d6051dd60e21b5f5260045ffd5b63b80f357d60e01b5f5260045ffd5b5f80fd5b634e487b7160e01b5f52604160045260245ffdfe60806040526004361015610011575f80fd5b5f3560e01c80631a26f4471461030057806344de240a146102c6578063687043c51461028c5780637dc0d1d01461024857806398d5fdca1461012e5763a4a281681461005b575f80fd5b3461012a575f36600319011261012a57604080516343fa621160e01b81527f0000000000000000000000000000000000000000000000000000000000000000600482015290816024817f00000000000000000000000000000000000000000000000000000000000000006001600160a01b03165afa90811561011f576040915f915f916100f0575b5082519182526020820152f35b90506101129150823d8411610118575b61010a8183610324565b81019061035a565b5f6100e3565b503d610100565b6040513d5f823e3d90fd5b5f80fd5b3461012a575f36600319011261012a57604080516343fa621160e01b81527f0000000000000000000000000000000000000000000000000000000000000000600482015290816024817f00000000000000000000000000000000000000000000000000000000000000006001600160a01b03165afa801561011f575f915f91610227575b508115610218577f00000000000000000000000000000000000000000000000000000000000000008015159182610204575b50506101f557602090604051908152f35b636888079d60e11b5f5260045ffd5b61021091925042610370565b1182806101e4565b63226b469160e01b5f5260045ffd5b9050610242915060403d6040116101185761010a8183610324565b826101b2565b3461012a575f36600319011261012a576040517f00000000000000000000000000000000000000000000000000000000000000006001600160a01b03168152602090f35b3461012a575f36600319011261012a5760206040517f00000000000000000000000000000000000000000000000000000000000000008152f35b3461012a575f36600319011261012a5760206040517f00000000000000000000000000000000000000000000000000000000000000008152f35b3461012a575f36600319011261012a57602061031a610391565b6040519015158152f35b90601f8019910116810190811067ffffffffffffffff82111761034657604052565b634e487b7160e01b5f52604160045260245ffd5b919082604091031261012a576020825192015190565b9190820391821161037d57565b634e487b7160e01b5f52601160045260245ffd5b7f0000000000000000000000000000000000000000000000000000000000000000801561045a57604080516343fa621160e01b81527f0000000000000000000000000000000000000000000000000000000000000000600482015290816024817f00000000000000000000000000000000000000000000000000000000000000006001600160a01b03165afa801561011f57610435915f91610439575b5042610370565b1190565b610452915060403d6040116101185761010a8183610324565b90505f61042e565b505f9056fea2646970667358221220faa534add4672f0ff8afb535456583009b27096e46f3d7dca2c0e8237da9c89864736f6c634300081e0033000000000000000000000000ce23e7298cf6300963bb722819ba54c700f8d2d14907d2c1e61b87a99a260f8529c3c4f9e2374edae1f5ab1464a8e79d0f2c26de0000000000000000000000000000000000000000000000000000000000015180",
        "nonce": "0x277",
        "chainId": "0xaa36a7"
      },
      "additionalContracts": [],
      "isFixedGasLimit": false
    },
    {
      "hash": null,
      "transactionType": "CREATE",
      "contractName": "MultiAssetOracleAdapter",
      "contractAddress": "0x57211b1a13d07ac0f57cd1741ac5ea6767fab8cc",
      "function": null,
      "arguments": [
        "0xCe23E7298CF6300963bb722819Ba54C700f8D2d1",
        "0xd6e43f59d2c94773a52e2c20f09762901247d1aaf2090d0b99e85c55c9833626",
        "86400"
      ],
      "transaction": {
        "from": "0xcc624ffa5df1f3f4b30aa8abd30186a86254f406",
        "gas": "0x61c9d",
        "value": "0x0",
        "input": "0x60e0346100f157601f61059f38819003918201601f19168301916001600160401b038311848410176100f5578084926060946040528339810103126100f15780516001600160a01b03811691908290036100f157604060208201519101519180156100e25781156100d35760805260a05260c052604051610495908161010a823960805181818160a6015281816101790152818161025d01526103f3015260a051818181607b0152818161014e015281816102dd01526103c8015260c0518181816101bb015281816102a301526103930152f35b631d6051dd60e21b5f5260045ffd5b63b80f357d60e01b5f5260045ffd5b5f80fd5b634e487b7160e01b5f52604160045260245ffdfe60806040526004361015610011575f80fd5b5f3560e01c80631a26f4471461030057806344de240a146102c6578063687043c51461028c5780637dc0d1d01461024857806398d5fdca1461012e5763a4a281681461005b575f80fd5b3461012a575f36600319011261012a57604080516343fa621160e01b81527f0000000000000000000000000000000000000000000000000000000000000000600482015290816024817f00000000000000000000000000000000000000000000000000000000000000006001600160a01b03165afa90811561011f576040915f915f916100f0575b5082519182526020820152f35b90506101129150823d8411610118575b61010a8183610324565b81019061035a565b5f6100e3565b503d610100565b6040513d5f823e3d90fd5b5f80fd5b3461012a575f36600319011261012a57604080516343fa621160e01b81527f0000000000000000000000000000000000000000000000000000000000000000600482015290816024817f00000000000000000000000000000000000000000000000000000000000000006001600160a01b03165afa801561011f575f915f91610227575b508115610218577f00000000000000000000000000000000000000000000000000000000000000008015159182610204575b50506101f557602090604051908152f35b636888079d60e11b5f5260045ffd5b61021091925042610370565b1182806101e4565b63226b469160e01b5f5260045ffd5b9050610242915060403d6040116101185761010a8183610324565b826101b2565b3461012a575f36600319011261012a576040517f00000000000000000000000000000000000000000000000000000000000000006001600160a01b03168152602090f35b3461012a575f36600319011261012a5760206040517f00000000000000000000000000000000000000000000000000000000000000008152f35b3461012a575f36600319011261012a5760206040517f00000000000000000000000000000000000000000000000000000000000000008152f35b3461012a575f36600319011261012a57602061031a610391565b6040519015158152f35b90601f8019910116810190811067ffffffffffffffff82111761034657604052565b634e487b7160e01b5f52604160045260245ffd5b919082604091031261012a576020825192015190565b9190820391821161037d57565b634e487b7160e01b5f52601160045260245ffd5b7f0000000000000000000000000000000000000000000000000000000000000000801561045a57604080516343fa621160e01b81527f0000000000000000000000000000000000000000000000000000000000000000600482015290816024817f00000000000000000000000000000000000000000000000000000000000000006001600160a01b03165afa801561011f57610435915f91610439575b5042610370565b1190565b610452915060403d6040116101185761010a8183610324565b90505f61042e565b505f9056fea2646970667358221220faa534add4672f0ff8afb535456583009b27096e46f3d7dca2c0e8237da9c89864736f6c634300081e0033000000000000000000000000ce23e7298cf6300963bb722819ba54c700f8d2d1d6e43f59d2c94773a52e2c20f09762901247d1aaf2090d0b99e85c55c98336260000000000000000000000000000000000000000000000000000000000015180",
        "nonce": "0x278",
        "chainId": "0xaa36a7"
      },
      "additionalContracts": [],
      "isFixedGasLimit": false
    },
    {
      "hash": null,
      "transactionType": "CALL",
      "contractName": null,
      "contractAddress": "0xf7210ccc245323258cc15e0ca094ebbe2dc2cd85",
      "function": "setOracle(address)",
      "arguments": [
        "0x41Fa5925b709936D533e5E1a47dd8d4C64E7C77B"
      ],
      "transaction": {
        "from": "0xcc624ffa5df1f3f4b30aa8abd30186a86254f406",
        "to": "0xf7210ccc245323258cc15e0ca094ebbe2dc2cd85",
        "gas": "0xc9a5",
        "value": "0x0",
        "input": "0x7adbf97300000000000000000000000041fa5925b709936d533e5e1a47dd8d4c64e7c77b",
        "nonce": "0x279",
        "chainId": "0xaa36a7"
      },
      "additionalContracts": [],
      "isFixedGasLimit": false
    },
    {
      "hash": null,
      "transactionType": "CREATE",
      "contractName": "ERC1967Proxy",
      "contractAddress": "0x19574b8c91717389231da5b0579564d6f81a79b0",
      "function": null,
      "arguments": [
        "0xd64175cE957F089bA7fb3EBdA5B17f268DE01190",
        "0xfaf3b31e00000000000000000000000018f863b1b0a3eca6b2235dc1957291e357f490b0000000000000000000000000e6a1d2b4dc450c50ce00fc12fbbaf362c8b0edfd0000000000000000000000000000000000000000000000003a511543fa622aa800000000000000000000000000000000000000000000152d02c7e14af680000000000000000000000000000000000000000000000000d3c21bcecceda1000000000000000000000000000000000000000000000000000000000000000000000a00000000000000000000000000000000000000000000000000000000000000640000000000000000000000000000000000000000000000000de0b6b3a76400000000000000000000000000000000000000000000000000000000000000000384"
      ],
      "transaction": {
        "from": "0xcc624ffa5df1f3f4b30aa8abd30186a86254f406",
        "gas": "0x8c196",
        "value": "0x0",
        "input": "0x608060405261029d8038038061001481610168565b92833981016040828203126101645781516001600160a01b03811692909190838303610164576020810151906001600160401b03821161016457019281601f8501121561016457835161006e610069826101a1565b610168565b9481865260208601936020838301011161016457815f926020809301865e86010152823b15610152577f360894a13ba1a3210667c828492db98dca3e2076cc3735a920a3ca505d382bbc80546001600160a01b031916821790557fbc7cd75a20ee27fd9adebab32041f755214dbc6bffa90cc0225b39da2e5c2d3b5f80a282511561013a575f8091610122945190845af43d15610132573d91610113610069846101a1565b9283523d5f602085013e6101bc565b505b6040516082908161021b8239f35b6060916101bc565b50505034156101245763b398979f60e01b5f5260045ffd5b634c9c8ce360e01b5f5260045260245ffd5b5f80fd5b6040519190601f01601f191682016001600160401b0381118382101761018d57604052565b634e487b7160e01b5f52604160045260245ffd5b6001600160401b03811161018d57601f01601f191660200190565b906101e057508051156101d157602081519101fd5b63d6bda27560e01b5f5260045ffd5b81511580610211575b6101f1575090565b639996b31560e01b5f9081526001600160a01b0391909116600452602490fd5b50803b156101e956fe60806040527f360894a13ba1a3210667c828492db98dca3e2076cc3735a920a3ca505d382bbc545f9081906001600160a01b0316368280378136915af43d5f803e156048573d5ff35b3d5ffdfea2646970667358221220f3abbe39e3dcf9a90ad5135ca9a820533e685fb38918ae40cdb47aadceaf067964736f6c634300081e0033000000000000000000000000d64175ce957f089ba7fb3ebda5b17f268de0119000000000000000000000000000000000000000000000000000000000000000400000000000000000000000000000000000000000000000000000000000000124faf3b31e00000000000000000000000018f863b1b0a3eca6b2235dc1957291e357f490b0000000000000000000000000e6a1d2b4dc450c50ce00fc12fbbaf362c8b0edfd0000000000000000000000000000000000000000000000003a511543fa622aa800000000000000000000000000000000000000000000152d02c7e14af680000000000000000000000000000000000000000000000000d3c21bcecceda1000000000000000000000000000000000000000000000000000000000000000000000a00000000000000000000000000000000000000000000000000000000000000640000000000000000000000000000000000000000000000000de0b6b3a7640000000000000000000000000000000000000000000000000000000000000000038400000000000000000000000000000000000000000000000000000000",
        "nonce": "0x27a",
        "chainId": "0xaa36a7"
      },
      "additionalContracts": [],
      "isFixedGasLimit": false
    },
    {
      "hash": null,
      "transactionType": "CREATE",
      "contractName": "ERC1967Proxy",
      "contractAddress": "0x536746a173bdead36af05751e6e451850a185fe1",
      "function": null,
      "arguments": [
        "0xd64175cE957F089bA7fb3EBdA5B17f268DE01190",
        "0xfaf3b31e00000000000000000000000018f863b1b0a3eca6b2235dc1957291e357f490b000000000000000000000000057211b1a13d07ac0f57cd1741ac5ea6767fab8cc00000000000000000000000000000000000000000000000028e3287ba58fceb000000000000000000000000000000000000000000000152d02c7e14af680000000000000000000000000000000000000000000000000d3c21bcecceda1000000000000000000000000000000000000000000000000000000000000000000000a00000000000000000000000000000000000000000000000000000000000000640000000000000000000000000000000000000000000000000de0b6b3a76400000000000000000000000000000000000000000000000000000000000000000384"
      ],
      "transaction": {
        "from": "0xcc624ffa5df1f3f4b30aa8abd30186a86254f406",
        "gas": "0x8c1a5",
        "value": "0x0",
        "input": "0x608060405261029d8038038061001481610168565b92833981016040828203126101645781516001600160a01b03811692909190838303610164576020810151906001600160401b03821161016457019281601f8501121561016457835161006e610069826101a1565b610168565b9481865260208601936020838301011161016457815f926020809301865e86010152823b15610152577f360894a13ba1a3210667c828492db98dca3e2076cc3735a920a3ca505d382bbc80546001600160a01b031916821790557fbc7cd75a20ee27fd9adebab32041f755214dbc6bffa90cc0225b39da2e5c2d3b5f80a282511561013a575f8091610122945190845af43d15610132573d91610113610069846101a1565b9283523d5f602085013e6101bc565b505b6040516082908161021b8239f35b6060916101bc565b50505034156101245763b398979f60e01b5f5260045ffd5b634c9c8ce360e01b5f5260045260245ffd5b5f80fd5b6040519190601f01601f191682016001600160401b0381118382101761018d57604052565b634e487b7160e01b5f52604160045260245ffd5b6001600160401b03811161018d57601f01601f191660200190565b906101e057508051156101d157602081519101fd5b63d6bda27560e01b5f5260045ffd5b81511580610211575b6101f1575090565b639996b31560e01b5f9081526001600160a01b0391909116600452602490fd5b50803b156101e956fe60806040527f360894a13ba1a3210667c828492db98dca3e2076cc3735a920a3ca505d382bbc545f9081906001600160a01b0316368280378136915af43d5f803e156048573d5ff35b3d5ffdfea2646970667358221220f3abbe39e3dcf9a90ad5135ca9a820533e685fb38918ae40cdb47aadceaf067964736f6c634300081e0033000000000000000000000000d64175ce957f089ba7fb3ebda5b17f268de0119000000000000000000000000000000000000000000000000000000000000000400000000000000000000000000000000000000000000000000000000000000124faf3b31e00000000000000000000000018f863b1b0a3eca6b2235dc1957291e357f490b000000000000000000000000057211b1a13d07ac0f57cd1741ac5ea6767fab8cc00000000000000000000000000000000000000000000000028e3287ba58fceb000000000000000000000000000000000000000000000152d02c7e14af680000000000000000000000000000000000000000000000000d3c21bcecceda1000000000000000000000000000000000000000000000000000000000000000000000a00000000000000000000000000000000000000000000000000000000000000640000000000000000000000000000000000000000000000000de0b6b3a7640000000000000000000000000000000000000000000000000000000000000000038400000000000000000000000000000000000000000000000000000000",
        "nonce": "0x27b",
        "chainId": "0xaa36a7"
      },
      "additionalContracts": [],
      "isFixedGasLimit": false
    },
    {
      "hash": null,
      "transactionType": "CALL",
      "contractName": null,
      "contractAddress": "0x01d2bdbed2cc4ec55b0ea92eda1aab47d57627fd",
      "function": "addMarket((bytes32,address,address,address,address,uint256,uint16,address,address))",
      "arguments": [
        "(0xf4aa47cc83b0d01511ca8025a996421dda6fbab1764466da4b0de6408d3db2e2, 0x19574B8C91717389231DA5b0579564d6F81a79B0, 0xE6A1d2B4DC450C50ce00fc12FBbAf362c8B0EdFD, 0xc696f32d4F8219CbA41bcD5C949b2551df13A7d6, 0x8C68933688f94BF115ad2F9C8c8e251AE5d4ade7, 1000000000000000000, 10, 0xa75839A6D2Bb2f47FE98dc81EC47eaD01D4A2c1F, 0x3C1085dF918a38A95F84945E6705CC857b664074)"
      ],
      "transaction": {
        "from": "0xcc624ffa5df1f3f4b30aa8abd30186a86254f406",
        "to": "0x01d2bdbed2cc4ec55b0ea92eda1aab47d57627fd",
        "gas": "0x3f5b0",
        "value": "0x0",
        "input": "0xb7eaeaa0f4aa47cc83b0d01511ca8025a996421dda6fbab1764466da4b0de6408d3db2e200000000000000000000000019574b8c91717389231da5b0579564d6f81a79b0000000000000000000000000e6a1d2b4dc450c50ce00fc12fbbaf362c8b0edfd000000000000000000000000c696f32d4f8219cba41bcd5c949b2551df13a7d60000000000000000000000008c68933688f94bf115ad2f9c8c8e251ae5d4ade70000000000000000000000000000000000000000000000000de0b6b3a7640000000000000000000000000000000000000000000000000000000000000000000a000000000000000000000000a75839a6d2bb2f47fe98dc81ec47ead01d4a2c1f0000000000000000000000003c1085df918a38a95f84945e6705cc857b664074",
        "nonce": "0x27c",
        "chainId": "0xaa36a7"
      },
      "additionalContracts": [],
      "isFixedGasLimit": false
    },
    {
      "hash": null,
      "transactionType": "CALL",
      "contractName": null,
      "contractAddress": "0x01d2bdbed2cc4ec55b0ea92eda1aab47d57627fd",
      "function": "addMarket((bytes32,address,address,address,address,uint256,uint16,address,address))",
      "arguments": [
        "(0x9d2d658888da74a10ac9263fc14dcac4a834dd53e8edf664b4cc3b2b4a23f214, 0x536746A173BDeaD36AF05751e6E451850a185fE1, 0x57211b1A13D07AC0f57cd1741AC5Ea6767fAb8cC, 0xc696f32d4F8219CbA41bcD5C949b2551df13A7d6, 0x8C68933688f94BF115ad2F9C8c8e251AE5d4ade7, 1000000000000000000, 10, 0xa75839A6D2Bb2f47FE98dc81EC47eaD01D4A2c1F, 0x3C1085dF918a38A95F84945E6705CC857b664074)"
      ],
      "transaction": {
        "from": "0xcc624ffa5df1f3f4b30aa8abd30186a86254f406",
        "to": "0x01d2bdbed2cc4ec55b0ea92eda1aab47d57627fd",
        "gas": "0x43163",
        "value": "0x0",
        "input": "0xb7eaeaa09d2d658888da74a10ac9263fc14dcac4a834dd53e8edf664b4cc3b2b4a23f214000000000000000000000000536746a173bdead36af05751e6e451850a185fe100000000000000000000000057211b1a13d07ac0f57cd1741ac5ea6767fab8cc000000000000000000000000c696f32d4f8219cba41bcd5c949b2551df13a7d60000000000000000000000008c68933688f94bf115ad2f9c8c8e251ae5d4ade70000000000000000000000000000000000000000000000000de0b6b3a7640000000000000000000000000000000000000000000000000000000000000000000a000000000000000000000000a75839a6d2bb2f47fe98dc81ec47ead01d4a2c1f0000000000000000000000003c1085df918a38a95f84945e6705cc857b664074",
        "nonce": "0x27d",
        "chainId": "0xaa36a7"
      },
      "additionalContracts": [],
      "isFixedGasLimit": false
    },
    {
      "hash": null,
      "transactionType": "CALL",
      "contractName": null,
      "contractAddress": "0x18f863b1b0a3eca6b2235dc1957291e357f490b0",
      "function": "setRiskParams(bytes32,uint256,uint256,uint256,uint256)",
      "arguments": [
        "0xf4aa47cc83b0d01511ca8025a996421dda6fbab1764466da4b0de6408d3db2e2",
        "1000",
        "500",
        "250",
        "1000000000000000000000"
      ],
      "transaction": {
        "from": "0xcc624ffa5df1f3f4b30aa8abd30186a86254f406",
        "to": "0x18f863b1b0a3eca6b2235dc1957291e357f490b0",
        "gas": "0x33020",
        "value": "0x0",
        "input": "0x468e0000f4aa47cc83b0d01511ca8025a996421dda6fbab1764466da4b0de6408d3db2e200000000000000000000000000000000000000000000000000000000000003e800000000000000000000000000000000000000000000000000000000000001f400000000000000000000000000000000000000000000000000000000000000fa00000000000000000000000000000000000000000000003635c9adc5dea00000",
        "nonce": "0x27e",
        "chainId": "0xaa36a7"
      },
      "additionalContracts": [],
      "isFixedGasLimit": false
    },
    {
      "hash": null,
      "transactionType": "CALL",
      "contractName": null,
      "contractAddress": "0x18f863b1b0a3eca6b2235dc1957291e357f490b0",
      "function": "setRiskParams(bytes32,uint256,uint256,uint256,uint256)",
      "arguments": [
        "0x9d2d658888da74a10ac9263fc14dcac4a834dd53e8edf664b4cc3b2b4a23f214",
        "1000",
        "500",
        "250",
        "1000000000000000000000"
      ],
      "transaction": {
        "from": "0xcc624ffa5df1f3f4b30aa8abd30186a86254f406",
        "to": "0x18f863b1b0a3eca6b2235dc1957291e357f490b0",
        "gas": "0x33020",
        "value": "0x0",
        "input": "0x468e00009d2d658888da74a10ac9263fc14dcac4a834dd53e8edf664b4cc3b2b4a23f21400000000000000000000000000000000000000000000000000000000000003e800000000000000000000000000000000000000000000000000000000000001f400000000000000000000000000000000000000000000000000000000000000fa00000000000000000000000000000000000000000000003635c9adc5dea00000",
        "nonce": "0x27f",
        "chainId": "0xaa36a7"
      },
      "additionalContracts": [],
      "isFixedGasLimit": false
    }
  ],
  "receipts": [],
  "libraries": [],
  "pending": [
    "0x3606c8c0367473b54e6fd7d125be3c3781976aa961adcde9f4872298f341e9d0",
    "0x738534cfcbf62c6381faa9ad90a97fd53b2204a6f72049b8a3d4af03bb558040"
  ],
  "returns": {},
  "timestamp": 1765921719382,
  "chain": 11155111,
  "commit": "642ec71"
}