{
  "transactions": [
    {
      "hash": "0x9054ea40a49ce87df3a283700c79cce19774545a5189242d6c3f38cec2fcba47",
      "transactionType": "CALL",
      "contractName": null,
      "contractAddress": "0x445fa8890562ec6220a60b3911c692dffad49acb",
      "function": "setRiskParams(bytes32,uint256,uint256,uint256,uint256)",
      "arguments": [
        "0x385badc5603eb47056a6bdcd6ac81a50df49d7a4e8a7451405e580bd12087a28",
        "1",
        "1",
        "1",
        "10000000000000000000000"
      ],
      "transaction": {
        "from": "0xcc624ffa5df1f3f4b30aa8abd30186a86254f406",
        "to": "0x445fa8890562ec6220a60b3911c692dffad49acb",
        "gas": "0x1990d",
        "value": "0x0",
        "input": "0x468e0000385badc5603eb47056a6bdcd6ac81a50df49d7a4e8a7451405e580bd12087a2800000000000000000000000000000000000000000000000000000000000000010000000000000000000000000000000000000000000000000000000000000001000000000000000000000000000000000000000000000000000000000000000100000000000000000000000000000000000000000000021e19e0c9bab2400000",
        "nonce": "0x150",
        "chainId": "0xaa36a7"
      },
      "additionalContracts": [],
      "isFixedGasLimit": false
    },
    {
      "hash": "0x0d14fd2a497bdb319305711aa07d4ababd537bf6703addbd9e179f6ecefc908f",
      "transactionType": "CALL",
      "contractName": null,
      "contractAddress": "0x445fa8890562ec6220a60b3911c692dffad49acb",
      "function": "setRiskParams(bytes32,uint256,uint256,uint256,uint256)",
      "arguments": [
        "0x352291f10e3a0d4a9f7beb3b623eac0b06f735c95170f956bc68b2f8b504a35d",
        "1",
        "1",
        "1",
        "10000000000000000000000"
      ],
      "transaction": {
        "from": "0xcc624ffa5df1f3f4b30aa8abd30186a86254f406",
        "to": "0x445fa8890562ec6220a60b3911c692dffad49acb",
        "gas": "0x1990d",
        "value": "0x0",
        "input": "0x468e0000352291f10e3a0d4a9f7beb3b623eac0b06f735c95170f956bc68b2f8b504a35d00000000000000000000000000000000000000000000000000000000000000010000000000000000000000000000000000000000000000000000000000000001000000000000000000000000000000000000000000000000000000000000000100000000000000000000000000000000000000000000021e19e0c9bab2400000",
        "nonce": "0x151",
        "chainId": "0xaa36a7"
      },
      "additionalContracts": [],
      "isFixedGasLimit": false
    }
  ],
  "receipts": [
    {
      "status": "0x1",
      "cumulativeGasUsed": "0x7d5f52",
      "logs": [
        {
          "address": "0x445fa8890562ec6220a60b3911c692dffad49acb",
          "topics": [
            "0xab89b7189222424f7474f0f10fedb16bd41c97e3baf664fb01b8b15a319ce08d",
            "0x385badc5603eb47056a6bdcd6ac81a50df49d7a4e8a7451405e580bd12087a28"
          ],
          "data": "0x00000000000000000000000000000000000000000000000000000000000000010000000000000000000000000000000000000000000000000000000000000001000000000000000000000000000000000000000000000000000000000000000100000000000000000000000000000000000000000000021e19e0c9bab2400000",
          "blockHash": "0x457d7aaa2d992ae22dc4d84d83f48369688134167ce26dc970e5e83afe4abf08",
          "blockNumber": "0x9376c2",
          "blockTimestamp": "0x691e2d78",
          "transactionHash": "0x9054ea40a49ce87df3a283700c79cce19774545a5189242d6c3f38cec2fcba47",
          "transactionIndex": "0x4c",
          "logIndex": "0x8f",
          "removed": false
        }
      ],
      "logsBloom": "0x000000000000000000000000000000000000010000000000000000000000000000000001000000000000008000000000000000000000000000000000000000000000000000000000000000000000000000000000000000000000000000000000000000000000000000000000000000000000000000000000000000000000000000000000000000000000000000000000000000000000000000000000000000000000000000000000000000000000000000000000a4000000000000000000400000000000000000000000000000000000000000000000000000000000000000000000000000000000100100000000000000000000000000000000000000000000",
      "type": "0x0",
      "transactionHash": "0x9054ea40a49ce87df3a283700c79cce19774545a5189242d6c3f38cec2fcba47",
      "transactionIndex": "0x4c",
      "blockHash": "0x457d7aaa2d992ae22dc4d84d83f48369688134167ce26dc970e5e83afe4abf08",
      "blockNumber": "0x9376c2",
      "gasUsed": "0x117b2",
      "effectiveGasPrice": "0xf4240",
      "from": "0xcc624ffa5df1f3f4b30aa8abd30186a86254f406",
      "to": "0x445fa8890562ec6220a60b3911c692dffad49acb",
      "contractAddress": null
    },
    {
      "status": "0x1",
      "cumulativeGasUsed": "0x7e7704",
      "logs": [
        {
          "address": "0x445fa8890562ec6220a60b3911c692dffad49acb",
          "topics": [
            "0xab89b7189222424f7474f0f10fedb16bd41c97e3baf664fb01b8b15a319ce08d",
            "0x352291f10e3a0d4a9f7beb3b623eac0b06f735c95170f956bc68b2f8b504a35d"
          ],
          "data": "0x00000000000000000000000000000000000000000000000000000000000000010000000000000000000000000000000000000000000000000000000000000001000000000000000000000000000000000000000000000000000000000000000100000000000000000000000000000000000000000000021e19e0c9bab2400000",
          "blockHash": "0x457d7aaa2d992ae22dc4d84d83f48369688134167ce26dc970e5e83afe4abf08",
          "blockNumber": "0x9376c2",
          "blockTimestamp": "0x691e2d78",
          "transactionHash": "0x0d14fd2a497bdb319305711aa07d4ababd537bf6703addbd9e179f6ecefc908f",
          "transactionIndex": "0x4d",
          "logIndex": "0x90",
          "removed": false
        }
      ],
      "logsBloom": "0x000000000080000000000000000000000000000000000000000000000000000000000001000000000000008000000000000000000000000000000000000000000000000000000000000000000000000000000000000000000000000000000000000000002000000000000000000000000000000000000000000000000000000000000000000000000000000000000000000000000000000000000000000000000000000000000000000000000000000000000000a4000000000000000000000000000000000000000000000000000000000000000000000000000000000000000000000000000000100000000000000000000000100000000000000000000000",
      "type": "0x0",
      "transactionHash": "0x0d14fd2a497bdb319305711aa07d4ababd537bf6703addbd9e179f6ecefc908f",
      "transactionIndex": "0x4d",
      "blockHash": "0x457d7aaa2d992ae22dc4d84d83f48369688134167ce26dc970e5e83afe4abf08",
      "blockNumber": "0x9376c2",
      "gasUsed": "0x117b2",
      "effectiveGasPrice": "0xf4240",
      "from": "0xcc624ffa5df1f3f4b30aa8abd30186a86254f406",
      "to": "0x445fa8890562ec6220a60b3911c692dffad49acb",
      "contractAddress": null
    }
  ],
  "libraries": [],
  "pending": [],
  "returns": {},
  "timestamp": 1763585400413,
  "chain": 11155111,
  "commit": "f013650"
}