{
  "transactions": [
    {
      "hash": "0x38b7926008a36b5c04144313700169b2c6818014d3528121852298e0740da179",
      "transactionType": "CALL",
      "contractName": null,
      "contractAddress": "0x445fa8890562ec6220a60b3911c692dffad49acb",
      "function": "setRiskParams(bytes32,uint256,uint256,uint256,uint256)",
      "arguments": [
        "0x385badc5603eb47056a6bdcd6ac81a50df49d7a4e8a7451405e580bd12087a28",
        "1000",
        "250",
        "200",
        "10000000000000000000000"
      ],
      "transaction": {
        "from": "0xcc624ffa5df1f3f4b30aa8abd30186a86254f406",
        "to": "0x445fa8890562ec6220a60b3911c692dffad49acb",
        "gas": "0x3028c",
        "value": "0x0",
        "input": "0x468e0000385badc5603eb47056a6bdcd6ac81a50df49d7a4e8a7451405e580bd12087a2800000000000000000000000000000000000000000000000000000000000003e800000000000000000000000000000000000000000000000000000000000000fa00000000000000000000000000000000000000000000000000000000000000c800000000000000000000000000000000000000000000021e19e0c9bab2400000",
        "nonce": "0x143",
        "chainId": "0xaa36a7"
      },
      "additionalContracts": [],
      "isFixedGasLimit": false
    },
    {
      "hash": "0xf18fa8b8a4d6ec7ab2614521549b1efc19f0e8e5375ae08816ab2969a2764a9b",
      "transactionType": "CALL",
      "contractName": null,
      "contractAddress": "0x445fa8890562ec6220a60b3911c692dffad49acb",
      "function": "setRiskParams(bytes32,uint256,uint256,uint256,uint256)",
      "arguments": [
        "0x352291f10e3a0d4a9f7beb3b623eac0b06f735c95170f956bc68b2f8b504a35d",
        "1000",
        "250",
        "200",
        "10000000000000000000000"
      ],
      "transaction": {
        "from": "0xcc624ffa5df1f3f4b30aa8abd30186a86254f406",
        "to": "0x445fa8890562ec6220a60b3911c692dffad49acb",
        "gas": "0x17348",
        "value": "0x0",
        "input": "0x468e0000352291f10e3a0d4a9f7beb3b623eac0b06f735c95170f956bc68b2f8b504a35d00000000000000000000000000000000000000000000000000000000000003e800000000000000000000000000000000000000000000000000000000000000fa00000000000000000000000000000000000000000000000000000000000000c800000000000000000000000000000000000000000000021e19e0c9bab2400000",
        "nonce": "0x144",
        "chainId": "0xaa36a7"
      },
      "additionalContracts": [],
      "isFixedGasLimit": false
    }
  ],
  "receipts": [
    {
      "status": "0x1",
      "cumulativeGasUsed": "0x1630be3",
      "logs": [
        {
          "address": "0x445fa8890562ec6220a60b3911c692dffad49acb",
          "topics": [
            "0xab89b7189222424f7474f0f10fedb16bd41c97e3baf664fb01b8b15a319ce08d",
            "0x385badc5603eb47056a6bdcd6ac81a50df49d7a4e8a7451405e580bd12087a28"
          ],
          "data": "0x00000000000000000000000000000000000000000000000000000000000003e800000000000000000000000000000000000000000000000000000000000000fa00000000000000000000000000000000000000000000000000000000000000c800000000000000000000000000000000000000000000021e19e0c9bab2400000",
          "blockHash": "0xce226ca110c75187be6b4d4785a51828204aaa0f94cf409ef1087e2f23c1b908",
          "blockNumber": "0x936c2f",
          "blockTimestamp": "0x691da4d4",
          "transactionHash": "0x38b7926008a36b5c04144313700169b2c6818014d3528121852298e0740da179",
          "transactionIndex": "0x52",
          "logIndex": "0x1fb",
          "removed": false
        }
      ],
      "logsBloom": "0x000000000000000000000000000000000000010000000000000000000000000000000001000000000000008000000000000000000000000000000000000000000000000000000000000000000000000000000000000000000000000000000000000000000000000000000000000000000000000000000000000000000000000000000000000000000000000000000000000000000000000000000000000000000000000000000000000000000000000000000000a4000000000000000000400000000000000000000000000000000000000000000000000000000000000000000000000000000000100100000000000000000000000000000000000000000000",
      "type": "0x2",
      "transactionHash": "0x38b7926008a36b5c04144313700169b2c6818014d3528121852298e0740da179",
      "transactionIndex": "0x52",
      "blockHash": "0xce226ca110c75187be6b4d4785a51828204aaa0f94cf409ef1087e2f23c1b908",
      "blockNumber": "0x936c2f",
      "gasUsed": "0x22dde",
      "effectiveGasPrice": "0xf423b",
      "from": "0xcc624ffa5df1f3f4b30aa8abd30186a86254f406",
      "to": "0x445fa8890562ec6220a60b3911c692dffad49acb",
      "contractAddress": null
    },
    {
      "status": "0x1",
      "cumulativeGasUsed": "0x16c7f8e",
      "logs": [
        {
          "address": "0x445fa8890562ec6220a60b3911c692dffad49acb",
          "topics": [
            "0xab89b7189222424f7474f0f10fedb16bd41c97e3baf664fb01b8b15a319ce08d",
            "0x352291f10e3a0d4a9f7beb3b623eac0b06f735c95170f956bc68b2f8b504a35d"
          ],
          "data": "0x00000000000000000000000000000000000000000000000000000000000003e800000000000000000000000000000000000000000000000000000000000000fa00000000000000000000000000000000000000000000000000000000000000c800000000000000000000000000000000000000000000021e19e0c9bab2400000",
          "blockHash": "0xce226ca110c75187be6b4d4785a51828204aaa0f94cf409ef1087e2f23c1b908",
          "blockNumber": "0x936c2f",
          "blockTimestamp": "0x691da4d4",
          "transactionHash": "0xf18fa8b8a4d6ec7ab2614521549b1efc19f0e8e5375ae08816ab2969a2764a9b",
          "transactionIndex": "0x5a",
          "logIndex": "0x20e",
          "removed": false
        }
      ],
      "logsBloom": "0x000000000080000000000000000000000000000000000000000000000000000000000001000000000000008000000000000000000000000000000000000000000000000000000000000000000000000000000000000000000000000000000000000000002000000000000000000000000000000000000000000000000000000000000000000000000000000000000000000000000000000000000000000000000000000000000000000000000000000000000000a4000000000000000000000000000000000000000000000000000000000000000000000000000000000000000000000000000000100000000000000000000000100000000000000000000000",
      "type": "0x2",
      "transactionHash": "0xf18fa8b8a4d6ec7ab2614521549b1efc19f0e8e5375ae08816ab2969a2764a9b",
      "transactionIndex": "0x5a",
      "blockHash": "0xce226ca110c75187be6b4d4785a51828204aaa0f94cf409ef1087e2f23c1b908",
      "blockNumber": "0x936c2f",
      "gasUsed": "0x10cce",
      "effectiveGasPrice": "0xf423b",
      "from": "0xcc624ffa5df1f3f4b30aa8abd30186a86254f406",
      "to": "0x445fa8890562ec6220a60b3911c692dffad49acb",
      "contractAddress": null
    }
  ],
  "libraries": [],
  "pending": [],
  "returns": {},
  "timestamp": 1763550421865,
  "chain": 11155111,
  "commit": "f013650"
}