{
  "transactions": [
    {
      "hash": "0xcff31381786a1f4b85ca61bea58a03cd31f6cae48dd24cdd33a73fd6aff0c3a5",
      "transactionType": "CALL",
      "contractName": null,
      "contractAddress": "0x71075745a2a63dff3bd4819e9639d0e412c14aa9",
      "function": "approve(address,uint256)",
      "arguments": [
        "0xfe2c9c2A1f0c700d88C78dCBc2E7bD1a8BB30DF0",
        "100000000000000"
      ],
      "transaction": {
        "from": "0xcc624ffa5df1f3f4b30aa8abd30186a86254f406",
        "to": "0x71075745a2a63dff3bd4819e9639d0e412c14aa9",
        "gas": "0x193d0",
        "value": "0x0",
        "input": "0x095ea7b3000000000000000000000000fe2c9c2a1f0c700d88c78dcbc2e7bd1a8bb30df000000000000000000000000000000000000000000000000000005af3107a4000",
        "nonce": "0x1a2",
        "chainId": "0xaa36a7"
      },
      "additionalContracts": [],
      "isFixedGasLimit": false
    },
    {
      "hash": "0x4a1aa6eaf925ab8324018d09b3607929aa2e112e05f4c529269e77e99fa82c35",
      "transactionType": "CALL",
      "contractName": null,
      "contractAddress": "0x0be85ed0948779a01effb6b017ae87a4e9eb7fd6",
      "function": "deposit(address,uint256)",
      "arguments": [
        "0x71075745A2A63dff3BD4819e9639D0E412c14AA9",
        "100000000000000"
      ],
      "transaction": {
        "from": "0xcc624ffa5df1f3f4b30aa8abd30186a86254f406",
        "to": "0x0be85ed0948779a01effb6b017ae87a4e9eb7fd6",
        "gas": "0x3dc42",
        "value": "0x0",
        "input": "0x47e7ef2400000000000000000000000071075745a2a63dff3bd4819e9639d0e412c14aa900000000000000000000000000000000000000000000000000005af3107a4000",
        "nonce": "0x1a3",
        "chainId": "0xaa36a7"
      },
      "additionalContracts": [],
      "isFixedGasLimit": false
    },
    {
      "hash": "0xc0b3f61e493385c5f46d3e133f6fc04ec05afcc2e525df7d7383f867471de90e",
      "transactionType": "CALL",
      "contractName": null,
      "contractAddress": "0x0be85ed0948779a01effb6b017ae87a4e9eb7fd6",
      "function": "openPosition(bytes32,bool,uint128,uint256)",
      "arguments": [
        "0x923fe13d72f8a442cb473c31c3f8b89b76ea47edc7f5071ccdae6717ad84fe6e",
        "true",
        "100000000000000",
        "0"
      ],
      "transaction": {
        "from": "0xcc624ffa5df1f3f4b30aa8abd30186a86254f406",
        "to": "0x0be85ed0948779a01effb6b017ae87a4e9eb7fd6",
        "gas": "0xf2e42",
        "value": "0x0",
        "input": "0xd5528f5d923fe13d72f8a442cb473c31c3f8b89b76ea47edc7f5071ccdae6717ad84fe6e000000000000000000000000000000000000000000000000000000000000000100000000000000000000000000000000000000000000000000005af3107a40000000000000000000000000000000000000000000000000000000000000000000",
        "nonce": "0x1a4",
        "chainId": "0xaa36a7"
      },
      "additionalContracts": [],
      "isFixedGasLimit": false
    }
  ],
  "receipts": [
    {
      "status": "0x1",
      "cumulativeGasUsed": "0x4883a1",
      "logs": [
        {
          "address": "0x71075745a2a63dff3bd4819e9639d0e412c14aa9",
          "topics": [
            "0x8c5be1e5ebec7d5bd14f71427d1e84f3dd0314c0f7b2291e5b200ac8c7c3b925",
            "0x000000000000000000000000cc624ffa5df1f3f4b30aa8abd30186a86254f406",
            "0x000000000000000000000000fe2c9c2a1f0c700d88c78dcbc2e7bd1a8bb30df0"
          ],
          "data": "0x00000000000000000000000000000000000000000000000000005af3107a4000",
          "blockHash": "0x4c021f5a21c3b462cc8b503b3f0d36de98378b026bcd4e6b772a3ea4c99ca920",
          "blockNumber": "0x939398",
          "blockTimestamp": "0x691f9fbc",
          "transactionHash": "0xcff31381786a1f4b85ca61bea58a03cd31f6cae48dd24cdd33a73fd6aff0c3a5",
          "transactionIndex": "0x2b",
          "logIndex": "0x37",
          "removed": false
        }
      ],
      "logsBloom": "0x00000000000000000000000000004000000000000000000000000000000000000000200000000000000000000000000000000000020000000000000000200000010000000000000000000000000000000000000000000000000000000000000000000000000000000000000000000000000000000000000000000000000000000000000000000000000000000000000000000000000000000000000000000000020000000000000000000000000000000000200000000000000000000000000000000000000002000000000000000000000000000000000000000000000000000010000000000000000008004000000000000000000000000000000000000004",
      "type": "0x2",
      "transactionHash": "0xcff31381786a1f4b85ca61bea58a03cd31f6cae48dd24cdd33a73fd6aff0c3a5",
      "transactionIndex": "0x2b",
      "blockHash": "0x4c021f5a21c3b462cc8b503b3f0d36de98378b026bcd4e6b772a3ea4c99ca920",
      "blockNumber": "0x939398",
      "gasUsed": "0xb379",
      "effectiveGasPrice": "0xfa90b",
      "from": "0xcc624ffa5df1f3f4b30aa8abd30186a86254f406",
      "to": "0x71075745a2a63dff3bd4819e9639d0e412c14aa9",
      "contractAddress": null
    },
    {
      "status": "0x1",
      "cumulativeGasUsed": "0x4a3adb",
      "logs": [
        {
          "address": "0x71075745a2a63dff3bd4819e9639d0e412c14aa9",
          "topics": [
            "0xddf252ad1be2c89b69c2b068fc378daa952ba7f163c4a11628f55a4df523b3ef",
            "0x000000000000000000000000cc624ffa5df1f3f4b30aa8abd30186a86254f406",
            "0x000000000000000000000000fe2c9c2a1f0c700d88c78dcbc2e7bd1a8bb30df0"
          ],
          "data": "0x00000000000000000000000000000000000000000000000000005af3107a4000",
          "blockHash": "0x4c021f5a21c3b462cc8b503b3f0d36de98378b026bcd4e6b772a3ea4c99ca920",
          "blockNumber": "0x939398",
          "blockTimestamp": "0x691f9fbc",
          "transactionHash": "0x4a1aa6eaf925ab8324018d09b3607929aa2e112e05f4c529269e77e99fa82c35",
          "transactionIndex": "0x2c",
          "logIndex": "0x38",
          "removed": false
        },
        {
          "address": "0xfe2c9c2a1f0c700d88c78dcbc2e7bd1a8bb30df0",
          "topics": [
            "0xaaefaf378e10f40556b2167ea878af7e62d89229b0bce3924630aabf1ee611ff",
            "0x0000000000000000000000000be85ed0948779a01effb6b017ae87a4e9eb7fd6",
            "0x00000000000000000000000071075745a2a63dff3bd4819e9639d0e412c14aa9",
            "0x000000000000000000000000cc624ffa5df1f3f4b30aa8abd30186a86254f406"
          ],
          "data": "0x00000000000000000000000000000000000000000000000000005af3107a400000000000000000000000000000000000000000000000000000005af3107a4000",
          "blockHash": "0x4c021f5a21c3b462cc8b503b3f0d36de98378b026bcd4e6b772a3ea4c99ca920",
          "blockNumber": "0x939398",
          "blockTimestamp": "0x691f9fbc",
          "transactionHash": "0x4a1aa6eaf925ab8324018d09b3607929aa2e112e05f4c529269e77e99fa82c35",
          "transactionIndex": "0x2c",
          "logIndex": "0x39",
          "removed": false
        },
        {
          "address": "0x0be85ed0948779a01effb6b017ae87a4e9eb7fd6",
          "topics": [
            "0xe4c032bd651f378a59936633a0f92b7497fd3577f65c95dc20a01acface334cc",
            "0x000000000000000000000000cc624ffa5df1f3f4b30aa8abd30186a86254f406",
            "0x00000000000000000000000071075745a2a63dff3bd4819e9639d0e412c14aa9"
          ],
          "data": "0x00000000000000000000000000000000000000000000000000005af3107a4000",
          "blockHash": "0x4c021f5a21c3b462cc8b503b3f0d36de98378b026bcd4e6b772a3ea4c99ca920",
          "blockNumber": "0x939398",
          "blockTimestamp": "0x691f9fbc",
          "transactionHash": "0x4a1aa6eaf925ab8324018d09b3607929aa2e112e05f4c529269e77e99fa82c35",
          "transactionIndex": "0x2c",
          "logIndex": "0x3a",
          "removed": false
        }
      ],
      "logsBloom": "0x00000000000000002001000000004000000000000000000000000000000000000000200004000000040010000000000000000000820000000000000000000000010000000000000000000008000000000000000000010000000000000000000000000000040000100000000000000000000000080000000000000012000000000000000000000000000000000000000000000080000000000000000000000000000000000200000000000000000008000000200400000000000000000000000000000002000002000000000000100000000000000000000000000000000000000000000000080040000008004000000000000000000000000000000000000004",
      "type": "0x2",
      "transactionHash": "0x4a1aa6eaf925ab8324018d09b3607929aa2e112e05f4c529269e77e99fa82c35",
      "transactionIndex": "0x2c",
      "blockHash": "0x4c021f5a21c3b462cc8b503b3f0d36de98378b026bcd4e6b772a3ea4c99ca920",
      "blockNumber": "0x939398",
      "gasUsed": "0x1b73a",
      "effectiveGasPrice": "0xfa90b",
      "from": "0xcc624ffa5df1f3f4b30aa8abd30186a86254f406",
      "to": "0x0be85ed0948779a01effb6b017ae87a4e9eb7fd6",
      "contractAddress": null
    },
    {
      "status": "0x1",
      "cumulativeGasUsed": "0x515faf",
      "logs": [
        {
          "address": "0x3f9b634b9f09e7f8e84348122c86d3c2324841b5",
          "topics": [
            "0xddfd84b577dccbe1bdf135a0357c6ff7762b3a135746d56893b8ccb2eda23e6b"
          ],
          "data": "0xfffffffffffffffffffffffffffffffffffffffffffffffffc86284ab6727acf00000000000000000000000000000000000000000000000000000000691f9fbcfffffffffffffffffffffffffffffffffffffffffffffffffec5b098e19691b2",
          "blockHash": "0x4c021f5a21c3b462cc8b503b3f0d36de98378b026bcd4e6b772a3ea4c99ca920",
          "blockNumber": "0x939398",
          "blockTimestamp": "0x691f9fbc",
          "transactionHash": "0xc0b3f61e493385c5f46d3e133f6fc04ec05afcc2e525df7d7383f867471de90e",
          "transactionIndex": "0x2d",
          "logIndex": "0x3b",
          "removed": false
        },
        {
          "address": "0x3f9b634b9f09e7f8e84348122c86d3c2324841b5",
          "topics": [
            "0xab7fa439d3be82c9e9dc9527df7b0ebc3b65c9911e3112698997d509abf02882",
            "0x0000000000000000000000000be85ed0948779a01effb6b017ae87a4e9eb7fd6"
          ],
          "data": "0x00000000000000000000000000000000000000000000000000005af3107a4000fffffffffffffffffffffffffffffffffffffffffffffffffffeaa98959b3ee4000000000000000000000000000000000000000000000000341817abffb755c0",
          "blockHash": "0x4c021f5a21c3b462cc8b503b3f0d36de98378b026bcd4e6b772a3ea4c99ca920",
          "blockNumber": "0x939398",
          "blockTimestamp": "0x691f9fbc",
          "transactionHash": "0xc0b3f61e493385c5f46d3e133f6fc04ec05afcc2e525df7d7383f867471de90e",
          "transactionIndex": "0x2d",
          "logIndex": "0x3c",
          "removed": false
        },
        {
          "address": "0xfe2c9c2a1f0c700d88c78dcbc2e7bd1a8bb30df0",
          "topics": [
            "0x7ad5f1177a9fb541e791136a77d0325da28a845a6e72721024d24cb9d07cabd5",
            "0x000000000000000000000000cc624ffa5df1f3f4b30aa8abd30186a86254f406",
            "0x000000000000000000000000c6b7ae853742992297a7526f5de7fdbf8164e687",
            "0x00000000000000000000000071075745a2a63dff3bd4819e9639d0e412c14aa9"
          ],
          "data": "0x00000000000000000000000000000000000000000000000000000057664019cb",
          "blockHash": "0x4c021f5a21c3b462cc8b503b3f0d36de98378b026bcd4e6b772a3ea4c99ca920",
          "blockNumber": "0x939398",
          "blockTimestamp": "0x691f9fbc",
          "transactionHash": "0xc0b3f61e493385c5f46d3e133f6fc04ec05afcc2e525df7d7383f867471de90e",
          "transactionIndex": "0x2d",
          "logIndex": "0x3d",
          "removed": false
        },
        {
          "address": "0x71075745a2a63dff3bd4819e9639d0e412c14aa9",
          "topics": [
            "0xddf252ad1be2c89b69c2b068fc378daa952ba7f163c4a11628f55a4df523b3ef",
            "0x000000000000000000000000fe2c9c2a1f0c700d88c78dcbc2e7bd1a8bb30df0",
            "0x000000000000000000000000c6b7ae853742992297a7526f5de7fdbf8164e687"
          ],
          "data": "0x00000000000000000000000000000000000000000000000000000057664019cb",
          "blockHash": "0x4c021f5a21c3b462cc8b503b3f0d36de98378b026bcd4e6b772a3ea4c99ca920",
          "blockNumber": "0x939398",
          "blockTimestamp": "0x691f9fbc",
          "transactionHash": "0xc0b3f61e493385c5f46d3e133f6fc04ec05afcc2e525df7d7383f867471de90e",
          "transactionIndex": "0x2d",
          "logIndex": "0x3e",
          "removed": false
        },
        {
          "address": "0xfe2c9c2a1f0c700d88c78dcbc2e7bd1a8bb30df0",
          "topics": [
            "0x7096ec52c72d33454045b00e3125b1795f94600354906408c4db6b6aba56252d",
            "0x0000000000000000000000000be85ed0948779a01effb6b017ae87a4e9eb7fd6",
            "0x000000000000000000000000c6b7ae853742992297a7526f5de7fdbf8164e687",
            "0x00000000000000000000000071075745a2a63dff3bd4819e9639d0e412c14aa9"
          ],
          "data": "0x00000000000000000000000000000000000000000000000000000057664019cb000000000000000000000000c6b7ae853742992297a7526f5de7fdbf8164e687",
          "blockHash": "0x4c021f5a21c3b462cc8b503b3f0d36de98378b026bcd4e6b772a3ea4c99ca920",
          "blockNumber": "0x939398",
          "blockTimestamp": "0x691f9fbc",
          "transactionHash": "0xc0b3f61e493385c5f46d3e133f6fc04ec05afcc2e525df7d7383f867471de90e",
          "transactionIndex": "0x2d",
          "logIndex": "0x3f",
          "removed": false
        },
        {
          "address": "0x71075745a2a63dff3bd4819e9639d0e412c14aa9",
          "topics": [
            "0xddf252ad1be2c89b69c2b068fc378daa952ba7f163c4a11628f55a4df523b3ef",
            "0x000000000000000000000000c6b7ae853742992297a7526f5de7fdbf8164e687",
            "0x0000000000000000000000007d8b6b91aac78f65ebc1d39d0a5c3608115afe42"
          ],
          "data": "0x0000000000000000000000000000000000000000000000000000002bb3200ce5",
          "blockHash": "0x4c021f5a21c3b462cc8b503b3f0d36de98378b026bcd4e6b772a3ea4c99ca920",
          "blockNumber": "0x939398",
          "blockTimestamp": "0x691f9fbc",
          "transactionHash": "0xc0b3f61e493385c5f46d3e133f6fc04ec05afcc2e525df7d7383f867471de90e",
          "transactionIndex": "0x2d",
          "logIndex": "0x40",
          "removed": false
        },
        {
          "address": "0x7d8b6b91aac78f65ebc1d39d0a5c3608115afe42",
          "topics": [
            "0xbb527541f6cc244ae00ab689f8c23d072a30a3b4176021df62ea1c2bac8aa226",
            "0x000000000000000000000000c6b7ae853742992297a7526f5de7fdbf8164e687"
          ],
          "data": "0x0000000000000000000000000000000000000000000000000000002bb3200ce5",
          "blockHash": "0x4c021f5a21c3b462cc8b503b3f0d36de98378b026bcd4e6b772a3ea4c99ca920",
          "blockNumber": "0x939398",
          "blockTimestamp": "0x691f9fbc",
          "transactionHash": "0xc0b3f61e493385c5f46d3e133f6fc04ec05afcc2e525df7d7383f867471de90e",
          "transactionIndex": "0x2d",
          "logIndex": "0x41",
          "removed": false
        }
      ],
      "logsBloom": "0x40000000080400000000000000004000000000000000000040010000000000000000200000000000000010000000020004000000820000001000000001000000010000000000000080000008000000000081008000000000000000000200000000000002000000500000000000000000000000080000000000000010080000000000000000000000000000080000000000000080000000000000000000000000000000000200001000000000000000000000200000000000000000000000000000000002020002000000000000100000000010020000000000000080000000000000000000080040000008004000000008000000000020000100004000000004",
      "type": "0x2",
      "transactionHash": "0xc0b3f61e493385c5f46d3e133f6fc04ec05afcc2e525df7d7383f867471de90e",
      "transactionIndex": "0x2d",
      "blockHash": "0x4c021f5a21c3b462cc8b503b3f0d36de98378b026bcd4e6b772a3ea4c99ca920",
      "blockNumber": "0x939398",
      "gasUsed": "0x724d4",
      "effectiveGasPrice": "0xfa90b",
      "from": "0xcc624ffa5df1f3f4b30aa8abd30186a86254f406",
      "to": "0x0be85ed0948779a01effb6b017ae87a4e9eb7fd6",
      "contractAddress": null
    }
  ],
  "libraries": [],
  "pending": [],
  "returns": {},
  "timestamp": 1763680189062,
  "chain": 11155111,
  "commit": "f013650"
}