{
  "transactions": [
    {
      "hash": "0x6fb473f61af1f2f0411bbf73399e99fdddc5b0b178dad0d21d9ba944ec58602a",
      "transactionType": "CALL",
      "contractName": null,
      "contractAddress": "0xb44d652354d12ac56b83112c6ece1fa2ccefc683",
      "function": "registerAsset(bytes32,uint256)",
      "arguments": [
        "0xc087ecb79f2df80d1dbf828d80ca18ff0b385e5806b3ec42da93e23eb0136348",
        "7150000000000000000"
      ],
      "transaction": {
        "from": "0xcc624ffa5df1f3f4b30aa8abd30186a86254f406",
        "to": "0xb44d652354d12ac56b83112c6ece1fa2ccefc683",
        "gas": "0x1fb6b",
        "value": "0x0",
        "input": "0x18cf4290c087ecb79f2df80d1dbf828d80ca18ff0b385e5806b3ec42da93e23eb01363480000000000000000000000000000000000000000000000006339e71e200b0000",
        "nonce": "0x29a",
        "chainId": "0xaa36a7"
      },
      "additionalContracts": [],
      "isFixedGasLimit": false
    },
    {
      "hash": "0xdee8db3071bbeb6115b61a27bf484c91fb8088dfa4995db6439f74391d698109",
      "transactionType": "CREATE",
      "contractName": "MultiAssetOracleAdapter",
      "contractAddress": "0xb2ba756bac4a1365ca81145e7cff3b456d24d584",
      "function": null,
      "arguments": [
        "0xB44d652354d12Ac56b83112c6ece1fa2ccEfc683",
        "0xc087ecb79f2df80d1dbf828d80ca18ff0b385e5806b3ec42da93e23eb0136348",
        "86400"
      ],
      "transaction": {
        "from": "0xcc624ffa5df1f3f4b30aa8abd30186a86254f406",
        "gas": "0x61cad",
        "value": "0x0",
        "input": "0x60e0346100f157601f61059f38819003918201601f19168301916001600160401b038311848410176100f5578084926060946040528339810103126100f15780516001600160a01b03811691908290036100f157604060208201519101519180156100e25781156100d35760805260a05260c052604051610495908161010a823960805181818160a6015281816101790152818161025d01526103f3015260a051818181607b0152818161014e015281816102dd01526103c8015260c0518181816101bb015281816102a301526103930152f35b631d6051dd60e21b5f5260045ffd5b63b80f357d60e01b5f5260045ffd5b5f80fd5b634e487b7160e01b5f52604160045260245ffdfe60806040526004361015610011575f80fd5b5f3560e01c80631a26f4471461030057806344de240a146102c6578063687043c51461028c5780637dc0d1d01461024857806398d5fdca1461012e5763a4a281681461005b575f80fd5b3461012a575f36600319011261012a57604080516343fa621160e01b81527f0000000000000000000000000000000000000000000000000000000000000000600482015290816024817f00000000000000000000000000000000000000000000000000000000000000006001600160a01b03165afa90811561011f576040915f915f916100f0575b5082519182526020820152f35b90506101129150823d8411610118575b61010a8183610324565b81019061035a565b5f6100e3565b503d610100565b6040513d5f823e3d90fd5b5f80fd5b3461012a575f36600319011261012a57604080516343fa621160e01b81527f0000000000000000000000000000000000000000000000000000000000000000600482015290816024817f00000000000000000000000000000000000000000000000000000000000000006001600160a01b03165afa801561011f575f915f91610227575b508115610218577f00000000000000000000000000000000000000000000000000000000000000008015159182610204575b50506101f557602090604051908152f35b636888079d60e11b5f5260045ffd5b61021091925042610370565b1182806101e4565b63226b469160e01b5f5260045ffd5b9050610242915060403d6040116101185761010a8183610324565b826101b2565b3461012a575f36600319011261012a576040517f00000000000000000000000000000000000000000000000000000000000000006001600160a01b03168152602090f35b3461012a575f36600319011261012a5760206040517f00000000000000000000000000000000000000000000000000000000000000008152f35b3461012a575f36600319011261012a5760206040517f00000000000000000000000000000000000000000000000000000000000000008152f35b3461012a575f36600319011261012a57602061031a610391565b6040519015158152f35b90601f8019910116810190811067ffffffffffffffff82111761034657604052565b634e487b7160e01b5f52604160045260245ffd5b919082604091031261012a576020825192015190565b9190820391821161037d57565b634e487b7160e01b5f52601160045260245ffd5b7f0000000000000000000000000000000000000000000000000000000000000000801561045a57604080516343fa621160e01b81527f0000000000000000000000000000000000000000000000000000000000000000600482015290816024817f00000000000000000000000000000000000000000000000000000000000000006001600160a01b03165afa801561011f57610435915f91610439575b5042610370565b1190565b610452915060403d6040116101185761010a8183610324565b90505f61042e565b505f9056fea2646970667358221220faa534add4672f0ff8afb535456583009b27096e46f3d7dca2c0e8237da9c89864736f6c634300081e0033000000000000000000000000b44d652354d12ac56b83112c6ece1fa2ccefc683c087ecb79f2df80d1dbf828d80ca18ff0b385e5806b3ec42da93e23eb01363480000000000000000000000000000000000000000000000000000000000015180",
        "nonce": "0x29b",
        "chainId": "0xaa36a7"
      },
      "additionalContracts": [],
      "isFixedGasLimit": false
    },
    {
      "hash": "0x0aa64ad4d6e54d45c2e962bbe6ce4c8992211f56c52a9cb971e6566548d635d7",
      "transactionType": "CREATE",
      "contractName": "ERC1967Proxy",
      "contractAddress": "0xae8f8a5be8efdaa18e7135f7e467a8965d7209e1",
      "function": null,
      "arguments": [
        "0xd64175cE957F089bA7fb3EBdA5B17f268DE01190",
        "0xfaf3b31e00000000000000000000000018f863b1b0a3eca6b2235dc1957291e357f490b0000000000000000000000000b2ba756bac4a1365ca81145e7cff3b456d24d5840000000000000000000000000000000000000000000000006339e71e200b000000000000000000000000000000000000000000000000152d02c7e14af680000000000000000000000000000000000000000000000000d3c21bcecceda1000000000000000000000000000000000000000000000000000000000000000000000a00000000000000000000000000000000000000000000000000000000000000640000000000000000000000000000000000000000000000000de0b6b3a76400000000000000000000000000000000000000000000000000000000000000000384"
      ],
      "transaction": {
        "from": "0xcc624ffa5df1f3f4b30aa8abd30186a86254f406",
        "gas": "0x8c186",
        "value": "0x0",
        "input": "0x608060405261029d8038038061001481610168565b92833981016040828203126101645781516001600160a01b03811692909190838303610164576020810151906001600160401b03821161016457019281601f8501121561016457835161006e610069826101a1565b610168565b9481865260208601936020838301011161016457815f926020809301865e86010152823b15610152577f360894a13ba1a3210667c828492db98dca3e2076cc3735a920a3ca505d382bbc80546001600160a01b031916821790557fbc7cd75a20ee27fd9adebab32041f755214dbc6bffa90cc0225b39da2e5c2d3b5f80a282511561013a575f8091610122945190845af43d15610132573d91610113610069846101a1565b9283523d5f602085013e6101bc565b505b6040516082908161021b8239f35b6060916101bc565b50505034156101245763b398979f60e01b5f5260045ffd5b634c9c8ce360e01b5f5260045260245ffd5b5f80fd5b6040519190601f01601f191682016001600160401b0381118382101761018d57604052565b634e487b7160e01b5f52604160045260245ffd5b6001600160401b03811161018d57601f01601f191660200190565b906101e057508051156101d157602081519101fd5b63d6bda27560e01b5f5260045ffd5b81511580610211575b6101f1575090565b639996b31560e01b5f9081526001600160a01b0391909116600452602490fd5b50803b156101e956fe60806040527f360894a13ba1a3210667c828492db98dca3e2076cc3735a920a3ca505d382bbc545f9081906001600160a01b0316368280378136915af43d5f803e156048573d5ff35b3d5ffdfea2646970667358221220f3abbe39e3dcf9a90ad5135ca9a820533e685fb38918ae40cdb47aadceaf067964736f6c634300081e0033000000000000000000000000d64175ce957f089ba7fb3ebda5b17f268de0119000000000000000000000000000000000000000000000000000000000000000400000000000000000000000000000000000000000000000000000000000000124faf3b31e00000000000000000000000018f863b1b0a3eca6b2235dc1957291e357f490b0000000000000000000000000b2ba756bac4a1365ca81145e7cff3b456d24d5840000000000000000000000000000000000000000000000006339e71e200b000000000000000000000000000000000000000000000000152d02c7e14af680000000000000000000000000000000000000000000000000d3c21bcecceda1000000000000000000000000000000000000000000000000000000000000000000000a00000000000000000000000000000000000000000000000000000000000000640000000000000000000000000000000000000000000000000de0b6b3a7640000000000000000000000000000000000000000000000000000000000000000038400000000000000000000000000000000000000000000000000000000",
        "nonce": "0x29c",
        "chainId": "0xaa36a7"
      },
      "additionalContracts": [],
      "isFixedGasLimit": false
    },
    {
      "hash": "0x1efc7b545d3676f9ed90039b41a60d56c7c602e03077df90415c89a865216ab0",
      "transactionType": "CALL",
      "contractName": null,
      "contractAddress": "0x01d2bdbed2cc4ec55b0ea92eda1aab47d57627fd",
      "function": "addMarket((bytes32,address,address,address,address,uint256,uint16,address,address))",
      "arguments": [
        "(0xb4be6bdaf765a9dc45759a99c834b32d12825dce59bc28052946c1f1267a999b, 0xaE8F8a5BE8eFdaa18e7135F7e467a8965d7209e1, 0xb2Ba756BaC4a1365cA81145E7CFF3b456d24D584, 0xc696f32d4F8219CbA41bcD5C949b2551df13A7d6, 0x8C68933688f94BF115ad2F9C8c8e251AE5d4ade7, 1000000000000000000, 10, 0xa75839A6D2Bb2f47FE98dc81EC47eaD01D4A2c1F, 0x3C1085dF918a38A95F84945E6705CC857b664074)"
      ],
      "transaction": {
        "from": "0xcc624ffa5df1f3f4b30aa8abd30186a86254f406",
        "to": "0x01d2bdbed2cc4ec55b0ea92eda1aab47d57627fd",
        "gas": "0x43163",
        "value": "0x0",
        "input": "0xb7eaeaa0b4be6bdaf765a9dc45759a99c834b32d12825dce59bc28052946c1f1267a999b000000000000000000000000ae8f8a5be8efdaa18e7135f7e467a8965d7209e1000000000000000000000000b2ba756bac4a1365ca81145e7cff3b456d24d584000000000000000000000000c696f32d4f8219cba41bcd5c949b2551df13a7d60000000000000000000000008c68933688f94bf115ad2f9c8c8e251ae5d4ade70000000000000000000000000000000000000000000000000de0b6b3a7640000000000000000000000000000000000000000000000000000000000000000000a000000000000000000000000a75839a6d2bb2f47fe98dc81ec47ead01d4a2c1f0000000000000000000000003c1085df918a38a95f84945e6705cc857b664074",
        "nonce": "0x29d",
        "chainId": "0xaa36a7"
      },
      "additionalContracts": [],
      "isFixedGasLimit": false
    },
    {
      "hash": "0x9c7b96f8dfb413b958cb0e13e4cb1ab8bbb2ea0e78e3858995e2a96675340046",
      "transactionType": "CALL",
      "contractName": null,
      "contractAddress": "0x18f863b1b0a3eca6b2235dc1957291e357f490b0",
      "function": "setRiskParams(bytes32,uint256,uint256,uint256,uint256)",
      "arguments": [
        "0xb4be6bdaf765a9dc45759a99c834b32d12825dce59bc28052946c1f1267a999b",
        "1000",
        "500",
        "250",
        "1000000000000000000000"
      ],
      "transaction": {
        "from": "0xcc624ffa5df1f3f4b30aa8abd30186a86254f406",
        "to": "0x18f863b1b0a3eca6b2235dc1957291e357f490b0",
        "gas": "0x33020",
        "value": "0x0",
        "input": "0x468e0000b4be6bdaf765a9dc45759a99c834b32d12825dce59bc28052946c1f1267a999b00000000000000000000000000000000000000000000000000000000000003e800000000000000000000000000000000000000000000000000000000000001f400000000000000000000000000000000000000000000000000000000000000fa00000000000000000000000000000000000000000000003635c9adc5dea00000",
        "nonce": "0x29e",
        "chainId": "0xaa36a7"
      },
      "additionalContracts": [],
      "isFixedGasLimit": false
    }
  ],
  "receipts": [
    {
      "status": "0x1",
      "cumulativeGasUsed": "0x15cd3ba",
      "logs": [
        {
          "address": "0xb44d652354d12ac56b83112c6ece1fa2ccefc683",
          "topics": [
            "0xa36ad57ce820f3e2207fa95e8c7e671ad53c84a0e8dc94378e26f3546126905d",
            "0xc087ecb79f2df80d1dbf828d80ca18ff0b385e5806b3ec42da93e23eb0136348"
          ],
          "data": "0x0000000000000000000000000000000000000000000000006339e71e200b0000",
          "blockHash": "0xa620aabdd7801511c4c4632a1857ebc191f636f38cc346e621919001e51bf9a4",
          "blockNumber": "0x972625",
          "blockTimestamp": "0x694beb8c",
          "transactionHash": "0x6fb473f61af1f2f0411bbf73399e99fdddc5b0b178dad0d21d9ba944ec58602a",
          "transactionIndex": "0x66",
          "logIndex": "0x27d",
          "removed": false
        },
        {
          "address": "0xb44d652354d12ac56b83112c6ece1fa2ccefc683",
          "topics": [
            "0xbcd10d64fce9dcf9568572ed92e371df336d32649e8960a045c9548794a44b26",
            "0xc087ecb79f2df80d1dbf828d80ca18ff0b385e5806b3ec42da93e23eb0136348",
            "0x0000000000000000000000000000000000000000000000006339e71e200b0000"
          ],
          "data": "0x00000000000000000000000000000000000000000000000000000000694beb8c",
          "blockHash": "0xa620aabdd7801511c4c4632a1857ebc191f636f38cc346e621919001e51bf9a4",
          "blockNumber": "0x972625",
          "blockTimestamp": "0x694beb8c",
          "transactionHash": "0x6fb473f61af1f2f0411bbf73399e99fdddc5b0b178dad0d21d9ba944ec58602a",
          "transactionIndex": "0x66",
          "logIndex": "0x27e",
          "removed": false
        }
      ],
      "logsBloom": "0x00004000000000000000000000000000000020000000000001000000000000000000000000000040000000000000000000000000000000000000000000000000000000000000000000000000000000000040000000000000000008000000000000000000080000000008040000000000000000000000000000000000000002000000000000000000000000000000000000000000000000000000010000000000000000000000000000000000000000000000000000000000208000000000000000000000000000000000000000000000000000800000000000000000000000000000000000000000000000040000000000000000000000000000000000000000",
      "type": "0x2",
      "transactionHash": "0x6fb473f61af1f2f0411bbf73399e99fdddc5b0b178dad0d21d9ba944ec58602a",
      "transactionIndex": "0x66",
      "blockHash": "0xa620aabdd7801511c4c4632a1857ebc191f636f38cc346e621919001e51bf9a4",
      "blockNumber": "0x972625",
      "gasUsed": "0x16f5e",
      "effectiveGasPrice": "0xb028f6",
      "from": "0xcc624ffa5df1f3f4b30aa8abd30186a86254f406",
      "to": "0xb44d652354d12ac56b83112c6ece1fa2ccefc683",
      "contractAddress": null
    },
    {
      "status": "0x1",
      "cumulativeGasUsed": "0x16d695d",
      "logs": [],
      "logsBloom": "0x00000000000000000000000000000000000000000000000000000000000000000000000000000000000000000000000000000000000000000000000000000000000000000000000000000000000000000000000000000000000000000000000000000000000000000000000000000000000000000000000000000000000000000000000000000000000000000000000000000000000000000000000000000000000000000000000000000000000000000000000000000000000000000000000000000000000000000000000000000000000000000000000000000000000000000000000000000000000000000000000000000000000000000000000000000000",
      "type": "0x2",
      "transactionHash": "0xdee8db3071bbeb6115b61a27bf484c91fb8088dfa4995db6439f74391d698109",
      "transactionIndex": "0x69",
      "blockHash": "0xa620aabdd7801511c4c4632a1857ebc191f636f38cc346e621919001e51bf9a4",
      "blockNumber": "0x972625",
      "gasUsed": "0x4b399",
      "effectiveGasPrice": "0xb028f6",
      "from": "0xcc624ffa5df1f3f4b30aa8abd30186a86254f406",
      "to": null,
      "contractAddress": "0xb2ba756bac4a1365ca81145e7cff3b456d24d584"
    },
    {
      "status": "0x1",
      "cumulativeGasUsed": "0x174259d",
      "logs": [
        {
          "address": "0xae8f8a5be8efdaa18e7135f7e467a8965d7209e1",
          "topics": [
            "0xbc7cd75a20ee27fd9adebab32041f755214dbc6bffa90cc0225b39da2e5c2d3b",
            "0x000000000000000000000000d64175ce957f089ba7fb3ebda5b17f268de01190"
          ],
          "data": "0x",
          "blockHash": "0xa620aabdd7801511c4c4632a1857ebc191f636f38cc346e621919001e51bf9a4",
          "blockNumber": "0x972625",
          "blockTimestamp": "0x694beb8c",
          "transactionHash": "0x0aa64ad4d6e54d45c2e962bbe6ce4c8992211f56c52a9cb971e6566548d635d7",
          "transactionIndex": "0x6a",
          "logIndex": "0x2a0",
          "removed": false
        },
        {
          "address": "0xae8f8a5be8efdaa18e7135f7e467a8965d7209e1",
          "topics": [
            "0x4a9c62e9f5b1bd7dfbc4dbff9e13a7178fe7a004d15c4e66c942416714f28edb",
            "0x000000000000000000000000cc624ffa5df1f3f4b30aa8abd30186a86254f406",
            "0x00000000000000000000000018f863b1b0a3eca6b2235dc1957291e357f490b0"
          ],
          "data": "0x0000000000000000000000000000000000000000000000006339e71e200b000000000000000000000000000000000000000000000000152d02c7e14af68000000000000000000000000000000000000000000000000097683a4857a4c8e00000",
          "blockHash": "0xa620aabdd7801511c4c4632a1857ebc191f636f38cc346e621919001e51bf9a4",
          "blockNumber": "0x972625",
          "blockTimestamp": "0x694beb8c",
          "transactionHash": "0x0aa64ad4d6e54d45c2e962bbe6ce4c8992211f56c52a9cb971e6566548d635d7",
          "transactionIndex": "0x6a",
          "logIndex": "0x2a1",
          "removed": false
        },
        {
          "address": "0xae8f8a5be8efdaa18e7135f7e467a8965d7209e1",
          "topics": [
            "0xa9f34f0da0b45009199e43ae578e6e4f5f1669be878f998b42c0b42be12d1751"
          ],
          "data": "0x000000000000000000000000000000000000000000000000000000000000000a00000000000000000000000000000000000000000000000000000000000000640000000000000000000000000000000000000000000000000de0b6b3a76400000000000000000000000000000000000000000000000000000000000000000384",
          "blockHash": "0xa620aabdd7801511c4c4632a1857ebc191f636f38cc346e621919001e51bf9a4",
          "blockNumber": "0x972625",
          "blockTimestamp": "0x694beb8c",
          "transactionHash": "0x0aa64ad4d6e54d45c2e962bbe6ce4c8992211f56c52a9cb971e6566548d635d7",
          "transactionIndex": "0x6a",
          "logIndex": "0x2a2",
          "removed": false
        },
        {
          "address": "0xae8f8a5be8efdaa18e7135f7e467a8965d7209e1",
          "topics": [
            "0xda910bf02851bb8d050a9d9cde446a782984df3623b69c1316ec0785457fb03a"
          ],
          "data": "0x00000000000000000000000000000000000000000000d3c21bcecceda1000000",
          "blockHash": "0xa620aabdd7801511c4c4632a1857ebc191f636f38cc346e621919001e51bf9a4",
          "blockNumber": "0x972625",
          "blockTimestamp": "0x694beb8c",
          "transactionHash": "0x0aa64ad4d6e54d45c2e962bbe6ce4c8992211f56c52a9cb971e6566548d635d7",
          "transactionIndex": "0x6a",
          "logIndex": "0x2a3",
          "removed": false
        },
        {
          "address": "0xae8f8a5be8efdaa18e7135f7e467a8965d7209e1",
          "topics": [
            "0xc7f505b2f371ae2175ee4913f4499e1f2633a7b5936321eed1cdaeb6115181d2"
          ],
          "data": "0x0000000000000000000000000000000000000000000000000000000000000001",
          "blockHash": "0xa620aabdd7801511c4c4632a1857ebc191f636f38cc346e621919001e51bf9a4",
          "blockNumber": "0x972625",
          "blockTimestamp": "0x694beb8c",
          "transactionHash": "0x0aa64ad4d6e54d45c2e962bbe6ce4c8992211f56c52a9cb971e6566548d635d7",
          "transactionIndex": "0x6a",
          "logIndex": "0x2a4",
          "removed": false
        }
      ],
      "logsBloom": "0x00000000000000000000000000000000400000000000000000800000000000000000200000000000400010000040000000004000020000000000004000000000000000000000000000000000000002000000000020000000000000000000000000000000000000000000002000000000000000000000000000000000000040000000000000000000000800000000000000000000000080000004000000000000000000000000400000000000000000000000200000000000000000000000000004000024000000000000100000000000000080000004000000000100000000000000001000000000000000000200000000000000000000000000000000000000",
      "type": "0x2",
      "transactionHash": "0x0aa64ad4d6e54d45c2e962bbe6ce4c8992211f56c52a9cb971e6566548d635d7",
      "transactionIndex": "0x6a",
      "blockHash": "0xa620aabdd7801511c4c4632a1857ebc191f636f38cc346e621919001e51bf9a4",
      "blockNumber": "0x972625",
      "gasUsed": "0x6bc40",
      "effectiveGasPrice": "0xb028f6",
      "from": "0xcc624ffa5df1f3f4b30aa8abd30186a86254f406",
      "to": null,
      "contractAddress": "0xae8f8a5be8efdaa18e7135f7e467a8965d7209e1"
    },
    {
      "status": "0x1",
      "cumulativeGasUsed": "0x177038e",
      "logs": [
        {
          "address": "0x01d2bdbed2cc4ec55b0ea92eda1aab47d57627fd",
          "topics": [
            "0x3ca3906a1acc14aee692a58b74ea4d433d5b33625fc29e6f1cfbac4df9ee7f1e",
            "0xb4be6bdaf765a9dc45759a99c834b32d12825dce59bc28052946c1f1267a999b",
            "0x000000000000000000000000ae8f8a5be8efdaa18e7135f7e467a8965d7209e1"
          ],
          "data": "0x",
          "blockHash": "0xa620aabdd7801511c4c4632a1857ebc191f636f38cc346e621919001e51bf9a4",
          "blockNumber": "0x972625",
          "blockTimestamp": "0x694beb8c",
          "transactionHash": "0x1efc7b545d3676f9ed90039b41a60d56c7c602e03077df90415c89a865216ab0",
          "transactionIndex": "0x6b",
          "logIndex": "0x2a5",
          "removed": false
        }
      ],
      "logsBloom": "0x00000400000000000000000000000000000000000000000000000000000000000000000000000000000000000000220000000000004000000000004000000000000000000000000000000000000000000000000000000004000400000001000000000000000000000000000000000000000000000000000000000000000000000000000000000000000000000000000000000000000000000000000000000000000000000000000000000000000000000000000000400000000000000000000000000000000000080000000000000000000000000000000000000001000000000000000080000000000000000000000000000000000000000000000000000000",
      "type": "0x2",
      "transactionHash": "0x1efc7b545d3676f9ed90039b41a60d56c7c602e03077df90415c89a865216ab0",
      "transactionIndex": "0x6b",
      "blockHash": "0xa620aabdd7801511c4c4632a1857ebc191f636f38cc346e621919001e51bf9a4",
      "blockNumber": "0x972625",
      "gasUsed": "0x2ddf1",
      "effectiveGasPrice": "0xb028f6",
      "from": "0xcc624ffa5df1f3f4b30aa8abd30186a86254f406",
      "to": "0x01d2bdbed2cc4ec55b0ea92eda1aab47d57627fd",
      "contractAddress": null
    },
    {
      "status": "0x1",
      "cumulativeGasUsed": "0x1793197",
      "logs": [
        {
          "address": "0x18f863b1b0a3eca6b2235dc1957291e357f490b0",
          "topics": [
            "0xab89b7189222424f7474f0f10fedb16bd41c97e3baf664fb01b8b15a319ce08d",
            "0xb4be6bdaf765a9dc45759a99c834b32d12825dce59bc28052946c1f1267a999b"
          ],
          "data": "0x00000000000000000000000000000000000000000000000000000000000003e800000000000000000000000000000000000000000000000000000000000001f400000000000000000000000000000000000000000000000000000000000000fa00000000000000000000000000000000000000000000003635c9adc5dea00000",
          "blockHash": "0xa620aabdd7801511c4c4632a1857ebc191f636f38cc346e621919001e51bf9a4",
          "blockNumber": "0x972625",
          "blockTimestamp": "0x694beb8c",
          "transactionHash": "0x9c7b96f8dfb413b958cb0e13e4cb1ab8bbb2ea0e78e3858995e2a96675340046",
          "transactionIndex": "0x6c",
          "logIndex": "0x2a6",
          "removed": false
        }
      ],
      "logsBloom": "0x00000000000000000000000000000000000000000000000000000000000000000000000000000000000000000000020000000000000000000000000000000000000000000000000000000000000000000000008000000000000000000000000000000000000000000000000000000000000000000000000000000000000000000000000000000000000000000000000000000000000000000000000000000000000000000000040000000000000000000000000084400000000000000000000000000000000100000000000000000000000000000000000000000000000000000000000080000000100000000000000000000000000000000000000000000000",
      "type": "0x2",
      "transactionHash": "0x9c7b96f8dfb413b958cb0e13e4cb1ab8bbb2ea0e78e3858995e2a96675340046",
      "transactionIndex": "0x6c",
      "blockHash": "0xa620aabdd7801511c4c4632a1857ebc191f636f38cc346e621919001e51bf9a4",
      "blockNumber": "0x972625",
      "gasUsed": "0x22e09",
      "effectiveGasPrice": "0xb028f6",
      "from": "0xcc624ffa5df1f3f4b30aa8abd30186a86254f406",
      "to": "0x18f863b1b0a3eca6b2235dc1957291e357f490b0",
      "contractAddress": null
    }
  ],
  "libraries": [],
  "pending": [],
  "returns": {},
  "timestamp": 1766583182240,
  "chain": 11155111,
  "commit": "642ec71"
}