{
  "transactions": [
    {
      "hash": "0xd24f1572f0f78843137aec9dabbfa533dd2d041c7ed2ee2a04e02fef8eedc185",
      "transactionType": "CREATE",
      "contractName": "UpdatableETHOracle",
      "contractAddress": "0xc6cb27fe8bc7f936acd718dfd1d6e0592f69a028",
      "function": null,
      "arguments": [
        "3790000000000000000"
      ],
      "transaction": {
        "from": "0xcc624ffa5df1f3f4b30aa8abd30186a86254f406",
        "gas": "0x3f0d7",
        "value": "0x0",
        "input": "0x60803460a057601f61027938819003918201601f19168301916001600160401b0383118484101760a45780849260209460405283398101031260a0575180156092575f80546001600160a01b0319163317905560018190556040514281527f945c1c4e99aa89f648fbfe3df471b916f719e16d960fcec0737d4d56bd69683890602090a26040516101c090816100b98239f35b62bfc92160e01b5f5260045ffd5b5f80fd5b634e487b7160e01b5f52604160045260245ffdfe6080806040526004361015610012575f80fd5b5f3560e01c9081638d6cc56d1461012f575080638da5cb5b1461010857806398d5fdca14610053578063f2fde38b146100745763ff186b2e14610053575f80fd5b34610070575f366003190112610070576020600154604051908152f35b5f80fd5b34610070576020366003190112610070576004356001600160a01b03811690819003610070575f546001600160a01b03811690338290036100f95782156100eb576001600160a01b03191682175f9081557f8be0079c531659141344cd1fd0a4f28419497f9722a3daafe3b4186f6b6457e09080a3005b62bfc92160e01b5f5260045ffd5b635fc483c560e01b5f5260045ffd5b34610070575f366003190112610070575f546040516001600160a01b039091168152602090f35b34610070576020366003190112610070575f5460043591906001600160a01b031633036100f95781156100eb5760207f945c1c4e99aa89f648fbfe3df471b916f719e16d960fcec0737d4d56bd6968389183600155428152a200fea264697066735822122030fd4d27c04ef67bbabfbe1be683bfff574e209cd17c421038777064f4c04abd64736f6c634300081e00330000000000000000000000000000000000000000000000003498c8eb72bb0000",
        "nonce": "0x1bf",
        "chainId": "0xaa36a7"
      },
      "additionalContracts": [],
      "isFixedGasLimit": false
    },
    {
      "hash": "0x378c45073875766e3151721e424d15e7f42380150cc2ccd4b6a1f300cd2222e3",
      "transactionType": "CALL",
      "contractName": null,
      "contractAddress": "0x3f9b634b9f09e7f8e84348122c86d3c2324841b5",
      "function": "setOracle(address)",
      "arguments": [
        "0xC6Cb27fE8Bc7F936acD718dfd1D6E0592F69A028"
      ],
      "transaction": {
        "from": "0xcc624ffa5df1f3f4b30aa8abd30186a86254f406",
        "to": "0x3f9b634b9f09e7f8e84348122c86d3c2324841b5",
        "gas": "0xc925",
        "value": "0x0",
        "input": "0x7adbf973000000000000000000000000c6cb27fe8bc7f936acd718dfd1d6e0592f69a028",
        "nonce": "0x1c0",
        "chainId": "0xaa36a7"
      },
      "additionalContracts": [],
      "isFixedGasLimit": false
    }
  ],
  "receipts": [
    {
      "status": "0x1",
      "cumulativeGasUsed": "0xcb7919",
      "logs": [
        {
          "address": "0xc6cb27fe8bc7f936acd718dfd1d6e0592f69a028",
          "topics": [
            "0x945c1c4e99aa89f648fbfe3df471b916f719e16d960fcec0737d4d56bd696838",
            "0x0000000000000000000000000000000000000000000000003498c8eb72bb0000"
          ],
          "data": "0x0000000000000000000000000000000000000000000000000000000069203ae4",
          "blockHash": "0x236d2fcb5f9832f83df1d9923dfaac903ed69c8a3b38d2cb207b1b6ac45de372",
          "blockNumber": "0x93a07d",
          "blockTimestamp": "0x69203ae4",
          "transactionHash": "0xd24f1572f0f78843137aec9dabbfa533dd2d041c7ed2ee2a04e02fef8eedc185",
          "transactionIndex": "0x53",
          "logIndex": "0xcc",
          "removed": false
        }
      ],
      "logsBloom": "0x00000000000000000200000000000000000000000000000000000000000000000000000000000000000000000000000000000000000000000000000000000002000000000000000000000000000000000100000000000000000000000008000000000000000000000000000000000000000000000000000000000000000000000000000000000000000000000000000040000000000000000000000000000000000000000000000000000000000000000000000002000000001000000000000000000000000000000000000000000000000000000000000020004000000000000000000000000000000000000000000000000000000000000000000000000000",
      "type": "0x2",
      "transactionHash": "0xd24f1572f0f78843137aec9dabbfa533dd2d041c7ed2ee2a04e02fef8eedc185",
      "transactionIndex": "0x53",
      "blockHash": "0x236d2fcb5f9832f83df1d9923dfaac903ed69c8a3b38d2cb207b1b6ac45de372",
      "blockNumber": "0x93a07d",
      "gasUsed": "0x30808",
      "effectiveGasPrice": "0xf424e",
      "from": "0xcc624ffa5df1f3f4b30aa8abd30186a86254f406",
      "to": null,
      "contractAddress": "0xc6cb27fe8bc7f936acd718dfd1d6e0592f69a028"
    },
    {
      "status": "0x1",
      "cumulativeGasUsed": "0xcc02a2",
      "logs": [
        {
          "address": "0x3f9b634b9f09e7f8e84348122c86d3c2324841b5",
          "topics": [
            "0x0e05ae75e8b926552cf6fcd744d19f422561e3ced1e426868730852702dbe418",
            "0x000000000000000000000000c6cb27fe8bc7f936acd718dfd1d6e0592f69a028"
          ],
          "data": "0x",
          "blockHash": "0x236d2fcb5f9832f83df1d9923dfaac903ed69c8a3b38d2cb207b1b6ac45de372",
          "blockNumber": "0x93a07d",
          "blockTimestamp": "0x69203ae4",
          "transactionHash": "0x378c45073875766e3151721e424d15e7f42380150cc2ccd4b6a1f300cd2222e3",
          "transactionIndex": "0x54",
          "logIndex": "0xcd",
          "removed": false
        }
      ],
      "logsBloom": "0x20000000000000000000000000000000000000000080000000000000000000000000000000000000000000000000000000000000000000000000000001000000000000000000040000000000000000000000010000000000000000000000000000000002000000000000000000000000000000000000000000001000000000000000000000000000000000000000000000000000000001000000000000000000000000000000000000000000000000000000000000000000000000000000000000000000000000000000000000000000000010000000000000000000000000000000000000000000000000000000000000000000000000000000000000000000",
      "type": "0x2",
      "transactionHash": "0x378c45073875766e3151721e424d15e7f42380150cc2ccd4b6a1f300cd2222e3",
      "transactionIndex": "0x54",
      "blockHash": "0x236d2fcb5f9832f83df1d9923dfaac903ed69c8a3b38d2cb207b1b6ac45de372",
      "blockNumber": "0x93a07d",
      "gasUsed": "0x8989",
      "effectiveGasPrice": "0xf424e",
      "from": "0xcc624ffa5df1f3f4b30aa8abd30186a86254f406",
      "to": "0x3f9b634b9f09e7f8e84348122c86d3c2324841b5",
      "contractAddress": null
    }
  ],
  "libraries": [],
  "pending": [],
  "returns": {},
  "timestamp": 1763719909642,
  "chain": 11155111,
  "commit": "f013650"
}