{
  "transactions": [
    {
      "hash": "0x4b95aec8357cd26e1c47fda95292b58af1b1abd52df700e9fc319f38cf681017",
      "transactionType": "CREATE",
      "contractName": "MockPriceFeed",
      "contractAddress": "0x700be93872eac1d97eebfa5ab0863a222caa6f41",
      "function": null,
      "arguments": [
        "100000000"
      ],
      "transaction": {
        "from": "0xcc624ffa5df1f3f4b30aa8abd30186a86254f406",
        "gas": "0x3af64",
        "value": "0x0",
        "input": "0x608034605d57601f61019f38819003918201601f19168301916001600160401b03831184841017606157808492602094604052833981010312605d5751600860ff195f5416175f556001554260025560405161012990816100768239f35b5f80fd5b634e487b7160e01b5f52604160045260245ffdfe60808060405260043610156011575f80fd5b5f3560e01c908163313ce5671460d957508063a035b1fe1460be578063b80777ea1460a3578063f7a308061460885763feaf968c14604d575f80fd5b346084575f36600319011260845760a060015460025460405191600183526020830152806040830152606082015260016080820152f35b5f80fd5b34608457602036600319011260845760043560015542600255005b346084575f3660031901126084576020600254604051908152f35b346084575f3660031901126084576020600154604051908152f35b346084575f36600319011260845760209060ff5f54168152f3fea26469706673582212200114e36660c463c2316bba71f1dfee5cdf4216185dfa3cd5810c8c56b3d3919664736f6c634300081e00330000000000000000000000000000000000000000000000000000000005f5e100",
        "nonce": "0x172",
        "chainId": "0xaa36a7"
      },
      "additionalContracts": [],
      "isFixedGasLimit": false
    },
    {
      "hash": "0x83b6afd569297f8aaddf0b019cdc3a8eb6779bf001951c23de5ba8351c7f4dda",
      "transactionType": "CALL",
      "contractName": null,
      "contractAddress": "0x7d1cc77cb9c0a30a9abb3d052a5542ab5e254c9c",
      "function": "setPriceFeed(string,address)",
      "arguments": [
        "USDC",
        "0x700Be93872eAC1D97eEBFa5ab0863a222cAa6f41"
      ],
      "transaction": {
        "from": "0xcc624ffa5df1f3f4b30aa8abd30186a86254f406",
        "to": "0x7d1cc77cb9c0a30a9abb3d052a5542ab5e254c9c",
        "gas": "0x10705",
        "value": "0x0",
        "input": "0xf3b3347e0000000000000000000000000000000000000000000000000000000000000040000000000000000000000000700be93872eac1d97eebfa5ab0863a222caa6f4100000000000000000000000000000000000000000000000000000000000000045553444300000000000000000000000000000000000000000000000000000000",
        "nonce": "0x173",
        "chainId": "0xaa36a7"
      },
      "additionalContracts": [],
      "isFixedGasLimit": false
    },
    {
      "hash": "0x23f1d93424aa5966bb6ca2a2cf26a6e6f679a08524149b082473abef150ff0c0",
      "transactionType": "CALL",
      "contractName": null,
      "contractAddress": "0x7d1cc77cb9c0a30a9abb3d052a5542ab5e254c9c",
      "function": "setBaseUnit(string,uint256)",
      "arguments": [
        "USDC",
        "1000000"
      ],
      "transaction": {
        "from": "0xcc624ffa5df1f3f4b30aa8abd30186a86254f406",
        "to": "0x7d1cc77cb9c0a30a9abb3d052a5542ab5e254c9c",
        "gas": "0x1047e",
        "value": "0x0",
        "input": "0xa4392ee1000000000000000000000000000000000000000000000000000000000000004000000000000000000000000000000000000000000000000000000000000f424000000000000000000000000000000000000000000000000000000000000000045553444300000000000000000000000000000000000000000000000000000000",
        "nonce": "0x174",
        "chainId": "0xaa36a7"
      },
      "additionalContracts": [],
      "isFixedGasLimit": false
    }
  ],
  "receipts": [
    {
      "status": "0x1",
      "cumulativeGasUsed": "0x18d4590",
      "logs": [],
      "logsBloom": "0x00000000000000000000000000000000000000000000000000000000000000000000000000000000000000000000000000000000000000000000000000000000000000000000000000000000000000000000000000000000000000000000000000000000000000000000000000000000000000000000000000000000000000000000000000000000000000000000000000000000000000000000000000000000000000000000000000000000000000000000000000000000000000000000000000000000000000000000000000000000000000000000000000000000000000000000000000000000000000000000000000000000000000000000000000000000",
      "type": "0x0",
      "transactionHash": "0x4b95aec8357cd26e1c47fda95292b58af1b1abd52df700e9fc319f38cf681017",
      "transactionIndex": "0xbf",
      "blockHash": "0x240ec76fcb63ee8967f568f8fca390191aa13e8f5a0ba7bb88ef59197f61450e",
      "blockNumber": "0x9387be",
      "gasUsed": "0x2d5b0",
      "effectiveGasPrice": "0xf4277",
      "from": "0xcc624ffa5df1f3f4b30aa8abd30186a86254f406",
      "to": null,
      "contractAddress": "0x700be93872eac1d97eebfa5ab0863a222caa6f41"
    },
    {
      "status": "0x1",
      "cumulativeGasUsed": "0x18e03fd",
      "logs": [
        {
          "address": "0x7d1cc77cb9c0a30a9abb3d052a5542ab5e254c9c",
          "topics": [
            "0xdf04234d4adad453c202a56aae343d791761210eb89d2d72fd2ff7102d8d3186",
            "0xd6aca1be9729c13d677335161321649cccae6a591554772516700f986f942eaa",
            "0x000000000000000000000000700be93872eac1d97eebfa5ab0863a222caa6f41"
          ],
          "data": "0x",
          "blockHash": "0x240ec76fcb63ee8967f568f8fca390191aa13e8f5a0ba7bb88ef59197f61450e",
          "blockNumber": "0x9387be",
          "blockTimestamp": "0x691f0854",
          "transactionHash": "0x83b6afd569297f8aaddf0b019cdc3a8eb6779bf001951c23de5ba8351c7f4dda",
          "transactionIndex": "0xc0",
          "logIndex": "0x243",
          "removed": false
        }
      ],
      "logsBloom": "0x00000000080000100000000000020000000000000000000000000000000000000000000800000000000000000000000000800000024000000000000000000000000000000000000000000000000000000000000000000000000000000000000000000000000000000000000000100000000000000000000000000000000000000000000000000000000000000000000000000000000000000000000000000000000000000000000000000000000000000000000000000000000000000000000000000000000000000000000000000000000000000000080000000000006000000000000000004000000000000000000000000000000000000000000000000000",
      "type": "0x0",
      "transactionHash": "0x83b6afd569297f8aaddf0b019cdc3a8eb6779bf001951c23de5ba8351c7f4dda",
      "transactionIndex": "0xc0",
      "blockHash": "0x240ec76fcb63ee8967f568f8fca390191aa13e8f5a0ba7bb88ef59197f61450e",
      "blockNumber": "0x9387be",
      "gasUsed": "0xbe6d",
      "effectiveGasPrice": "0xf4277",
      "from": "0xcc624ffa5df1f3f4b30aa8abd30186a86254f406",
      "to": "0x7d1cc77cb9c0a30a9abb3d052a5542ab5e254c9c",
      "contractAddress": null
    },
    {
      "status": "0x1",
      "cumulativeGasUsed": "0x18ec095",
      "logs": [
        {
          "address": "0x7d1cc77cb9c0a30a9abb3d052a5542ab5e254c9c",
          "topics": [
            "0x90dccf070016593cd7a02ecce2ee275a9ab06e57820cb23a63275a285a967fd1",
            "0xd6aca1be9729c13d677335161321649cccae6a591554772516700f986f942eaa"
          ],
          "data": "0x00000000000000000000000000000000000000000000000000000000000f4240",
          "blockHash": "0x240ec76fcb63ee8967f568f8fca390191aa13e8f5a0ba7bb88ef59197f61450e",
          "blockNumber": "0x9387be",
          "blockTimestamp": "0x691f0854",
          "transactionHash": "0x23f1d93424aa5966bb6ca2a2cf26a6e6f679a08524149b082473abef150ff0c0",
          "transactionIndex": "0xc1",
          "logIndex": "0x244",
          "removed": false
        }
      ],
      "logsBloom": "0x00000000080000100000000000020000000000000000000000000000000000000000000800000000000400000000000000000000020000000000000000000000000000000000000000000000000000000000000000000000000000000000040000000000000000000000000000000000000000000000000000000000000000000000000000000000000000000000000000000000000000000000000010000000000000000000000000000000000000000000000000000000000000000000000000000000000000000000000000000000000000000000080000000000000000000000000000000000000000000000000000000000000000000000000000000000",
      "type": "0x0",
      "transactionHash": "0x23f1d93424aa5966bb6ca2a2cf26a6e6f679a08524149b082473abef150ff0c0",
      "transactionIndex": "0xc1",
      "blockHash": "0x240ec76fcb63ee8967f568f8fca390191aa13e8f5a0ba7bb88ef59197f61450e",
      "blockNumber": "0x9387be",
      "gasUsed": "0xbc98",
      "effectiveGasPrice": "0xf4277",
      "from": "0xcc624ffa5df1f3f4b30aa8abd30186a86254f406",
      "to": "0x7d1cc77cb9c0a30a9abb3d052a5542ab5e254c9c",
      "contractAddress": null
    }
  ],
  "libraries": [],
  "pending": [],
  "returns": {},
  "timestamp": 1763641429959,
  "chain": 11155111,
  "commit": "f013650"
}