{
  "transactions": [
    {
      "hash": "0xa6e9b99b902d05979a8d7bcc15a92a58031de448dec359f3d730f5132d19b68c",
      "transactionType": "CALL",
      "contractName": null,
      "contractAddress": "0x0be85ed0948779a01effb6b017ae87a4e9eb7fd6",
      "function": "setRiskParams(bytes32,uint256,uint256,uint256,uint256)",
      "arguments": [
        "0x923fe13dd90eff0f2f8b82db89ef27daef5f899aca7fba59ebb0b01a6343bfb5",
        "1000",
        "500",
        "250",
        "1000000000000000000000"
      ],
      "transaction": {
        "from": "0xcc624ffa5df1f3f4b30aa8abd30186a86254f406",
        "to": "0x0be85ed0948779a01effb6b017ae87a4e9eb7fd6",
        "gas": "0x32fff",
        "value": "0x0",
        "input": "0x468e0000923fe13dd90eff0f2f8b82db89ef27daef5f899aca7fba59ebb0b01a6343bfb500000000000000000000000000000000000000000000000000000000000003e800000000000000000000000000000000000000000000000000000000000001f400000000000000000000000000000000000000000000000000000000000000fa00000000000000000000000000000000000000000000003635c9adc5dea00000",
        "nonce": "0x1b0",
        "chainId": "0xaa36a7"
      },
      "additionalContracts": [],
      "isFixedGasLimit": false
    }
  ],
  "receipts": [
    {
      "status": "0x1",
      "cumulativeGasUsed": "0x7b7ac6",
      "logs": [
        {
          "address": "0x0be85ed0948779a01effb6b017ae87a4e9eb7fd6",
          "topics": [
            "0xab89b7189222424f7474f0f10fedb16bd41c97e3baf664fb01b8b15a319ce08d",
            "0x923fe13dd90eff0f2f8b82db89ef27daef5f899aca7fba59ebb0b01a6343bfb5"
          ],
          "data": "0x00000000000000000000000000000000000000000000000000000000000003e800000000000000000000000000000000000000000000000000000000000001f400000000000000000000000000000000000000000000000000000000000000fa00000000000000000000000000000000000000000000003635c9adc5dea00000",
          "blockHash": "0x20259bae22c6dde9a810661702b8043998449b33ed3db15ecdcf08b5b5d50706",
          "blockNumber": "0x939532",
          "blockTimestamp": "0x691fb300",
          "transactionHash": "0xa6e9b99b902d05979a8d7bcc15a92a58031de448dec359f3d730f5132d19b68c",
          "transactionIndex": "0x30",
          "logIndex": "0x9b",
          "removed": false
        }
      ],
      "logsBloom": "0x00000000000000000000000000000000000000000000000000000000000000000000000004000000000080000000000000000000000000000000000000000000000000000000000000000000000000000000000000000000000000000000000000000000040000000000000000000000000000000000000000000000000000000000000000000000000000000000000000000000000000000000080000000000000000000000000000000000000008000000000084000000000000000000000000000000000000000000000000000000000010000000000000000000000000000000000000000000100000000000000000000000000000000000000000000000",
      "type": "0x2",
      "transactionHash": "0xa6e9b99b902d05979a8d7bcc15a92a58031de448dec359f3d730f5132d19b68c",
      "transactionIndex": "0x30",
      "blockHash": "0x20259bae22c6dde9a810661702b8043998449b33ed3db15ecdcf08b5b5d50706",
      "blockNumber": "0x939532",
      "gasUsed": "0x22df3",
      "effectiveGasPrice": "0xf4248",
      "from": "0xcc624ffa5df1f3f4b30aa8abd30186a86254f406",
      "to": "0x0be85ed0948779a01effb6b017ae87a4e9eb7fd6",
      "contractAddress": null
    }
  ],
  "libraries": [],
  "pending": [],
  "returns": {},
  "timestamp": 1763685122202,
  "chain": 11155111,
  "commit": "f013650"
}