{
  "transactions": [
    {
      "hash": "0x732cdcf355e88b15eb5e5d4aaf0febad65b6f3d175d77b9941c54140be69cfa3",
      "transactionType": "CREATE",
      "contractName": "SimpleETHOracle",
      "contractAddress": "0x5d57118594a8b1c3aa3dba1f0a18a6744f531096",
      "function": null,
      "arguments": null,
      "transaction": {
        "from": "0xcc624ffa5df1f3f4b30aa8abd30186a86254f406",
        "gas": "0x1c66f",
        "value": "0x0",
        "input": "0x6080806040523460135760a7908160188239f35b5f80fdfe60808060405260043610156011575f80fd5b5f3560e01c9081638832bc2914605357506398d5fdca14602f575f80fd5b34604f575f366003190112604f576020604051673498c8eb72bb00008152f35b5f80fd5b34604f575f366003190112604f5780673498c8eb72bb000060209252f3fea2646970667358221220687dbdd91c653a7815cb89f374b17b74d5b68eac2eeb83ee4e75a41a7ff2f94264736f6c634300081e0033",
        "nonce": "0x1b5",
        "chainId": "0xaa36a7"
      },
      "additionalContracts": [],
      "isFixedGasLimit": false
    },
    {
      "hash": "0x59e174b83e33908724ed00bdb7069a4eef059e7b3d624cff6ff60d045271622d",
      "transactionType": "CALL",
      "contractName": null,
      "contractAddress": "0x3f9b634b9f09e7f8e84348122c86d3c2324841b5",
      "function": "setOracle(address)",
      "arguments": [
        "0x5d57118594a8b1C3Aa3dbA1f0A18a6744f531096"
      ],
      "transaction": {
        "from": "0xcc624ffa5df1f3f4b30aa8abd30186a86254f406",
        "to": "0x3f9b634b9f09e7f8e84348122c86d3c2324841b5",
        "gas": "0xc925",
        "value": "0x0",
        "input": "0x7adbf9730000000000000000000000005d57118594a8b1c3aa3dba1f0a18a6744f531096",
        "nonce": "0x1b6",
        "chainId": "0xaa36a7"
      },
      "additionalContracts": [],
      "isFixedGasLimit": false
    }
  ],
  "receipts": [
    {
      "status": "0x1",
      "cumulativeGasUsed": "0x8810de",
      "logs": [],
      "logsBloom": "0x00000000000000000000000000000000000000000000000000000000000000000000000000000000000000000000000000000000000000000000000000000000000000000000000000000000000000000000000000000000000000000000000000000000000000000000000000000000000000000000000000000000000000000000000000000000000000000000000000000000000000000000000000000000000000000000000000000000000000000000000000000000000000000000000000000000000000000000000000000000000000000000000000000000000000000000000000000000000000000000000000000000000000000000000000000000",
      "type": "0x2",
      "transactionHash": "0x732cdcf355e88b15eb5e5d4aaf0febad65b6f3d175d77b9941c54140be69cfa3",
      "transactionIndex": "0x31",
      "blockHash": "0x1bb6e476c36ee42e0a4ed73afd162c3ae8a0430656e7ba23e44590721568e52d",
      "blockNumber": "0x9395d4",
      "gasUsed": "0x15d91",
      "effectiveGasPrice": "0x109c3a",
      "from": "0xcc624ffa5df1f3f4b30aa8abd30186a86254f406",
      "to": null,
      "contractAddress": "0x5d57118594a8b1c3aa3dba1f0a18a6744f531096"
    },
    {
      "status": "0x1",
      "cumulativeGasUsed": "0x9553ab",
      "logs": [
        {
          "address": "0x3f9b634b9f09e7f8e84348122c86d3c2324841b5",
          "topics": [
            "0x0e05ae75e8b926552cf6fcd744d19f422561e3ced1e426868730852702dbe418",
            "0x0000000000000000000000005d57118594a8b1c3aa3dba1f0a18a6744f531096"
          ],
          "data": "0x",
          "blockHash": "0x1bb6e476c36ee42e0a4ed73afd162c3ae8a0430656e7ba23e44590721568e52d",
          "blockNumber": "0x9395d4",
          "blockTimestamp": "0x691fbabc",
          "transactionHash": "0x59e174b83e33908724ed00bdb7069a4eef059e7b3d624cff6ff60d045271622d",
          "transactionIndex": "0x41",
          "logIndex": "0xcd",
          "removed": false
        }
      ],
      "logsBloom": "0x00000000000000000000000000000000000000000080000000000000000000000000000000000000000000000000000020000000000000000000000001000000000000000000040000000000000000000000010000000000000100000000000000000002000000000000000000000000000000000000000000000000000000000000000000000000000000000000000000000000000000000000000000000000000000800000000000000000000000000000000000000000000000000000000000000000000000000000000000000000000010000000000000000000000000000000000000000000000000000000000000000000000000000000000000000000",
      "type": "0x2",
      "transactionHash": "0x59e174b83e33908724ed00bdb7069a4eef059e7b3d624cff6ff60d045271622d",
      "transactionIndex": "0x41",
      "blockHash": "0x1bb6e476c36ee42e0a4ed73afd162c3ae8a0430656e7ba23e44590721568e52d",
      "blockNumber": "0x9395d4",
      "gasUsed": "0x8989",
      "effectiveGasPrice": "0x109c3a",
      "from": "0xcc624ffa5df1f3f4b30aa8abd30186a86254f406",
      "to": "0x3f9b634b9f09e7f8e84348122c86d3c2324841b5",
      "contractAddress": null
    }
  ],
  "libraries": [],
  "pending": [],
  "returns": {},
  "timestamp": 1763687101493,
  "chain": 11155111,
  "commit": "f013650"
}