{
  "transactions": [
    {
      "hash": "0x3e0ce2fcfb84d290134e5ed9f668fdb7a66fca269c4d921494d17e0e077d2ca7",
      "transactionType": "CALL",
      "contractName": null,
      "contractAddress": "0xfe2c9c2a1f0c700d88c78dcbc2e7bd1a8bb30df0",
      "function": "setCollateralParams(address,(address,uint256,uint16,uint16,uint256,uint256,bool,bool,bool,string))",
      "arguments": [
        "0x37D5154731eE25C83E06E1abC312075AB4B4D8fF",
        "(0x37D5154731eE25C83E06E1abC312075AB4B4D8fF, 1000000, 0, 200, 0, 0, true, false, false, USDC)"
      ],
      "transaction": {
        "from": "0xcc624ffa5df1f3f4b30aa8abd30186a86254f406",
        "to": "0xfe2c9c2a1f0c700d88c78dcbc2e7bd1a8bb30df0",
        "gas": "0x1703a",
        "value": "0x0",
        "input": "0xf4aad44500000000000000000000000037d5154731ee25c83e06e1abc312075ab4b4d8ff000000000000000000000000000000000000000000000000000000000000004000000000000000000000000037d5154731ee25c83e06e1abc312075ab4b4d8ff00000000000000000000000000000000000000000000000000000000000f4240000000000000000000000000000000000000000000000000000000000000000000000000000000000000000000000000000000000000000000000000000000c800000000000000000000000000000000000000000000000000000000000000000000000000000000000000000000000000000000000000000000000000000000000000000000000000000000000000000000000000000000000000000000000100000000000000000000000000000000000000000000000000000000000000000000000000000000000000000000000000000000000000000000000000000000000000000000000000000000000000000000000000000000000000000000014000000000000000000000000000000000000000000000000000000000000000045553444300000000000000000000000000000000000000000000000000000000",
        "nonce": "0x21b",
        "chainId": "0xaa36a7"
      },
      "additionalContracts": [],
      "isFixedGasLimit": false
    },
    {
      "hash": "0x883c1ed0a83b5a5258a248e1836ffa8323b59807bdc52715ee51ff7d5065f055",
      "transactionType": "CALL",
      "contractName": null,
      "contractAddress": "0xfe2c9c2a1f0c700d88c78dcbc2e7bd1a8bb30df0",
      "function": "setCollateralParams(address,(address,uint256,uint16,uint16,uint256,uint256,bool,bool,bool,string))",
      "arguments": [
        "0x71075745A2A63dff3BD4819e9639D0E412c14AA9",
        "(0x71075745A2A63dff3BD4819e9639D0E412c14AA9, 1000000, 0, 500, 0, 0, true, false, false, USDC)"
      ],
      "transaction": {
        "from": "0xcc624ffa5df1f3f4b30aa8abd30186a86254f406",
        "to": "0xfe2c9c2a1f0c700d88c78dcbc2e7bd1a8bb30df0",
        "gas": "0x1704b",
        "value": "0x0",
        "input": "0xf4aad44500000000000000000000000071075745a2a63dff3bd4819e9639d0e412c14aa9000000000000000000000000000000000000000000000000000000000000004000000000000000000000000071075745a2a63dff3bd4819e9639d0e412c14aa900000000000000000000000000000000000000000000000000000000000f4240000000000000000000000000000000000000000000000000000000000000000000000000000000000000000000000000000000000000000000000000000001f400000000000000000000000000000000000000000000000000000000000000000000000000000000000000000000000000000000000000000000000000000000000000000000000000000000000000000000000000000000000000000000000100000000000000000000000000000000000000000000000000000000000000000000000000000000000000000000000000000000000000000000000000000000000000000000000000000000000000000000000000000000000000000000014000000000000000000000000000000000000000000000000000000000000000045553444300000000000000000000000000000000000000000000000000000000",
        "nonce": "0x21c",
        "chainId": "0xaa36a7"
      },
      "additionalContracts": [],
      "isFixedGasLimit": false
    }
  ],
  "receipts": [
    {
      "status": "0x1",
      "cumulativeGasUsed": "0x56cc68",
      "logs": [
        {
          "address": "0xfe2c9c2a1f0c700d88c78dcbc2e7bd1a8bb30df0",
          "topics": [
            "0x9101e49cfe6155787039fd2259da30ad237328bea3f567d6f7d05b4274b9e417",
            "0x00000000000000000000000037d5154731ee25c83e06e1abc312075ab4b4d8ff"
          ],
          "data": "0x000000000000000000000000000000000000000000000000000000000000000000000000000000000000000000000000000000000000000000000000000000c800000000000000000000000000000000000000000000000000000000000000000000000000000000000000000000000000000000000000000000000000000000000000000000000000000000000000000000000000000000000000000000000100000000000000000000000000000000000000000000000000000000000000000000000000000000000000000000000000000000000000000000000000000000000000000000000000000000000000000000000000000000000000000000010000000000000000000000000000000000000000000000000000000000000000045553444300000000000000000000000000000000000000000000000000000000",
          "blockHash": "0xad65145fb1efeb869dbf23fc12a18f4cd318e5383a6c76454d168c6082020224",
          "blockNumber": "0x944f87",
          "blockTimestamp": "0x6928a7b4",
          "transactionHash": "0x3e0ce2fcfb84d290134e5ed9f668fdb7a66fca269c4d921494d17e0e077d2ca7",
          "transactionIndex": "0x36",
          "logIndex": "0x54",
          "removed": false
        }
      ],
      "logsBloom": "0x00000000000000000000000000000000000000000000000000000000000000000000000000000000000000000000000000000000000080000000000000000000000000000000000000000000000000000000000000000000000000000000000100000000000400000000000000000000000000080000000000000000000000000000000000000000000000000001080000000080000000000000000000000000000000000200000000000000000000000000008000000000000000000000000000000000000000000000000000000000000000000000000000000000000000000000000000000000000000000000000000000000000000000000000000000000",
      "type": "0x2",
      "transactionHash": "0x3e0ce2fcfb84d290134e5ed9f668fdb7a66fca269c4d921494d17e0e077d2ca7",
      "transactionIndex": "0x36",
      "blockHash": "0xad65145fb1efeb869dbf23fc12a18f4cd318e5383a6c76454d168c6082020224",
      "blockNumber": "0x944f87",
      "gasUsed": "0x10a98",
      "effectiveGasPrice": "0xf424a",
      "from": "0xcc624ffa5df1f3f4b30aa8abd30186a86254f406",
      "to": "0xfe2c9c2a1f0c700d88c78dcbc2e7bd1a8bb30df0",
      "contractAddress": null
    },
    {
      "status": "0x1",
      "cumulativeGasUsed": "0x582914",
      "logs": [
        {
          "address": "0xfe2c9c2a1f0c700d88c78dcbc2e7bd1a8bb30df0",
          "topics": [
            "0x9101e49cfe6155787039fd2259da30ad237328bea3f567d6f7d05b4274b9e417",
            "0x00000000000000000000000071075745a2a63dff3bd4819e9639d0e412c14aa9"
          ],
          "data": "0x000000000000000000000000000000000000000000000000000000000000000000000000000000000000000000000000000000000000000000000000000001f400000000000000000000000000000000000000000000000000000000000000000000000000000000000000000000000000000000000000000000000000000000000000000000000000000000000000000000000000000000000000000000000100000000000000000000000000000000000000000000000000000000000000000000000000000000000000000000000000000000000000000000000000000000000000000000000000000000000000000000000000000000000000000000010000000000000000000000000000000000000000000000000000000000000000045553444300000000000000000000000000000000000000000000000000000000",
          "blockHash": "0xad65145fb1efeb869dbf23fc12a18f4cd318e5383a6c76454d168c6082020224",
          "blockNumber": "0x944f87",
          "blockTimestamp": "0x6928a7b4",
          "transactionHash": "0x883c1ed0a83b5a5258a248e1836ffa8323b59807bdc52715ee51ff7d5065f055",
          "transactionIndex": "0x38",
          "logIndex": "0x55",
          "removed": false
        }
      ],
      "logsBloom": "0x00000000000000000000000000000000000000000000000000000000000000000000000000000000000010000000000000000000800080000000000000000000000000000000000000000000000000000000000000000000000000000000000100000000000400100000000000000000000000080000000000000000000000000000000000000000000000000000000000000080000000000000000000000000000000000200000000000000000000000000000000000000000000000000000000000000000000000000000000000000000000000000000000000000000000000000000000000000000000000000000000000000000000000000000000000000",
      "type": "0x2",
      "transactionHash": "0x883c1ed0a83b5a5258a248e1836ffa8323b59807bdc52715ee51ff7d5065f055",
      "transactionIndex": "0x38",
      "blockHash": "0xad65145fb1efeb869dbf23fc12a18f4cd318e5383a6c76454d168c6082020224",
      "blockNumber": "0x944f87",
      "gasUsed": "0x10aa4",
      "effectiveGasPrice": "0xf424a",
      "from": "0xcc624ffa5df1f3f4b30aa8abd30186a86254f406",
      "to": "0xfe2c9c2a1f0c700d88c78dcbc2e7bd1a8bb30df0",
      "contractAddress": null
    }
  ],
  "libraries": [],
  "pending": [],
  "returns": {},
  "timestamp": 1764272053566,
  "chain": 11155111,
  "commit": "2145300"
}