{
  "transactions": [
    {
      "hash": "0xbe3bb7baefc8baf804ee7988bcf4c92fd990813c3f2194bdf58911549ca3818e",
      "transactionType": "CALL",
      "contractName": null,
      "contractAddress": "0xa75839a6d2bb2f47fe98dc81ec47ead01d4a2c1f",
      "function": "setClearinghouse(address)",
      "arguments": [
        "0x18F863b1b0A3Eca6B2235dc1957291E357f490B0"
      ],
      "transaction": {
        "from": "0xcc624ffa5df1f3f4b30aa8abd30186a86254f406",
        "to": "0xa75839a6d2bb2f47fe98dc81ec47ead01d4a2c1f",
        "gas": "0xa246",
        "value": "0x0",
        "input": "0x37d4b65900000000000000000000000018f863b1b0a3eca6b2235dc1957291e357f490b0",
        "nonce": "0x230",
        "chainId": "0xaa36a7"
      },
      "additionalContracts": [],
      "isFixedGasLimit": false
    }
  ],
  "receipts": [
    {
      "status": "0x1",
      "cumulativeGasUsed": "0x9ed5c0",
      "logs": [
        {
          "address": "0xa75839a6d2bb2f47fe98dc81ec47ead01d4a2c1f",
          "topics": [
            "0x0ff2c850d6c5bbe4a9190d1ac70e84a2d44e11374b401e9f27c1c56a93dc5101",
            "0x00000000000000000000000018f863b1b0a3eca6b2235dc1957291e357f490b0"
          ],
          "data": "0x",
          "blockHash": "0x83cf99589cdd358d6ceb88cefb3950b6850039750afa196f574db83fa44ea5e5",
          "blockNumber": "0x94529c",
          "blockTimestamp": "0x6928d1f0",
          "transactionHash": "0xbe3bb7baefc8baf804ee7988bcf4c92fd990813c3f2194bdf58911549ca3818e",
          "transactionIndex": "0x43",
          "logIndex": "0xa3",
          "removed": false
        }
      ],
      "logsBloom": "0x00000000000008000000000000000000000000000000000000000000000000000000000000000000000000000000000000000000000000000000000000000000000000000000000000000000000000200000000000000000000000000000000000000010000000000000000000000000000000000000000000000000000000000000000000000000000000000000000000000000000000000004000000000000004000000000000000000000000000000000000000000000000000000000000000000000000000000010000000000000000080200000000000000100000000000000000000000000000000000000000000000000000000000000000000000000",
      "type": "0x2",
      "transactionHash": "0xbe3bb7baefc8baf804ee7988bcf4c92fd990813c3f2194bdf58911549ca3818e",
      "transactionIndex": "0x43",
      "blockHash": "0x83cf99589cdd358d6ceb88cefb3950b6850039750afa196f574db83fa44ea5e5",
      "blockNumber": "0x94529c",
      "gasUsed": "0x757d",
      "effectiveGasPrice": "0xf4247",
      "from": "0xcc624ffa5df1f3f4b30aa8abd30186a86254f406",
      "to": "0xa75839a6d2bb2f47fe98dc81ec47ead01d4a2c1f",
      "contractAddress": null
    }
  ],
  "libraries": [],
  "pending": [],
  "returns": {},
  "timestamp": 1764282865369,
  "chain": 11155111,
  "commit": "2145300"
}