{
  "transactions": [
    {
      "hash": "0x72664cd4872bf216c3332a7817ce5a3bcab9a538cb05f9f365f04b648bf7fd24",
      "transactionType": "CALL",
      "contractName": null,
      "contractAddress": "0x0be85ed0948779a01effb6b017ae87a4e9eb7fd6",
      "function": "setVault(address)",
      "arguments": [
        "0xfe2c9c2A1f0c700d88C78dCBc2E7bD1a8BB30DF0"
      ],
      "transaction": {
        "from": "0xcc624ffa5df1f3f4b30aa8abd30186a86254f406",
        "to": "0x0be85ed0948779a01effb6b017ae87a4e9eb7fd6",
        "gas": "0xcc37",
        "value": "0x0",
        "input": "0x6817031b000000000000000000000000fe2c9c2a1f0c700d88c78dcbc2e7bd1a8bb30df0",
        "nonce": "0x226",
        "chainId": "0xaa36a7"
      },
      "additionalContracts": [],
      "isFixedGasLimit": false
    }
  ],
  "receipts": [
    {
      "status": "0x1",
      "cumulativeGasUsed": "0x89218e",
      "logs": [
        {
          "address": "0x0be85ed0948779a01effb6b017ae87a4e9eb7fd6",
          "topics": [
            "0x483bdedaaf23706a9800ac1af0d852b34927780d79f9d6ba60a80c7cad75ea39",
            "0x00000000000000000000000086a10164eb8f55ea6765185afcbf5e073b249dd2",
            "0x000000000000000000000000fe2c9c2a1f0c700d88c78dcbc2e7bd1a8bb30df0"
          ],
          "data": "0x",
          "blockHash": "0xb0214e7e2dcbcda947bcafcc104536e11e441665401465f9de90405330ef3a76",
          "blockNumber": "0x94501f",
          "blockTimestamp": "0x6928afe8",
          "transactionHash": "0x72664cd4872bf216c3332a7817ce5a3bcab9a538cb05f9f365f04b648bf7fd24",
          "transactionIndex": "0x38",
          "logIndex": "0x2f",
          "removed": false
        }
      ],
      "logsBloom": "0x00000000000000000000000000004000000000000000000000000000000000000000000004000000000000000000000200000000000000000000000000000000010000000000000000000000000000000000000000000000000000000000000000000000040000000000000000000000000000000000000000000200000000000000000000000000000000000000000000000000200000000000000000400000000000000000020000000000000008000000000000000000000000000000000000000000000002000000000000000000000000000000000000000000000000000000000000000000000000000000000000000000000000200000000000000000",
      "type": "0x2",
      "transactionHash": "0x72664cd4872bf216c3332a7817ce5a3bcab9a538cb05f9f365f04b648bf7fd24",
      "transactionIndex": "0x38",
      "blockHash": "0xb0214e7e2dcbcda947bcafcc104536e11e441665401465f9de90405330ef3a76",
      "blockNumber": "0x94501f",
      "gasUsed": "0x8ba3",
      "effectiveGasPrice": "0x10c8e5",
      "from": "0xcc624ffa5df1f3f4b30aa8abd30186a86254f406",
      "to": "0x0be85ed0948779a01effb6b017ae87a4e9eb7fd6",
      "contractAddress": null
    }
  ],
  "libraries": [],
  "pending": [],
  "returns": {},
  "timestamp": 1764274153165,
  "chain": 11155111,
  "commit": "2145300"
}