{
  "transactions": [
    {
      "hash": "0xd1be37e55ce5a1a81abbcdba0d1c8e5a33c3aecf4823d187cfd8111463e1b228",
      "transactionType": "CALL",
      "contractName": null,
      "contractAddress": "0xb44d652354d12ac56b83112c6ece1fa2ccefc683",
      "function": "registerAsset(bytes32,uint256)",
      "arguments": [
        "0x4d8595569ab5d2563e4c149c5de961d0e0732cd0560020b3474d281189c2571e",
        "3530000000000000000"
      ],
      "transaction": {
        "from": "0xcc624ffa5df1f3f4b30aa8abd30186a86254f406",
        "to": "0xb44d652354d12ac56b83112c6ece1fa2ccefc683",
        "gas": "0x21934",
        "value": "0x0",
        "input": "0x18cf42904d8595569ab5d2563e4c149c5de961d0e0732cd0560020b3474d281189c2571e00000000000000000000000000000000000000000000000030fd144c19210000",
        "nonce": "0x2e6",
        "chainId": "0xaa36a7"
      },
      "additionalContracts": [],
      "isFixedGasLimit": false
    },
    {
      "hash": "0x37eb57c6ab78ca609b686d307d4b61bf40d8ece158ef0a22a9cbe4231d2377e4",
      "transactionType": "CREATE",
      "contractName": "MultiAssetOracleAdapter",
      "contractAddress": "0x9e399c811a2a4761ec43e3d38367c9bb9eeddec7",
      "function": null,
      "arguments": [
        "0xB44d652354d12Ac56b83112c6ece1fa2ccEfc683",
        "0x4d8595569ab5d2563e4c149c5de961d0e0732cd0560020b3474d281189c2571e",
        "86400"
      ],
      "transaction": {
        "from": "0xcc624ffa5df1f3f4b30aa8abd30186a86254f406",
        "gas": "0x61c9d",
        "value": "0x0",
        "input": "0x60e0346100f157601f61059f38819003918201601f19168301916001600160401b038311848410176100f5578084926060946040528339810103126100f15780516001600160a01b03811691908290036100f157604060208201519101519180156100e25781156100d35760805260a05260c052604051610495908161010a823960805181818160a6015281816101790152818161025d01526103f3015260a051818181607b0152818161014e015281816102dd01526103c8015260c0518181816101bb015281816102a301526103930152f35b631d6051dd60e21b5f5260045ffd5b63b80f357d60e01b5f5260045ffd5b5f80fd5b634e487b7160e01b5f52604160045260245ffdfe60806040526004361015610011575f80fd5b5f3560e01c80631a26f4471461030057806344de240a146102c6578063687043c51461028c5780637dc0d1d01461024857806398d5fdca1461012e5763a4a281681461005b575f80fd5b3461012a575f36600319011261012a57604080516343fa621160e01b81527f0000000000000000000000000000000000000000000000000000000000000000600482015290816024817f00000000000000000000000000000000000000000000000000000000000000006001600160a01b03165afa90811561011f576040915f915f916100f0575b5082519182526020820152f35b90506101129150823d8411610118575b61010a8183610324565b81019061035a565b5f6100e3565b503d610100565b6040513d5f823e3d90fd5b5f80fd5b3461012a575f36600319011261012a57604080516343fa621160e01b81527f0000000000000000000000000000000000000000000000000000000000000000600482015290816024817f00000000000000000000000000000000000000000000000000000000000000006001600160a01b03165afa801561011f575f915f91610227575b508115610218577f00000000000000000000000000000000000000000000000000000000000000008015159182610204575b50506101f557602090604051908152f35b636888079d60e11b5f5260045ffd5b61021091925042610370565b1182806101e4565b63226b469160e01b5f5260045ffd5b9050610242915060403d6040116101185761010a8183610324565b826101b2565b3461012a575f36600319011261012a576040517f00000000000000000000000000000000000000000000000000000000000000006001600160a01b03168152602090f35b3461012a575f36600319011261012a5760206040517f00000000000000000000000000000000000000000000000000000000000000008152f35b3461012a575f36600319011261012a5760206040517f00000000000000000000000000000000000000000000000000000000000000008152f35b3461012a575f36600319011261012a57602061031a610391565b6040519015158152f35b90601f8019910116810190811067ffffffffffffffff82111761034657604052565b634e487b7160e01b5f52604160045260245ffd5b919082604091031261012a576020825192015190565b9190820391821161037d57565b634e487b7160e01b5f52601160045260245ffd5b7f0000000000000000000000000000000000000000000000000000000000000000801561045a57604080516343fa621160e01b81527f0000000000000000000000000000000000000000000000000000000000000000600482015290816024817f00000000000000000000000000000000000000000000000000000000000000006001600160a01b03165afa801561011f57610435915f91610439575b5042610370565b1190565b610452915060403d6040116101185761010a8183610324565b90505f61042e565b505f9056fea2646970667358221220faa534add4672f0ff8afb535456583009b27096e46f3d7dca2c0e8237da9c89864736f6c634300081e0033000000000000000000000000b44d652354d12ac56b83112c6ece1fa2ccefc6834d8595569ab5d2563e4c149c5de961d0e0732cd0560020b3474d281189c2571e0000000000000000000000000000000000000000000000000000000000015180",
        "nonce": "0x2e7",
        "chainId": "0xaa36a7"
      },
      "additionalContracts": [],
      "isFixedGasLimit": false
    },
    {
      "hash": "0xcc5485cff3309b180dd3c3fe9a8a7bec308cc1a4332bc512a83b8d4e609f3303",
      "transactionType": "CREATE",
      "contractName": "ERC1967Proxy",
      "contractAddress": "0x58de5e38f6f927a59166b65a4d8beb425180b5e1",
      "function": null,
      "arguments": [
        "0xd64175cE957F089bA7fb3EBdA5B17f268DE01190",
        "0xfaf3b31e00000000000000000000000018f863b1b0a3eca6b2235dc1957291e357f490b00000000000000000000000009e399c811a2a4761ec43e3d38367c9bb9eeddec700000000000000000000000000000000000000000000000030fd144c1921000000000000000000000000000000000000000000000000152d02c7e14af680000000000000000000000000000000000000000000000000d3c21bcecceda1000000000000000000000000000000000000000000000000000000000000000000000a00000000000000000000000000000000000000000000000000000000000000640000000000000000000000000000000000000000000000000de0b6b3a76400000000000000000000000000000000000000000000000000000000000000000384"
      ],
      "transaction": {
        "from": "0xcc624ffa5df1f3f4b30aa8abd30186a86254f406",
        "gas": "0x8c186",
        "value": "0x0",
        "input": "0x608060405261029d8038038061001481610168565b92833981016040828203126101645781516001600160a01b03811692909190838303610164576020810151906001600160401b03821161016457019281601f8501121561016457835161006e610069826101a1565b610168565b9481865260208601936020838301011161016457815f926020809301865e86010152823b15610152577f360894a13ba1a3210667c828492db98dca3e2076cc3735a920a3ca505d382bbc80546001600160a01b031916821790557fbc7cd75a20ee27fd9adebab32041f755214dbc6bffa90cc0225b39da2e5c2d3b5f80a282511561013a575f8091610122945190845af43d15610132573d91610113610069846101a1565b9283523d5f602085013e6101bc565b505b6040516082908161021b8239f35b6060916101bc565b50505034156101245763b398979f60e01b5f5260045ffd5b634c9c8ce360e01b5f5260045260245ffd5b5f80fd5b6040519190601f01601f191682016001600160401b0381118382101761018d57604052565b634e487b7160e01b5f52604160045260245ffd5b6001600160401b03811161018d57601f01601f191660200190565b906101e057508051156101d157602081519101fd5b63d6bda27560e01b5f5260045ffd5b81511580610211575b6101f1575090565b639996b31560e01b5f9081526001600160a01b0391909116600452602490fd5b50803b156101e956fe60806040527f360894a13ba1a3210667c828492db98dca3e2076cc3735a920a3ca505d382bbc545f9081906001600160a01b0316368280378136915af43d5f803e156048573d5ff35b3d5ffdfea2646970667358221220f3abbe39e3dcf9a90ad5135ca9a820533e685fb38918ae40cdb47aadceaf067964736f6c634300081e0033000000000000000000000000d64175ce957f089ba7fb3ebda5b17f268de0119000000000000000000000000000000000000000000000000000000000000000400000000000000000000000000000000000000000000000000000000000000124faf3b31e00000000000000000000000018f863b1b0a3eca6b2235dc1957291e357f490b00000000000000000000000009e399c811a2a4761ec43e3d38367c9bb9eeddec700000000000000000000000000000000000000000000000030fd144c1921000000000000000000000000000000000000000000000000152d02c7e14af680000000000000000000000000000000000000000000000000d3c21bcecceda1000000000000000000000000000000000000000000000000000000000000000000000a00000000000000000000000000000000000000000000000000000000000000640000000000000000000000000000000000000000000000000de0b6b3a7640000000000000000000000000000000000000000000000000000000000000000038400000000000000000000000000000000000000000000000000000000",
        "nonce": "0x2e8",
        "chainId": "0xaa36a7"
      },
      "additionalContracts": [],
      "isFixedGasLimit": false
    },
    {
      "hash": "0xdeccf6c144b53d6b594bfd03228eb2e224f0d36f1381e08cb394087b148e334e",
      "transactionType": "CALL",
      "contractName": null,
      "contractAddress": "0x01d2bdbed2cc4ec55b0ea92eda1aab47d57627fd",
      "function": "addMarket((bytes32,address,address,address,address,uint256,uint16,address,address))",
      "arguments": [
        "(0x3b9736717eab3427f776c56345a626690c13be77aa87cb6858bf92d50ad0c998, 0x58dE5e38F6F927a59166B65a4D8beb425180b5E1, 0x9e399C811A2a4761Ec43e3D38367c9Bb9eEDdEc7, 0xc696f32d4F8219CbA41bcD5C949b2551df13A7d6, 0x8C68933688f94BF115ad2F9C8c8e251AE5d4ade7, 1000000000000000000, 10, 0xa75839A6D2Bb2f47FE98dc81EC47eaD01D4A2c1F, 0x3C1085dF918a38A95F84945E6705CC857b664074)"
      ],
      "transaction": {
        "from": "0xcc624ffa5df1f3f4b30aa8abd30186a86254f406",
        "to": "0x01d2bdbed2cc4ec55b0ea92eda1aab47d57627fd",
        "gas": "0x43163",
        "value": "0x0",
        "input": "0xb7eaeaa03b9736717eab3427f776c56345a626690c13be77aa87cb6858bf92d50ad0c99800000000000000000000000058de5e38f6f927a59166b65a4d8beb425180b5e10000000000000000000000009e399c811a2a4761ec43e3d38367c9bb9eeddec7000000000000000000000000c696f32d4f8219cba41bcd5c949b2551df13a7d60000000000000000000000008c68933688f94bf115ad2f9c8c8e251ae5d4ade70000000000000000000000000000000000000000000000000de0b6b3a7640000000000000000000000000000000000000000000000000000000000000000000a000000000000000000000000a75839a6d2bb2f47fe98dc81ec47ead01d4a2c1f0000000000000000000000003c1085df918a38a95f84945e6705cc857b664074",
        "nonce": "0x2e9",
        "chainId": "0xaa36a7"
      },
      "additionalContracts": [],
      "isFixedGasLimit": false
    },
    {
      "hash": "0x34115cc1f3aa9d5be701415bec8470c49286973dfdb9385b8b480f43883269d0",
      "transactionType": "CALL",
      "contractName": null,
      "contractAddress": "0x18f863b1b0a3eca6b2235dc1957291e357f490b0",
      "function": "setRiskParams(bytes32,uint256,uint256,uint256,uint256)",
      "arguments": [
        "0x3b9736717eab3427f776c56345a626690c13be77aa87cb6858bf92d50ad0c998",
        "1000",
        "500",
        "250",
        "1000000000000000000000"
      ],
      "transaction": {
        "from": "0xcc624ffa5df1f3f4b30aa8abd30186a86254f406",
        "to": "0x18f863b1b0a3eca6b2235dc1957291e357f490b0",
        "gas": "0x33020",
        "value": "0x0",
        "input": "0x468e00003b9736717eab3427f776c56345a626690c13be77aa87cb6858bf92d50ad0c99800000000000000000000000000000000000000000000000000000000000003e800000000000000000000000000000000000000000000000000000000000001f400000000000000000000000000000000000000000000000000000000000000fa00000000000000000000000000000000000000000000003635c9adc5dea00000",
        "nonce": "0x2ea",
        "chainId": "0xaa36a7"
      },
      "additionalContracts": [],
      "isFixedGasLimit": false
    }
  ],
  "receipts": [
    {
      "status": "0x1",
      "cumulativeGasUsed": "0x90c6c5",
      "logs": [
        {
          "address": "0xb44d652354d12ac56b83112c6ece1fa2ccefc683",
          "topics": [
            "0xa36ad57ce820f3e2207fa95e8c7e671ad53c84a0e8dc94378e26f3546126905d",
            "0x4d8595569ab5d2563e4c149c5de961d0e0732cd0560020b3474d281189c2571e"
          ],
          "data": "0x00000000000000000000000000000000000000000000000030fd144c19210000",
          "blockHash": "0x50159645acaf4e6eee7885807246a85f5d48b418d83cc2a49b28292da41cff84",
          "blockNumber": "0x9885f7",
          "blockTimestamp": "0x695e2b94",
          "transactionHash": "0xd1be37e55ce5a1a81abbcdba0d1c8e5a33c3aecf4823d187cfd8111463e1b228",
          "transactionIndex": "0x3a",
          "logIndex": "0x56",
          "removed": false
        },
        {
          "address": "0xb44d652354d12ac56b83112c6ece1fa2ccefc683",
          "topics": [
            "0xbcd10d64fce9dcf9568572ed92e371df336d32649e8960a045c9548794a44b26",
            "0x4d8595569ab5d2563e4c149c5de961d0e0732cd0560020b3474d281189c2571e",
            "0x00000000000000000000000000000000000000000000000030fd144c19210000"
          ],
          "data": "0x00000000000000000000000000000000000000000000000000000000695e2b94",
          "blockHash": "0x50159645acaf4e6eee7885807246a85f5d48b418d83cc2a49b28292da41cff84",
          "blockNumber": "0x9885f7",
          "blockTimestamp": "0x695e2b94",
          "transactionHash": "0xd1be37e55ce5a1a81abbcdba0d1c8e5a33c3aecf4823d187cfd8111463e1b228",
          "transactionIndex": "0x3a",
          "logIndex": "0x57",
          "removed": false
        }
      ],
      "logsBloom": "0x00000000000000000000020000000000000020000000000001000000000000000000000000000040000000000000000000000000000000000008000000000000000000000000000000000000001000000000000000000000000008000000000000000000080000000000040000000000000000000000000000000000000002000000000000000000000000000000000000000000000000000000000000000000000000000000000000000000000000000002000000000000200000000000000000000000000000000000000000000000000000800000000000000000000000000000000000000000000000000000400000000000000000000000000000100000",
      "type": "0x2",
      "transactionHash": "0xd1be37e55ce5a1a81abbcdba0d1c8e5a33c3aecf4823d187cfd8111463e1b228",
      "transactionIndex": "0x3a",
      "blockHash": "0x50159645acaf4e6eee7885807246a85f5d48b418d83cc2a49b28292da41cff84",
      "blockNumber": "0x9885f7",
      "gasUsed": "0x16f52",
      "effectiveGasPrice": "0xf4248",
      "from": "0xcc624ffa5df1f3f4b30aa8abd30186a86254f406",
      "to": "0xb44d652354d12ac56b83112c6ece1fa2ccefc683",
      "contractAddress": null
    },
    {
      "status": "0x1",
      "cumulativeGasUsed": "0x9658f7",
      "logs": [],
      "logsBloom": "0x00000000000000000000000000000000000000000000000000000000000000000000000000000000000000000000000000000000000000000000000000000000000000000000000000000000000000000000000000000000000000000000000000000000000000000000000000000000000000000000000000000000000000000000000000000000000000000000000000000000000000000000000000000000000000000000000000000000000000000000000000000000000000000000000000000000000000000000000000000000000000000000000000000000000000000000000000000000000000000000000000000000000000000000000000000000",
      "type": "0x2",
      "transactionHash": "0x37eb57c6ab78ca609b686d307d4b61bf40d8ece158ef0a22a9cbe4231d2377e4",
      "transactionIndex": "0x3c",
      "blockHash": "0x50159645acaf4e6eee7885807246a85f5d48b418d83cc2a49b28292da41cff84",
      "blockNumber": "0x9885f7",
      "gasUsed": "0x4b38d",
      "effectiveGasPrice": "0xf4248",
      "from": "0xcc624ffa5df1f3f4b30aa8abd30186a86254f406",
      "to": null,
      "contractAddress": "0x9e399c811a2a4761ec43e3d38367c9bb9eeddec7"
    },
    {
      "status": "0x1",
      "cumulativeGasUsed": "0x9d1537",
      "logs": [
        {
          "address": "0x58de5e38f6f927a59166b65a4d8beb425180b5e1",
          "topics": [
            "0xbc7cd75a20ee27fd9adebab32041f755214dbc6bffa90cc0225b39da2e5c2d3b",
            "0x000000000000000000000000d64175ce957f089ba7fb3ebda5b17f268de01190"
          ],
          "data": "0x",
          "blockHash": "0x50159645acaf4e6eee7885807246a85f5d48b418d83cc2a49b28292da41cff84",
          "blockNumber": "0x9885f7",
          "blockTimestamp": "0x695e2b94",
          "transactionHash": "0xcc5485cff3309b180dd3c3fe9a8a7bec308cc1a4332bc512a83b8d4e609f3303",
          "transactionIndex": "0x3d",
          "logIndex": "0x5a",
          "removed": false
        },
        {
          "address": "0x58de5e38f6f927a59166b65a4d8beb425180b5e1",
          "topics": [
            "0x4a9c62e9f5b1bd7dfbc4dbff9e13a7178fe7a004d15c4e66c942416714f28edb",
            "0x000000000000000000000000cc624ffa5df1f3f4b30aa8abd30186a86254f406",
            "0x00000000000000000000000018f863b1b0a3eca6b2235dc1957291e357f490b0"
          ],
          "data": "0x00000000000000000000000000000000000000000000000030fd144c1921000000000000000000000000000000000000000000000000152d02c7e14af6800000000000000000000000000000000000000000000000004ac02b189dd7faa00000",
          "blockHash": "0x50159645acaf4e6eee7885807246a85f5d48b418d83cc2a49b28292da41cff84",
          "blockNumber": "0x9885f7",
          "blockTimestamp": "0x695e2b94",
          "transactionHash": "0xcc5485cff3309b180dd3c3fe9a8a7bec308cc1a4332bc512a83b8d4e609f3303",
          "transactionIndex": "0x3d",
          "logIndex": "0x5b",
          "removed": false
        },
        {
          "address": "0x58de5e38f6f927a59166b65a4d8beb425180b5e1",
          "topics": [
            "0xa9f34f0da0b45009199e43ae578e6e4f5f1669be878f998b42c0b42be12d1751"
          ],
          "data": "0x000000000000000000000000000000000000000000000000000000000000000a00000000000000000000000000000000000000000000000000000000000000640000000000000000000000000000000000000000000000000de0b6b3a76400000000000000000000000000000000000000000000000000000000000000000384",
          "blockHash": "0x50159645acaf4e6eee7885807246a85f5d48b418d83cc2a49b28292da41cff84",
          "blockNumber": "0x9885f7",
          "blockTimestamp": "0x695e2b94",
          "transactionHash": "0xcc5485cff3309b180dd3c3fe9a8a7bec308cc1a4332bc512a83b8d4e609f3303",
          "transactionIndex": "0x3d",
          "logIndex": "0x5c",
          "removed": false
        },
        {
          "address": "0x58de5e38f6f927a59166b65a4d8beb425180b5e1",
          "topics": [
            "0xda910bf02851bb8d050a9d9cde446a782984df3623b69c1316ec0785457fb03a"
          ],
          "data": "0x00000000000000000000000000000000000000000000d3c21bcecceda1000000",
          "blockHash": "0x50159645acaf4e6eee7885807246a85f5d48b418d83cc2a49b28292da41cff84",
          "blockNumber": "0x9885f7",
          "blockTimestamp": "0x695e2b94",
          "transactionHash": "0xcc5485cff3309b180dd3c3fe9a8a7bec308cc1a4332bc512a83b8d4e609f3303",
          "transactionIndex": "0x3d",
          "logIndex": "0x5d",
          "removed": false
        },
        {
          "address": "0x58de5e38f6f927a59166b65a4d8beb425180b5e1",
          "topics": [
            "0xc7f505b2f371ae2175ee4913f4499e1f2633a7b5936321eed1cdaeb6115181d2"
          ],
          "data": "0x0000000000000000000000000000000000000000000000000000000000000001",
          "blockHash": "0x50159645acaf4e6eee7885807246a85f5d48b418d83cc2a49b28292da41cff84",
          "blockNumber": "0x9885f7",
          "blockTimestamp": "0x695e2b94",
          "transactionHash": "0xcc5485cff3309b180dd3c3fe9a8a7bec308cc1a4332bc512a83b8d4e609f3303",
          "transactionIndex": "0x3d",
          "logIndex": "0x5e",
          "removed": false
        }
      ],
      "logsBloom": "0x00000000000000000010000000000000400000000000000000800000000000000000200000000000400010000000000000000000020000000000004000000000000000000000000000000000000002000000000020000000000000000000000000000000000000000000082000000000000000000000000000000000000040000000000000000000000800000000000000000000100080000004000000000000000000000000400000000000000000000000200000000000000000000000000004000020000000000000100000000000000080000004000000000100000000000000001000000000000000000200000000000000000000000000000000000000",
      "type": "0x2",
      "transactionHash": "0xcc5485cff3309b180dd3c3fe9a8a7bec308cc1a4332bc512a83b8d4e609f3303",
      "transactionIndex": "0x3d",
      "blockHash": "0x50159645acaf4e6eee7885807246a85f5d48b418d83cc2a49b28292da41cff84",
      "blockNumber": "0x9885f7",
      "gasUsed": "0x6bc40",
      "effectiveGasPrice": "0xf4248",
      "from": "0xcc624ffa5df1f3f4b30aa8abd30186a86254f406",
      "to": null,
      "contractAddress": "0x58de5e38f6f927a59166b65a4d8beb425180b5e1"
    },
    {
      "status": "0x1",
      "cumulativeGasUsed": "0x9ff328",
      "logs": [
        {
          "address": "0x01d2bdbed2cc4ec55b0ea92eda1aab47d57627fd",
          "topics": [
            "0x3ca3906a1acc14aee692a58b74ea4d433d5b33625fc29e6f1cfbac4df9ee7f1e",
            "0x3b9736717eab3427f776c56345a626690c13be77aa87cb6858bf92d50ad0c998",
            "0x00000000000000000000000058de5e38f6f927a59166b65a4d8beb425180b5e1"
          ],
          "data": "0x",
          "blockHash": "0x50159645acaf4e6eee7885807246a85f5d48b418d83cc2a49b28292da41cff84",
          "blockNumber": "0x9885f7",
          "blockTimestamp": "0x695e2b94",
          "transactionHash": "0xdeccf6c144b53d6b594bfd03228eb2e224f0d36f1381e08cb394087b148e334e",
          "transactionIndex": "0x3e",
          "logIndex": "0x5f",
          "removed": false
        }
      ],
      "logsBloom": "0x00000408000000000000000000000000000000000000000000000000000000000000000000000000000000000000000000000000040000000000004000000000000000000000000000000000000000000000000000000004000400000001000000000000000000000000000000000000000001000000000000000000000000000000200000000000400000000000000000000000000000000000000000000000000000000000000000000000000000000008000000000000000000000000000000000000000000000000000000000000000000000000000000000001000000000000000000000000000000000000000000000000000000000000000000000000",
      "type": "0x2",
      "transactionHash": "0xdeccf6c144b53d6b594bfd03228eb2e224f0d36f1381e08cb394087b148e334e",
      "transactionIndex": "0x3e",
      "blockHash": "0x50159645acaf4e6eee7885807246a85f5d48b418d83cc2a49b28292da41cff84",
      "blockNumber": "0x9885f7",
      "gasUsed": "0x2ddf1",
      "effectiveGasPrice": "0xf4248",
      "from": "0xcc624ffa5df1f3f4b30aa8abd30186a86254f406",
      "to": "0x01d2bdbed2cc4ec55b0ea92eda1aab47d57627fd",
      "contractAddress": null
    },
    {
      "status": "0x1",
      "cumulativeGasUsed": "0xa22131",
      "logs": [
        {
          "address": "0x18f863b1b0a3eca6b2235dc1957291e357f490b0",
          "topics": [
            "0xab89b7189222424f7474f0f10fedb16bd41c97e3baf664fb01b8b15a319ce08d",
            "0x3b9736717eab3427f776c56345a626690c13be77aa87cb6858bf92d50ad0c998"
          ],
          "data": "0x00000000000000000000000000000000000000000000000000000000000003e800000000000000000000000000000000000000000000000000000000000001f400000000000000000000000000000000000000000000000000000000000000fa00000000000000000000000000000000000000000000003635c9adc5dea00000",
          "blockHash": "0x50159645acaf4e6eee7885807246a85f5d48b418d83cc2a49b28292da41cff84",
          "blockNumber": "0x9885f7",
          "blockTimestamp": "0x695e2b94",
          "transactionHash": "0x34115cc1f3aa9d5be701415bec8470c49286973dfdb9385b8b480f43883269d0",
          "transactionIndex": "0x3f",
          "logIndex": "0x60",
          "removed": false
        }
      ],
      "logsBloom": "0x00000000000000000000000000000000000000000000000000000000000000000000000000000000000000000000000000000000040000000000000000000000000000000000000000000000000000000000008000000000000000000000000000000000000000000000000000000000000001000000000000000000000000000000200000000000000000000000000000000000000000000000000000000000000000000000040000000000000000000000000084000000000000000000000000000000000100000000000000000000000000000000000000000000000000000000000000000000100000000000000000000000000000000000000000000000",
      "type": "0x2",
      "transactionHash": "0x34115cc1f3aa9d5be701415bec8470c49286973dfdb9385b8b480f43883269d0",
      "transactionIndex": "0x3f",
      "blockHash": "0x50159645acaf4e6eee7885807246a85f5d48b418d83cc2a49b28292da41cff84",
      "blockNumber": "0x9885f7",
      "gasUsed": "0x22e09",
      "effectiveGasPrice": "0xf4248",
      "from": "0xcc624ffa5df1f3f4b30aa8abd30186a86254f406",
      "to": "0x18f863b1b0a3eca6b2235dc1957291e357f490b0",
      "contractAddress": null
    }
  ],
  "libraries": [],
  "pending": [],
  "returns": {},
  "timestamp": 1767779220580,
  "chain": 11155111,
  "commit": "642ec71"
}