{
  "transactions": [
    {
      "hash": "0x187b008c8b5eb72d81a22dcd555226b0a7a28e2bc5a78de13f1dea6fab824e2e",
      "transactionType": "CALL",
      "contractName": null,
      "contractAddress": "0xfe2c9c2a1f0c700d88c78dcbc2e7bd1a8bb30df0",
      "function": "registerCollateral((address,uint256,uint16,uint16,uint256,uint256,bool,bool,bool,string))",
      "arguments": [
        "(0x8C68933688f94BF115ad2F9C8c8e251AE5d4ade7, 1000000, 0, 500, 0, 0, true, false, false, USDC)"
      ],
      "transaction": {
        "from": "0xcc624ffa5df1f3f4b30aa8abd30186a86254f406",
        "to": "0xfe2c9c2a1f0c700d88c78dcbc2e7bd1a8bb30df0",
        "gas": "0x198e1",
        "value": "0x0",
        "input": "0xf3339c2b00000000000000000000000000000000000000000000000000000000000000200000000000000000000000008c68933688f94bf115ad2f9c8c8e251ae5d4ade700000000000000000000000000000000000000000000000000000000000f4240000000000000000000000000000000000000000000000000000000000000000000000000000000000000000000000000000000000000000000000000000001f400000000000000000000000000000000000000000000000000000000000000000000000000000000000000000000000000000000000000000000000000000000000000000000000000000000000000000000000000000000000000000000000100000000000000000000000000000000000000000000000000000000000000000000000000000000000000000000000000000000000000000000000000000000000000000000000000000000000000000000000000000000000000000000014000000000000000000000000000000000000000000000000000000000000000045553444300000000000000000000000000000000000000000000000000000000",
        "nonce": "0x210",
        "chainId": "0xaa36a7"
      },
      "additionalContracts": [],
      "isFixedGasLimit": false
    },
    {
      "hash": "0xf83aab47361895006237058fbe56ab1c9cdfaae953cbfab8933272967c6c905d",
      "transactionType": "CREATE",
      "contractName": "MockUSDCPriceFeed",
      "contractAddress": "0xb025aaa1368dd9e42f7e152e7d37fa94ceba84d7",
      "function": null,
      "arguments": null,
      "transaction": {
        "from": "0xcc624ffa5df1f3f4b30aa8abd30186a86254f406",
        "gas": "0x45913",
        "value": "0x0",
        "input": "0x6080806040523460bd575f54600181811c9116801560b4575b602082101460a057601f8111605c575b507f55534443202f20555344000000000000000000000000000000000000000000145f556001805561022790816100c28239f35b5f8052601f0160051c7f290decd9548b62a8d60345a988386fc84ba6bc95484008f6362f93160ef3e563908101905b818110609657506028565b5f8155600101608b565b634e487b7160e01b5f52602260045260245ffd5b90607f16906018565b5f80fdfe6080806040526004361015610012575f80fd5b5f3560e01c908163313ce567146101d85750806354fd4d50146101bb5780637284e416146100845763feaf968c14610048575f80fd5b34610080575f3660031901126100805760a0604051600181526305f5e100602082015242604082015242606082015260016080820152f35b5f80fd5b34610080575f366003190112610080576040515f5f54908160011c600183169283156101b1575b60208210841461019d5781855260208501939081156101845750600114610130575b50829003601f01601f191682019167ffffffffffffffff83118184101761011c576040918391828452602083525180918160208501528484015e5f828201840152601f01601f19168101030190f35b634e487b7160e01b5f52604160045260245ffd5b90505f80527f290decd9548b62a8d60345a988386fc84ba6bc95484008f6362f93160ef3e5635f905b82821061016e575060209150830101836100cd565b6001816020925483858901015201910190610159565b60ff1916845250151560051b83016020019050836100cd565b634e487b7160e01b5f52602260045260245ffd5b90607f16906100ab565b34610080575f366003190112610080576020600154604051908152f35b34610080575f3660031901126100805780600860209252f3fea26469706673582212209afea4ea1996321d52ddcd5bedf2f4340d0223cab8581f6c4dbd93a5465b92af64736f6c634300081e0033",
        "nonce": "0x211",
        "chainId": "0xaa36a7"
      },
      "additionalContracts": [],
      "isFixedGasLimit": false
    },
    {
      "hash": "0xa89dce1c02509587e02e7ca6320dea8e684c39e6f1f3af4f63d9e4bb5bc777c8",
      "transactionType": "CALL",
      "contractName": null,
      "contractAddress": "0x7d1cc77cb9c0a30a9abb3d052a5542ab5e254c9c",
      "function": "setPriceFeed(string,address)",
      "arguments": [
        "USDC",
        "0xb025aaA1368dD9E42F7E152E7D37FA94cEba84d7"
      ],
      "transaction": {
        "from": "0xcc624ffa5df1f3f4b30aa8abd30186a86254f406",
        "to": "0x7d1cc77cb9c0a30a9abb3d052a5542ab5e254c9c",
        "gas": "0xb4ce",
        "value": "0x0",
        "input": "0xf3b3347e0000000000000000000000000000000000000000000000000000000000000040000000000000000000000000b025aaa1368dd9e42f7e152e7d37fa94ceba84d700000000000000000000000000000000000000000000000000000000000000045553444300000000000000000000000000000000000000000000000000000000",
        "nonce": "0x212",
        "chainId": "0xaa36a7"
      },
      "additionalContracts": [],
      "isFixedGasLimit": false
    },
    {
      "hash": "0xa9a1de199e2c9c5a4d67485bf6cfe60d8bf97e71ffa744efa504bf3cde3b8bdb",
      "transactionType": "CALL",
      "contractName": null,
      "contractAddress": "0x7d1cc77cb9c0a30a9abb3d052a5542ab5e254c9c",
      "function": "setBaseUnit(string,uint256)",
      "arguments": [
        "USDC",
        "1000000"
      ],
      "transaction": {
        "from": "0xcc624ffa5df1f3f4b30aa8abd30186a86254f406",
        "to": "0x7d1cc77cb9c0a30a9abb3d052a5542ab5e254c9c",
        "gas": "0x991e",
        "value": "0x0",
        "input": "0xa4392ee1000000000000000000000000000000000000000000000000000000000000004000000000000000000000000000000000000000000000000000000000000f424000000000000000000000000000000000000000000000000000000000000000045553444300000000000000000000000000000000000000000000000000000000",
        "nonce": "0x213",
        "chainId": "0xaa36a7"
      },
      "additionalContracts": [],
      "isFixedGasLimit": false
    }
  ],
  "receipts": [
    {
      "status": "0x1",
      "cumulativeGasUsed": "0x15e8588",
      "logs": [
        {
          "address": "0xfe2c9c2a1f0c700d88c78dcbc2e7bd1a8bb30df0",
          "topics": [
            "0x579b083822bdc58bb71d251698d15cc735ca4c864b903f9d02f602972e0cecf2",
            "0x0000000000000000000000008c68933688f94bf115ad2f9c8c8e251ae5d4ade7"
          ],
          "data": "0x00000000000000000000000000000000000000000000000000000000000f4240000000000000000000000000000000000000000000000000000000000000000000000000000000000000000000000000000000000000000000000000000001f400000000000000000000000000000000000000000000000000000000000000000000000000000000000000000000000000000000000000000000000000000000000000000000000000000000000000000000000000000000000000000000000100000000000000000000000000000000000000000000000000000000000000000000000000000000000000000000000000000000000000000000000000000000000000000000000000000000000000000000000000000000000000000000012000000000000000000000000000000000000000000000000000000000000000045553444300000000000000000000000000000000000000000000000000000000",
          "blockHash": "0x1b021ff97b4b2815aa43ffbf8605af6656cfcfc579f76d65c834b078a5f184f1",
          "blockNumber": "0x944ab9",
          "blockTimestamp": "0x692867ac",
          "transactionHash": "0x187b008c8b5eb72d81a22dcd555226b0a7a28e2bc5a78de13f1dea6fab824e2e",
          "transactionIndex": "0x65",
          "logIndex": "0xaf",
          "removed": false
        }
      ],
      "logsBloom": "0x00000000000000200000000000000000000000000000000000000000000000020000000000000000000000000000000000000000000000000000000000000000000000000000000000000000000000000000000000000000000000000000000000000000000000000000000000000000000000080000000000000000000000000000000000000000020000000000000000000080000000000000000000000000000000400200000000000080000000000000000000000000000000000000000000000000000000000000000000000000000000000000040000000000000000000000000000000000000000000000000000000000000000000000000000000000",
      "type": "0x2",
      "transactionHash": "0x187b008c8b5eb72d81a22dcd555226b0a7a28e2bc5a78de13f1dea6fab824e2e",
      "transactionIndex": "0x65",
      "blockHash": "0x1b021ff97b4b2815aa43ffbf8605af6656cfcfc579f76d65c834b078a5f184f1",
      "blockNumber": "0x944ab9",
      "gasUsed": "0x12806",
      "effectiveGasPrice": "0xf7586",
      "from": "0xcc624ffa5df1f3f4b30aa8abd30186a86254f406",
      "to": "0xfe2c9c2a1f0c700d88c78dcbc2e7bd1a8bb30df0",
      "contractAddress": null
    },
    {
      "status": "0x1",
      "cumulativeGasUsed": "0x16281ce",
      "logs": [],
      "logsBloom": "0x00000000000000000000000000000000000000000000000000000000000000000000000000000000000000000000000000000000000000000000000000000000000000000000000000000000000000000000000000000000000000000000000000000000000000000000000000000000000000000000000000000000000000000000000000000000000000000000000000000000000000000000000000000000000000000000000000000000000000000000000000000000000000000000000000000000000000000000000000000000000000000000000000000000000000000000000000000000000000000000000000000000000000000000000000000000",
      "type": "0x2",
      "transactionHash": "0xf83aab47361895006237058fbe56ab1c9cdfaae953cbfab8933272967c6c905d",
      "transactionIndex": "0x68",
      "blockHash": "0x1b021ff97b4b2815aa43ffbf8605af6656cfcfc579f76d65c834b078a5f184f1",
      "blockNumber": "0x944ab9",
      "gasUsed": "0x35836",
      "effectiveGasPrice": "0xf7586",
      "from": "0xcc624ffa5df1f3f4b30aa8abd30186a86254f406",
      "to": null,
      "contractAddress": "0xb025aaa1368dd9e42f7e152e7d37fa94ceba84d7"
    },
    {
      "status": "0x1",
      "cumulativeGasUsed": "0x162fd6f",
      "logs": [
        {
          "address": "0x7d1cc77cb9c0a30a9abb3d052a5542ab5e254c9c",
          "topics": [
            "0xdf04234d4adad453c202a56aae343d791761210eb89d2d72fd2ff7102d8d3186",
            "0xd6aca1be9729c13d677335161321649cccae6a591554772516700f986f942eaa",
            "0x000000000000000000000000b025aaa1368dd9e42f7e152e7d37fa94ceba84d7"
          ],
          "data": "0x",
          "blockHash": "0x1b021ff97b4b2815aa43ffbf8605af6656cfcfc579f76d65c834b078a5f184f1",
          "blockNumber": "0x944ab9",
          "blockTimestamp": "0x692867ac",
          "transactionHash": "0xa89dce1c02509587e02e7ca6320dea8e684c39e6f1f3af4f63d9e4bb5bc777c8",
          "transactionIndex": "0x69",
          "logIndex": "0xb0",
          "removed": false
        }
      ],
      "logsBloom": "0x00000000080000100000000000020000000000000000000000000000000000000000000800000000000000000000000000800000024000000000000000000000000000000000000000000000000000000000000000000000000000000000000000000000000000000000000000000000000000080000000000000000000000000000000000000000004000000000000000000000000000000000000000000000000000000000000000000000000000000000000000000000000000000000000000000000000000000000000000000000040000000000080000000000000000000000000000004000000000000000000000000000000000000000000000000000",
      "type": "0x2",
      "transactionHash": "0xa89dce1c02509587e02e7ca6320dea8e684c39e6f1f3af4f63d9e4bb5bc777c8",
      "transactionIndex": "0x69",
      "blockHash": "0x1b021ff97b4b2815aa43ffbf8605af6656cfcfc579f76d65c834b078a5f184f1",
      "blockNumber": "0x944ab9",
      "gasUsed": "0x7ba1",
      "effectiveGasPrice": "0xf7586",
      "from": "0xcc624ffa5df1f3f4b30aa8abd30186a86254f406",
      "to": "0x7d1cc77cb9c0a30a9abb3d052a5542ab5e254c9c",
      "contractAddress": null
    },
    {
      "status": "0x1",
      "cumulativeGasUsed": "0x1636c4b",
      "logs": [
        {
          "address": "0x7d1cc77cb9c0a30a9abb3d052a5542ab5e254c9c",
          "topics": [
            "0x90dccf070016593cd7a02ecce2ee275a9ab06e57820cb23a63275a285a967fd1",
            "0xd6aca1be9729c13d677335161321649cccae6a591554772516700f986f942eaa"
          ],
          "data": "0x00000000000000000000000000000000000000000000000000000000000f4240",
          "blockHash": "0x1b021ff97b4b2815aa43ffbf8605af6656cfcfc579f76d65c834b078a5f184f1",
          "blockNumber": "0x944ab9",
          "blockTimestamp": "0x692867ac",
          "transactionHash": "0xa9a1de199e2c9c5a4d67485bf6cfe60d8bf97e71ffa744efa504bf3cde3b8bdb",
          "transactionIndex": "0x6a",
          "logIndex": "0xb1",
          "removed": false
        }
      ],
      "logsBloom": "0x00000000080000100000000000020000000000000000000000000000000000000000000800000000000400000000000000000000020000000000000000000000000000000000000000000000000000000000000000000000000000000000040000000000000000000000000000000000000000000000000000000000000000000000000000000000000000000000000000000000000000000000000010000000000000000000000000000000000000000000000000000000000000000000000000000000000000000000000000000000000000000000080000000000000000000000000000000000000000000000000000000000000000000000000000000000",
      "type": "0x2",
      "transactionHash": "0xa9a1de199e2c9c5a4d67485bf6cfe60d8bf97e71ffa744efa504bf3cde3b8bdb",
      "transactionIndex": "0x6a",
      "blockHash": "0x1b021ff97b4b2815aa43ffbf8605af6656cfcfc579f76d65c834b078a5f184f1",
      "blockNumber": "0x944ab9",
      "gasUsed": "0x6edc",
      "effectiveGasPrice": "0xf7586",
      "from": "0xcc624ffa5df1f3f4b30aa8abd30186a86254f406",
      "to": "0x7d1cc77cb9c0a30a9abb3d052a5542ab5e254c9c",
      "contractAddress": null
    }
  ],
  "libraries": [],
  "pending": [],
  "returns": {},
  "timestamp": 1764255661393,
  "chain": 11155111,
  "commit": "2145300"
}