{
  "transactions": [
    {
      "hash": "0x4122d105b8fae57e6be4c116633afa6781a48f5b3abaf456d67ed1bfa9d07a3b",
      "transactionType": "CALL",
      "contractName": null,
      "contractAddress": "0xf8908f7b4a1aaad69bf0667fa83f85d3d0052739",
      "function": "setOracle(address)",
      "arguments": [
        "0x3cA2Da03e4b6dB8fe5a24c22Cf5EB2A34B59cbad"
      ],
      "transaction": {
        "from": "0xcc624ffa5df1f3f4b30aa8abd30186a86254f406",
        "to": "0xf8908f7b4a1aaad69bf0667fa83f85d3d0052739",
        "gas": "0xc925",
        "value": "0x0",
        "input": "0x7adbf9730000000000000000000000003ca2da03e4b6db8fe5a24c22cf5eb2a34b59cbad",
        "nonce": "0x5a",
        "chainId": "0xaa36a7"
      },
      "additionalContracts": [],
      "isFixedGasLimit": false
    }
  ],
  "receipts": [
    {
      "status": "0x1",
      "cumulativeGasUsed": "0x764d9f",
      "logs": [
        {
          "address": "0xf8908f7b4a1aaad69bf0667fa83f85d3d0052739",
          "topics": [
            "0x0e05ae75e8b926552cf6fcd744d19f422561e3ced1e426868730852702dbe418",
            "0x0000000000000000000000003ca2da03e4b6db8fe5a24c22cf5eb2a34b59cbad"
          ],
          "data": "0x",
          "blockHash": "0xbf04cfdb0f69b647edf79e28716d83d9a5741790490c18f885affb2b9ad97d12",
          "blockNumber": "0x922e83",
          "blockTimestamp": "0x690e09d0",
          "transactionHash": "0x4122d105b8fae57e6be4c116633afa6781a48f5b3abaf456d67ed1bfa9d07a3b",
          "transactionIndex": "0x29",
          "logIndex": "0x27",
          "removed": false
        }
      ],
      "logsBloom": "0x00000000000000000000000000000000000000000080000000000000000000000000000000000000000000000000000000000000000000000000000000000000000000000000040000000000000004000000010000000000000000000010000000000000000000000000000800000000000000000000000000000000000000000000000000000000000000000002000000000000000000000000000000000000800000000000040000000000000000000000000000000000000000000000000000000000000000000000000000000000000000000000000000000000000000000000000000000000000000000000000000000000000000000000000000000000",
      "type": "0x2",
      "transactionHash": "0x4122d105b8fae57e6be4c116633afa6781a48f5b3abaf456d67ed1bfa9d07a3b",
      "transactionIndex": "0x29",
      "blockHash": "0xbf04cfdb0f69b647edf79e28716d83d9a5741790490c18f885affb2b9ad97d12",
      "blockNumber": "0x922e83",
      "gasUsed": "0x8989",
      "effectiveGasPrice": "0x3b9aca05",
      "from": "0xcc624ffa5df1f3f4b30aa8abd30186a86254f406",
      "to": "0xf8908f7b4a1aaad69bf0667fa83f85d3d0052739",
      "contractAddress": null
    }
  ],
  "libraries": [],
  "pending": [],
  "returns": {},
  "timestamp": 1762527697505,
  "chain": 11155111,
  "commit": "f013650"
}