{
  "transactions": [
    {
      "hash": "0x00910b41fda98413527fd32ab3f21752edbbebb2b98df06e8e84babddafe1fab",
      "transactionType": "CALL",
      "contractName": null,
      "contractAddress": "0xfe2c9c2a1f0c700d88c78dcbc2e7bd1a8bb30df0",
      "function": "registerCollateral((address,uint256,uint16,uint16,uint256,uint256,bool,bool,bool,string))",
      "arguments": [
        "(0x71075745A2A63dff3BD4819e9639D0E412c14AA9, 1000000, 0, 500, 0, 0, true, false, false, USDC)"
      ],
      "transaction": {
        "from": "0xcc624ffa5df1f3f4b30aa8abd30186a86254f406",
        "to": "0xfe2c9c2a1f0c700d88c78dcbc2e7bd1a8bb30df0",
        "gas": "0x60490",
        "value": "0x0",
        "input": "0xf3339c2b000000000000000000000000000000000000000000000000000000000000002000000000000000000000000071075745a2a63dff3bd4819e9639d0e412c14aa900000000000000000000000000000000000000000000000000000000000f4240000000000000000000000000000000000000000000000000000000000000000000000000000000000000000000000000000000000000000000000000000001f400000000000000000000000000000000000000000000000000000000000000000000000000000000000000000000000000000000000000000000000000000000000000000000000000000000000000000000000000000000000000000000000100000000000000000000000000000000000000000000000000000000000000000000000000000000000000000000000000000000000000000000000000000000000000000000000000000000000000000000000000000000000000000000014000000000000000000000000000000000000000000000000000000000000000045553444300000000000000000000000000000000000000000000000000000000",
        "nonce": "0x197",
        "chainId": "0xaa36a7"
      },
      "additionalContracts": [],
      "isFixedGasLimit": false
    }
  ],
  "receipts": [
    {
      "status": "0x1",
      "cumulativeGasUsed": "0xa06af3",
      "logs": [
        {
          "address": "0xfe2c9c2a1f0c700d88c78dcbc2e7bd1a8bb30df0",
          "topics": [
            "0x579b083822bdc58bb71d251698d15cc735ca4c864b903f9d02f602972e0cecf2",
            "0x00000000000000000000000071075745a2a63dff3bd4819e9639d0e412c14aa9"
          ],
          "data": "0x00000000000000000000000000000000000000000000000000000000000f4240000000000000000000000000000000000000000000000000000000000000000000000000000000000000000000000000000000000000000000000000000001f400000000000000000000000000000000000000000000000000000000000000000000000000000000000000000000000000000000000000000000000000000000000000000000000000000000000000000000000000000000000000000000000100000000000000000000000000000000000000000000000000000000000000000000000000000000000000000000000000000000000000000000000000000000000000000000000000000000000000000000000000000000000000000000012000000000000000000000000000000000000000000000000000000000000000045553444300000000000000000000000000000000000000000000000000000000",
          "blockHash": "0xb2901f92cd8dbbbfeb755a51a95cc8dae6543f7480d06ae3d70f9e1243dfb9f4",
          "blockNumber": "0x9392e5",
          "blockTimestamp": "0x691f9758",
          "transactionHash": "0x00910b41fda98413527fd32ab3f21752edbbebb2b98df06e8e84babddafe1fab",
          "transactionIndex": "0x32",
          "logIndex": "0x73",
          "removed": false
        }
      ],
      "logsBloom": "0x00000000000000200000000000000000000000000000000000000000000000000000000000000000000010000000000000000000800000000000000000000000000000000000000000000000000000000000000000000000000000000000000000000000000000100000000000000000000000080000000000000000000000000000000000000000000000000000000000000080000000000000000000000000000000400200000000000080000000000000000000000000000000000000000000000000000000000000000000000000000000000000000000000000000000000000000000000000000000000000000000000000000000000000000000000000",
      "type": "0x2",
      "transactionHash": "0x00910b41fda98413527fd32ab3f21752edbbebb2b98df06e8e84babddafe1fab",
      "transactionIndex": "0x32",
      "blockHash": "0xb2901f92cd8dbbbfeb755a51a95cc8dae6543f7480d06ae3d70f9e1243dfb9f4",
      "blockNumber": "0x9392e5",
      "gasUsed": "0x2acb2",
      "effectiveGasPrice": "0x100fdb",
      "from": "0xcc624ffa5df1f3f4b30aa8abd30186a86254f406",
      "to": "0xfe2c9c2a1f0c700d88c78dcbc2e7bd1a8bb30df0",
      "contractAddress": null
    }
  ],
  "libraries": [],
  "pending": [],
  "returns": {},
  "timestamp": 1763678040648,
  "chain": 11155111,
  "commit": "f013650"
}