{
  "transactions": [
    {
      "hash": "0x3bebf0cb2fe9c08d6157f056cd2ca9bc78ef5ddb6581eebdfe5f83bbb217f1b3",
      "transactionType": "CALL",
      "contractName": null,
      "contractAddress": "0x0be85ed0948779a01effb6b017ae87a4e9eb7fd6",
      "function": "setVault(address)",
      "arguments": [
        "0x86A10164eB8F55EA6765185aFcbF5e073b249Dd2"
      ],
      "transaction": {
        "from": "0xcc624ffa5df1f3f4b30aa8abd30186a86254f406",
        "to": "0x0be85ed0948779a01effb6b017ae87a4e9eb7fd6",
        "gas": "0xcc37",
        "value": "0x0",
        "input": "0x6817031b00000000000000000000000086a10164eb8f55ea6765185afcbf5e073b249dd2",
        "nonce": "0x228",
        "chainId": "0xaa36a7"
      },
      "additionalContracts": [],
      "isFixedGasLimit": false
    }
  ],
  "receipts": [
    {
      "status": "0x1",
      "cumulativeGasUsed": "0x666315",
      "logs": [
        {
          "address": "0x0be85ed0948779a01effb6b017ae87a4e9eb7fd6",
          "topics": [
            "0x483bdedaaf23706a9800ac1af0d852b34927780d79f9d6ba60a80c7cad75ea39",
            "0x000000000000000000000000fe2c9c2a1f0c700d88c78dcbc2e7bd1a8bb30df0",
            "0x00000000000000000000000086a10164eb8f55ea6765185afcbf5e073b249dd2"
          ],
          "data": "0x",
          "blockHash": "0x953cbc95a5d71ba04a3760de45f013575993253171fed36a28d8fc449991d478",
          "blockNumber": "0x945035",
          "blockTimestamp": "0x6928b0fc",
          "transactionHash": "0x3bebf0cb2fe9c08d6157f056cd2ca9bc78ef5ddb6581eebdfe5f83bbb217f1b3",
          "transactionIndex": "0x36",
          "logIndex": "0x51",
          "removed": false
        }
      ],
      "logsBloom": "0x00000000000000000000000000004000000000000000000000000000000000000000000004000000000000000000000200000000000000000000000000000000010000000000000000000000000000000000000000000000000000000000000000000000040000000000000000000000000000000000000000000200000000000000000000000000000000000000000000000000200000000000000000400000000000000000020000000000000008000000000000000000000000000000000000000000000002000000000000000000000000000000000000000000000000000000000000000000000000000000000000000000000000200000000000000000",
      "type": "0x2",
      "transactionHash": "0x3bebf0cb2fe9c08d6157f056cd2ca9bc78ef5ddb6581eebdfe5f83bbb217f1b3",
      "transactionIndex": "0x36",
      "blockHash": "0x953cbc95a5d71ba04a3760de45f013575993253171fed36a28d8fc449991d478",
      "blockNumber": "0x945035",
      "gasUsed": "0x8ba3",
      "effectiveGasPrice": "0xf424a",
      "from": "0xcc624ffa5df1f3f4b30aa8abd30186a86254f406",
      "to": "0x0be85ed0948779a01effb6b017ae87a4e9eb7fd6",
      "contractAddress": null
    }
  ],
  "libraries": [],
  "pending": [],
  "returns": {},
  "timestamp": 1764274429460,
  "chain": 11155111,
  "commit": "2145300"
}