{
  "transactions": [
    {
      "hash": "0xc5d53cd78529df8e0094385b9c5f52587a9351be092ec37d577b810d0be1a984",
      "transactionType": "CALL",
      "contractName": null,
      "contractAddress": "0x86a10164eb8f55ea6765185afcbf5e073b249dd2",
      "function": "setClearinghouse(address)",
      "arguments": [
        "0x18F863b1b0A3Eca6B2235dc1957291E357f490B0"
      ],
      "transaction": {
        "from": "0xcc624ffa5df1f3f4b30aa8abd30186a86254f406",
        "to": "0x86a10164eb8f55ea6765185afcbf5e073b249dd2",
        "gas": "0xa302",
        "value": "0x0",
        "input": "0x37d4b65900000000000000000000000018f863b1b0a3eca6b2235dc1957291e357f490b0",
        "nonce": "0x22c",
        "chainId": "0xaa36a7"
      },
      "additionalContracts": [],
      "isFixedGasLimit": false
    }
  ],
  "receipts": [
    {
      "status": "0x1",
      "cumulativeGasUsed": "0x7f7623",
      "logs": [
        {
          "address": "0x86a10164eb8f55ea6765185afcbf5e073b249dd2",
          "topics": [
            "0x0ff2c850d6c5bbe4a9190d1ac70e84a2d44e11374b401e9f27c1c56a93dc5101",
            "0x00000000000000000000000018f863b1b0a3eca6b2235dc1957291e357f490b0"
          ],
          "data": "0x",
          "blockHash": "0x24398821a22a27fb9a57a765bf89de1f10de9efeea05aa818e91bbc7022a58eb",
          "blockNumber": "0x945234",
          "blockTimestamp": "0x6928cbf0",
          "transactionHash": "0xc5d53cd78529df8e0094385b9c5f52587a9351be092ec37d577b810d0be1a984",
          "transactionIndex": "0x36",
          "logIndex": "0x67",
          "removed": false
        }
      ],
      "logsBloom": "0x00000000000000000000000000000000000000000000000000000000000000000000000000000000000000000000000000000000000000000010000000000000000000000000000000000000000000200000000000000000000000000000000000000000000000000000000000000000000000000000000000000000000000000000000000000000000000000000000000000000001000000004000000000000000000000000000000000000000000000000000000000000000000020000000000000000000000000010000000000000000080200000000000000100000000000000000000000000000000000000000000000000000000000000000000000000",
      "type": "0x2",
      "transactionHash": "0xc5d53cd78529df8e0094385b9c5f52587a9351be092ec37d577b810d0be1a984",
      "transactionIndex": "0x36",
      "blockHash": "0x24398821a22a27fb9a57a765bf89de1f10de9efeea05aa818e91bbc7022a58eb",
      "blockNumber": "0x945234",
      "gasUsed": "0x7604",
      "effectiveGasPrice": "0xf4240",
      "from": "0xcc624ffa5df1f3f4b30aa8abd30186a86254f406",
      "to": "0x86a10164eb8f55ea6765185afcbf5e073b249dd2",
      "contractAddress": null
    }
  ],
  "libraries": [],
  "pending": [],
  "returns": {},
  "timestamp": 1764281329250,
  "chain": 11155111,
  "commit": "2145300"
}