{
  "transactions": [
    {
      "hash": "0x534e17c7d42467c3fc919db9ca75655bf1f817435a53cf1ee13126e209678e81",
      "transactionType": "CALL",
      "contractName": null,
      "contractAddress": "0x3ca2da03e4b6db8fe5a24c22cf5eb2a34b59cbad",
      "function": "setPrice(uint256)",
      "arguments": [
        "3750000000000000000"
      ],
      "transaction": {
        "from": "0xcc624ffa5df1f3f4b30aa8abd30186a86254f406",
        "to": "0x3ca2da03e4b6db8fe5a24c22cf5eb2a34b59cbad",
        "gas": "0x95c3",
        "value": "0x0",
        "input": "0x91b7f5ed000000000000000000000000000000000000000000000000340aad21b3b70000",
        "nonce": "0x59",
        "chainId": "0xaa36a7"
      },
      "additionalContracts": [],
      "isFixedGasLimit": false
    }
  ],
  "receipts": [
    {
      "status": "0x1",
      "cumulativeGasUsed": "0xfb1eba",
      "logs": [
        {
          "address": "0x3ca2da03e4b6db8fe5a24c22cf5eb2a34b59cbad",
          "topics": [
            "0x945c1c4e99aa89f648fbfe3df471b916f719e16d960fcec0737d4d56bd696838"
          ],
          "data": "0x00000000000000000000000000000000000000000000006c6b935b8bbd400000000000000000000000000000000000000000000000000000340aad21b3b70000",
          "blockHash": "0xe82d17b09347e349820477d0d5aef2d4dbe06eac452dc63e11f89b102be103ca",
          "blockNumber": "0x922e68",
          "blockTimestamp": "0x690e0874",
          "transactionHash": "0x534e17c7d42467c3fc919db9ca75655bf1f817435a53cf1ee13126e209678e81",
          "transactionIndex": "0x58",
          "logIndex": "0x79",
          "removed": false
        }
      ],
      "logsBloom": "0x00000000000000000000000000000000000000000000000000000000000000000000000000000000000000000000000000000000000000000000000000000000000000000000000000000000000000000000000000000000000000000000000000000000000000000000000000000000000000000000000000000000000000000000000000000000000000000000000040000000000400000000000000000000000000000000000000000000000000000000000002000000000000000000000000000000000000000000000000000000000000000000000000004000000000000000000000000000000000200000000000000000000000040000000000000000",
      "type": "0x2",
      "transactionHash": "0x534e17c7d42467c3fc919db9ca75655bf1f817435a53cf1ee13126e209678e81",
      "transactionIndex": "0x58",
      "blockHash": "0xe82d17b09347e349820477d0d5aef2d4dbe06eac452dc63e11f89b102be103ca",
      "blockNumber": "0x922e68",
      "gasUsed": "0x6c6e",
      "effectiveGasPrice": "0xf424b",
      "from": "0xcc624ffa5df1f3f4b30aa8abd30186a86254f406",
      "to": "0x3ca2da03e4b6db8fe5a24c22cf5eb2a34b59cbad",
      "contractAddress": null
    }
  ],
  "libraries": [],
  "pending": [],
  "returns": {},
  "timestamp": 1762527348834,
  "chain": 11155111,
  "commit": "f013650"
}