{
  "transactions": [
    {
      "hash": "0x7299c5a9175562c93147b76e471af5f8021a92336d6893d2170bcfd96122a7e3",
      "transactionType": "CALL",
      "contractName": null,
      "contractAddress": "0x3f9b634b9f09e7f8e84348122c86d3c2324841b5",
      "function": "setOracle(address)",
      "arguments": [
        "0x7d1cc77Cb9C0a30a9aBB3d052A5542aB5E254c9c"
      ],
      "transaction": {
        "from": "0xcc624ffa5df1f3f4b30aa8abd30186a86254f406",
        "to": "0x3f9b634b9f09e7f8e84348122c86d3c2324841b5",
        "gas": "0xc925",
        "value": "0x0",
        "input": "0x7adbf9730000000000000000000000007d1cc77cb9c0a30a9abb3d052a5542ab5e254c9c",
        "nonce": "0x1af",
        "chainId": "0xaa36a7"
      },
      "additionalContracts": [],
      "isFixedGasLimit": false
    }
  ],
  "receipts": [
    {
      "status": "0x1",
      "cumulativeGasUsed": "0x63cce1",
      "logs": [
        {
          "address": "0x3f9b634b9f09e7f8e84348122c86d3c2324841b5",
          "topics": [
            "0x0e05ae75e8b926552cf6fcd744d19f422561e3ced1e426868730852702dbe418",
            "0x0000000000000000000000007d1cc77cb9c0a30a9abb3d052a5542ab5e254c9c"
          ],
          "data": "0x",
          "blockHash": "0xdbf74e66d066df783096e32113a05a9c417959e3404c007df2729071122339ef",
          "blockNumber": "0x93950d",
          "blockTimestamp": "0x691fb138",
          "transactionHash": "0x7299c5a9175562c93147b76e471af5f8021a92336d6893d2170bcfd96122a7e3",
          "transactionIndex": "0x3b",
          "logIndex": "0xa5",
          "removed": false
        }
      ],
      "logsBloom": "0x00000000000000000000000000000000000000000080000000000000000000000000000000000000040000000000000000000000000000000000000001000000000000000000060000000000000000000000010000000000000000000000000000000002000000000000000000000000000000000000000000000000000000000000000000000000000000000000000000000000000000000000000000000000000000000000000000000000000000000000000000000000000000000000000000000000000000000000000000000000000010000000000000040000000000000000000000000000000000000000000000000000000000000000000000000000",
      "type": "0x2",
      "transactionHash": "0x7299c5a9175562c93147b76e471af5f8021a92336d6893d2170bcfd96122a7e3",
      "transactionIndex": "0x3b",
      "blockHash": "0xdbf74e66d066df783096e32113a05a9c417959e3404c007df2729071122339ef",
      "blockNumber": "0x93950d",
      "gasUsed": "0x8989",
      "effectiveGasPrice": "0xf4244",
      "from": "0xcc624ffa5df1f3f4b30aa8abd30186a86254f406",
      "to": "0x3f9b634b9f09e7f8e84348122c86d3c2324841b5",
      "contractAddress": null
    }
  ],
  "libraries": [],
  "pending": [],
  "returns": {},
  "timestamp": 1763684665975,
  "chain": 11155111,
  "commit": "f013650"
}