{
  "transactions": [
    {
      "hash": "0x4e8608081c84b8228f855282eb2af21fb3c1f549c957500c6f0462482f655871",
      "transactionType": "CALL",
      "contractName": null,
      "contractAddress": "0x8c68933688f94bf115ad2f9c8c8e251ae5d4ade7",
      "function": "transfer(address,uint256)",
      "arguments": [
        "0x3C1085dF918a38A95F84945E6705CC857b664074",
        "10000000000"
      ],
      "transaction": {
        "from": "0xcc624ffa5df1f3f4b30aa8abd30186a86254f406",
        "to": "0x8c68933688f94bf115ad2f9c8c8e251ae5d4ade7",
        "gas": "0x11491",
        "value": "0x0",
        "input": "0xa9059cbb0000000000000000000000003c1085df918a38a95f84945e6705cc857b66407400000000000000000000000000000000000000000000000000000002540be400",
        "nonce": "0x1ad",
        "chainId": "0xaa36a7"
      },
      "additionalContracts": [],
      "isFixedGasLimit": false
    }
  ],
  "receipts": [
    {
      "status": "0x1",
      "cumulativeGasUsed": "0x3aedf1",
      "logs": [
        {
          "address": "0x8c68933688f94bf115ad2f9c8c8e251ae5d4ade7",
          "topics": [
            "0xddf252ad1be2c89b69c2b068fc378daa952ba7f163c4a11628f55a4df523b3ef",
            "0x000000000000000000000000cc624ffa5df1f3f4b30aa8abd30186a86254f406",
            "0x0000000000000000000000003c1085df918a38a95f84945e6705cc857b664074"
          ],
          "data": "0x00000000000000000000000000000000000000000000000000000002540be400",
          "blockHash": "0xd5aab3b61e07dfd45824b6acef6254df24d7249b1447ccca563ee9ced87e08e1",
          "blockNumber": "0x93948c",
          "blockTimestamp": "0x691fab2c",
          "transactionHash": "0x4e8608081c84b8228f855282eb2af21fb3c1f549c957500c6f0462482f655871",
          "transactionIndex": "0x25",
          "logIndex": "0x42",
          "removed": false
        }
      ],
      "logsBloom": "0x00000000000000000000000000000000000000000000000000000000000000000000200000000000000000000000000000000000020000000000000000000000000000000000000000000008000000000000000000000000000000000000000000000000000000000000000000000000000000000000000000000010000000000000000000000008000000400000000000000000000000000000000000000000000000000000000000000000000000000000200000000000000800000000000000000002000000000000000000000000000000080000000000000000000000000000000000000000000000000000000000000004000080000000000000000000",
      "type": "0x2",
      "transactionHash": "0x4e8608081c84b8228f855282eb2af21fb3c1f549c957500c6f0462482f655871",
      "transactionIndex": "0x25",
      "blockHash": "0xd5aab3b61e07dfd45824b6acef6254df24d7249b1447ccca563ee9ced87e08e1",
      "blockNumber": "0x93948c",
      "gasUsed": "0xc83c",
      "effectiveGasPrice": "0xf4248",
      "from": "0xcc624ffa5df1f3f4b30aa8abd30186a86254f406",
      "to": "0x8c68933688f94bf115ad2f9c8c8e251ae5d4ade7",
      "contractAddress": null
    }
  ],
  "libraries": [],
  "pending": [],
  "returns": {},
  "timestamp": 1763683117115,
  "chain": 11155111,
  "commit": "f013650"
}