{
  "transactions": [
    {
      "hash": "0x2e68b135f0ccbbf9080b5a1e4a0ba77f9e56082c63c83d09ea4027cfeca871ea",
      "transactionType": "CALL",
      "contractName": null,
      "contractAddress": "0x8c68933688f94bf115ad2f9c8c8e251ae5d4ade7",
      "function": "approve(address,uint256)",
      "arguments": [
        "0x18F863b1b0A3Eca6B2235dc1957291E357f490B0",
        "10000000000"
      ],
      "transaction": {
        "from": "0xcc624ffa5df1f3f4b30aa8abd30186a86254f406",
        "to": "0x8c68933688f94bf115ad2f9c8c8e251ae5d4ade7",
        "gas": "0xf7d3",
        "value": "0x0",
        "input": "0x095ea7b300000000000000000000000018f863b1b0a3eca6b2235dc1957291e357f490b000000000000000000000000000000000000000000000000000000002540be400",
        "nonce": "0x231",
        "chainId": "0xaa36a7"
      },
      "additionalContracts": [],
      "isFixedGasLimit": false
    },
    {
      "hash": "0xc50f3590c11deefc6599a6106ed34eb70014ec07af431745f31f0c4dc4c79d32",
      "transactionType": "CALL",
      "contractName": null,
      "contractAddress": "0x18f863b1b0a3eca6b2235dc1957291e357f490b0",
      "function": "deposit(address,uint256)",
      "arguments": [
        "0x8C68933688f94BF115ad2F9C8c8e251AE5d4ade7",
        "1000000000"
      ],
      "transaction": {
        "from": "0xcc624ffa5df1f3f4b30aa8abd30186a86254f406",
        "to": "0x18f863b1b0a3eca6b2235dc1957291e357f490b0",
        "gas": "0x27891",
        "value": "0x0",
        "input": "0x47e7ef240000000000000000000000008c68933688f94bf115ad2f9c8c8e251ae5d4ade7000000000000000000000000000000000000000000000000000000003b9aca00",
        "nonce": "0x232",
        "chainId": "0xaa36a7"
      },
      "additionalContracts": [],
      "isFixedGasLimit": false
    },
    {
      "hash": "0x8389c872f8547baeb48c5036f043e1543eed389de2b21401246c526121955c29",
      "transactionType": "CALL",
      "contractName": null,
      "contractAddress": "0x18f863b1b0a3eca6b2235dc1957291e357f490b0",
      "function": "openPosition(bytes32,bool,uint128,uint256)",
      "arguments": [
        "0x2bc0c3f3ef82289c7da8a9335c83ea4f2b5b8bd62b67c4f4e0dba00b304c2937",
        "true",
        "100000000000000000",
        "0"
      ],
      "transaction": {
        "from": "0xcc624ffa5df1f3f4b30aa8abd30186a86254f406",
        "to": "0x18f863b1b0a3eca6b2235dc1957291e357f490b0",
        "gas": "0x90bb0",
        "value": "0x0",
        "input": "0xd5528f5d2bc0c3f3ef82289c7da8a9335c83ea4f2b5b8bd62b67c4f4e0dba00b304c29370000000000000000000000000000000000000000000000000000000000000001000000000000000000000000000000000000000000000000016345785d8a00000000000000000000000000000000000000000000000000000000000000000000",
        "nonce": "0x233",
        "chainId": "0xaa36a7"
      },
      "additionalContracts": [],
      "isFixedGasLimit": false
    }
  ],
  "receipts": [
    {
      "status": "0x1",
      "cumulativeGasUsed": "0x62067a",
      "logs": [
        {
          "address": "0x8c68933688f94bf115ad2f9c8c8e251ae5d4ade7",
          "topics": [
            "0x8c5be1e5ebec7d5bd14f71427d1e84f3dd0314c0f7b2291e5b200ac8c7c3b925",
            "0x000000000000000000000000cc624ffa5df1f3f4b30aa8abd30186a86254f406",
            "0x00000000000000000000000018f863b1b0a3eca6b2235dc1957291e357f490b0"
          ],
          "data": "0x00000000000000000000000000000000000000000000000000000002540be400",
          "blockHash": "0x9a21492b8235fca45bbefb31d869688f936ccc87c4642a8ff675e5289d6e0d7e",
          "blockNumber": "0x9452a0",
          "blockTimestamp": "0x6928d220",
          "transactionHash": "0x2e68b135f0ccbbf9080b5a1e4a0ba77f9e56082c63c83d09ea4027cfeca871ea",
          "transactionIndex": "0x35",
          "logIndex": "0xb4",
          "removed": false
        }
      ],
      "logsBloom": "0x00000000000000000000000000000000000000000000000000000000000000000000200000000000000000000000000000000000020000000000000000200000000000000000000000000000000000000000000000000000000000000000000000000000000000000000000000000000000000000000000000000000000000000000000000000008000000000000000000000000000000000004000000000000020000000000000000000000000000000000200000000000000000000000000000000000000000000000000000000000000080000000000000000100000000000010000000000000000000000000000000000004000080000000000000000000",
      "type": "0x2",
      "transactionHash": "0x2e68b135f0ccbbf9080b5a1e4a0ba77f9e56082c63c83d09ea4027cfeca871ea",
      "transactionIndex": "0x35",
      "blockHash": "0x9a21492b8235fca45bbefb31d869688f936ccc87c4642a8ff675e5289d6e0d7e",
      "blockNumber": "0x9452a0",
      "gasUsed": "0xb36d",
      "effectiveGasPrice": "0xf4247",
      "from": "0xcc624ffa5df1f3f4b30aa8abd30186a86254f406",
      "to": "0x8c68933688f94bf115ad2f9c8c8e251ae5d4ade7",
      "contractAddress": null
    },
    {
      "status": "0x1",
      "cumulativeGasUsed": "0x63d072",
      "logs": [
        {
          "address": "0x8c68933688f94bf115ad2f9c8c8e251ae5d4ade7",
          "topics": [
            "0xddf252ad1be2c89b69c2b068fc378daa952ba7f163c4a11628f55a4df523b3ef",
            "0x000000000000000000000000cc624ffa5df1f3f4b30aa8abd30186a86254f406",
            "0x00000000000000000000000086a10164eb8f55ea6765185afcbf5e073b249dd2"
          ],
          "data": "0x000000000000000000000000000000000000000000000000000000003b9aca00",
          "blockHash": "0x9a21492b8235fca45bbefb31d869688f936ccc87c4642a8ff675e5289d6e0d7e",
          "blockNumber": "0x9452a0",
          "blockTimestamp": "0x6928d220",
          "transactionHash": "0xc50f3590c11deefc6599a6106ed34eb70014ec07af431745f31f0c4dc4c79d32",
          "transactionIndex": "0x36",
          "logIndex": "0xb5",
          "removed": false
        },
        {
          "address": "0x86a10164eb8f55ea6765185afcbf5e073b249dd2",
          "topics": [
            "0xaaefaf378e10f40556b2167ea878af7e62d89229b0bce3924630aabf1ee611ff",
            "0x00000000000000000000000018f863b1b0a3eca6b2235dc1957291e357f490b0",
            "0x0000000000000000000000008c68933688f94bf115ad2f9c8c8e251ae5d4ade7",
            "0x000000000000000000000000cc624ffa5df1f3f4b30aa8abd30186a86254f406"
          ],
          "data": "0x000000000000000000000000000000000000000000000000000000003b9aca00000000000000000000000000000000000000000000000000000000003b9aca00",
          "blockHash": "0x9a21492b8235fca45bbefb31d869688f936ccc87c4642a8ff675e5289d6e0d7e",
          "blockNumber": "0x9452a0",
          "blockTimestamp": "0x6928d220",
          "transactionHash": "0xc50f3590c11deefc6599a6106ed34eb70014ec07af431745f31f0c4dc4c79d32",
          "transactionIndex": "0x36",
          "logIndex": "0xb6",
          "removed": false
        },
        {
          "address": "0x18f863b1b0a3eca6b2235dc1957291e357f490b0",
          "topics": [
            "0xe4c032bd651f378a59936633a0f92b7497fd3577f65c95dc20a01acface334cc",
            "0x000000000000000000000000cc624ffa5df1f3f4b30aa8abd30186a86254f406",
            "0x0000000000000000000000008c68933688f94bf115ad2f9c8c8e251ae5d4ade7"
          ],
          "data": "0x000000000000000000000000000000000000000000000000000000003b9aca00",
          "blockHash": "0x9a21492b8235fca45bbefb31d869688f936ccc87c4642a8ff675e5289d6e0d7e",
          "blockNumber": "0x9452a0",
          "blockTimestamp": "0x6928d220",
          "transactionHash": "0xc50f3590c11deefc6599a6106ed34eb70014ec07af431745f31f0c4dc4c79d32",
          "transactionIndex": "0x36",
          "logIndex": "0xb7",
          "removed": false
        }
      ],
      "logsBloom": "0x00000000000000002001000000000000000000000000000000000000000000020000200000000000040000000000000000000000020000000010000000000000000000000000000000000008000000000000008000010000000000000000000000000000000000000000000000000000000000000000000000000012000000000000000000000008020000000000000000000000201000000004000000400000000000000000060000000000000000000000200400000000000000020000000000000002000100000000000000000000000080000000040000000100000000000000000000000000000000000000000000000004000080000000000000000000",
      "type": "0x2",
      "transactionHash": "0xc50f3590c11deefc6599a6106ed34eb70014ec07af431745f31f0c4dc4c79d32",
      "transactionIndex": "0x36",
      "blockHash": "0x9a21492b8235fca45bbefb31d869688f936ccc87c4642a8ff675e5289d6e0d7e",
      "blockNumber": "0x9452a0",
      "gasUsed": "0x1c9f8",
      "effectiveGasPrice": "0xf4247",
      "from": "0xcc624ffa5df1f3f4b30aa8abd30186a86254f406",
      "to": "0x18f863b1b0a3eca6b2235dc1957291e357f490b0",
      "contractAddress": null
    },
    {
      "status": "0x1",
      "cumulativeGasUsed": "0x6a5cf7",
      "logs": [
        {
          "address": "0xf7210ccc245323258cc15e0ca094ebbe2dc2cd85",
          "topics": [
            "0xddfd84b577dccbe1bdf135a0357c6ff7762b3a135746d56893b8ccb2eda23e6b"
          ],
          "data": "0x00000000000000000000000000000000000000000000000000055de96ba9225d000000000000000000000000000000000000000000000000000000006928d2200000000000000000000000000000000000000000000000000005e1d1092cfcc9",
          "blockHash": "0x9a21492b8235fca45bbefb31d869688f936ccc87c4642a8ff675e5289d6e0d7e",
          "blockNumber": "0x9452a0",
          "blockTimestamp": "0x6928d220",
          "transactionHash": "0x8389c872f8547baeb48c5036f043e1543eed389de2b21401246c526121955c29",
          "transactionIndex": "0x37",
          "logIndex": "0xb8",
          "removed": false
        },
        {
          "address": "0xf7210ccc245323258cc15e0ca094ebbe2dc2cd85",
          "topics": [
            "0xab7fa439d3be82c9e9dc9527df7b0ebc3b65c9911e3112698997d509abf02882",
            "0x00000000000000000000000018f863b1b0a3eca6b2235dc1957291e357f490b0"
          ],
          "data": "0x000000000000000000000000000000000000000000000000016345785d8a0000fffffffffffffffffffffffffffffffffffffffffffffffffabc177dd40caa3500000000000000000000000000000000000000000000000034a71515b78159ee",
          "blockHash": "0x9a21492b8235fca45bbefb31d869688f936ccc87c4642a8ff675e5289d6e0d7e",
          "blockNumber": "0x9452a0",
          "blockTimestamp": "0x6928d220",
          "transactionHash": "0x8389c872f8547baeb48c5036f043e1543eed389de2b21401246c526121955c29",
          "transactionIndex": "0x37",
          "logIndex": "0xb9",
          "removed": false
        },
        {
          "address": "0x86a10164eb8f55ea6765185afcbf5e073b249dd2",
          "topics": [
            "0x7ad5f1177a9fb541e791136a77d0325da28a845a6e72721024d24cb9d07cabd5",
            "0x000000000000000000000000cc624ffa5df1f3f4b30aa8abd30186a86254f406",
            "0x000000000000000000000000a75839a6d2bb2f47fe98dc81ec47ead01d4a2c1f",
            "0x0000000000000000000000008c68933688f94bf115ad2f9c8c8e251ae5d4ade7"
          ],
          "data": "0x000000000000000000000000000000000000000000000000000000000000017b",
          "blockHash": "0x9a21492b8235fca45bbefb31d869688f936ccc87c4642a8ff675e5289d6e0d7e",
          "blockNumber": "0x9452a0",
          "blockTimestamp": "0x6928d220",
          "transactionHash": "0x8389c872f8547baeb48c5036f043e1543eed389de2b21401246c526121955c29",
          "transactionIndex": "0x37",
          "logIndex": "0xba",
          "removed": false
        },
        {
          "address": "0x8c68933688f94bf115ad2f9c8c8e251ae5d4ade7",
          "topics": [
            "0xddf252ad1be2c89b69c2b068fc378daa952ba7f163c4a11628f55a4df523b3ef",
            "0x00000000000000000000000086a10164eb8f55ea6765185afcbf5e073b249dd2",
            "0x000000000000000000000000a75839a6d2bb2f47fe98dc81ec47ead01d4a2c1f"
          ],
          "data": "0x000000000000000000000000000000000000000000000000000000000000017b",
          "blockHash": "0x9a21492b8235fca45bbefb31d869688f936ccc87c4642a8ff675e5289d6e0d7e",
          "blockNumber": "0x9452a0",
          "blockTimestamp": "0x6928d220",
          "transactionHash": "0x8389c872f8547baeb48c5036f043e1543eed389de2b21401246c526121955c29",
          "transactionIndex": "0x37",
          "logIndex": "0xbb",
          "removed": false
        },
        {
          "address": "0x86a10164eb8f55ea6765185afcbf5e073b249dd2",
          "topics": [
            "0x7096ec52c72d33454045b00e3125b1795f94600354906408c4db6b6aba56252d",
            "0x00000000000000000000000018f863b1b0a3eca6b2235dc1957291e357f490b0",
            "0x000000000000000000000000a75839a6d2bb2f47fe98dc81ec47ead01d4a2c1f",
            "0x0000000000000000000000008c68933688f94bf115ad2f9c8c8e251ae5d4ade7"
          ],
          "data": "0x000000000000000000000000000000000000000000000000000000000000017b000000000000000000000000a75839a6d2bb2f47fe98dc81ec47ead01d4a2c1f",
          "blockHash": "0x9a21492b8235fca45bbefb31d869688f936ccc87c4642a8ff675e5289d6e0d7e",
          "blockNumber": "0x9452a0",
          "blockTimestamp": "0x6928d220",
          "transactionHash": "0x8389c872f8547baeb48c5036f043e1543eed389de2b21401246c526121955c29",
          "transactionIndex": "0x37",
          "logIndex": "0xbc",
          "removed": false
        },
        {
          "address": "0x8c68933688f94bf115ad2f9c8c8e251ae5d4ade7",
          "topics": [
            "0xddf252ad1be2c89b69c2b068fc378daa952ba7f163c4a11628f55a4df523b3ef",
            "0x000000000000000000000000a75839a6d2bb2f47fe98dc81ec47ead01d4a2c1f",
            "0x0000000000000000000000003c1085df918a38a95f84945e6705cc857b664074"
          ],
          "data": "0x00000000000000000000000000000000000000000000000000000000000000bd",
          "blockHash": "0x9a21492b8235fca45bbefb31d869688f936ccc87c4642a8ff675e5289d6e0d7e",
          "blockNumber": "0x9452a0",
          "blockTimestamp": "0x6928d220",
          "transactionHash": "0x8389c872f8547baeb48c5036f043e1543eed389de2b21401246c526121955c29",
          "transactionIndex": "0x37",
          "logIndex": "0xbd",
          "removed": false
        },
        {
          "address": "0x3c1085df918a38a95f84945e6705cc857b664074",
          "topics": [
            "0xbb527541f6cc244ae00ab689f8c23d072a30a3b4176021df62ea1c2bac8aa226",
            "0x000000000000000000000000a75839a6d2bb2f47fe98dc81ec47ead01d4a2c1f"
          ],
          "data": "0x00000000000000000000000000000000000000000000000000000000000000bd",
          "blockHash": "0x9a21492b8235fca45bbefb31d869688f936ccc87c4642a8ff675e5289d6e0d7e",
          "blockNumber": "0x9452a0",
          "blockTimestamp": "0x6928d220",
          "transactionHash": "0x8389c872f8547baeb48c5036f043e1543eed389de2b21401246c526121955c29",
          "transactionIndex": "0x37",
          "logIndex": "0xbe",
          "removed": false
        }
      ],
      "logsBloom": "0x4000000000200000000000000000000000000000000000004000000000000002020020000000000000000000000002000000000202000000101000010000040000000000000000000000000c0000000000810080000000000000000002000000000000000000004000000000000000000000000000001000000000100800000000000000000000080200004000000000000000002010000000040000004000000000000000000210000000000000000000002000000000000008000200000000000000020000000000000000000000000000880800000400000001800000000000000000000000000800000000000000000000040000a0000100004000000000",
      "type": "0x2",
      "transactionHash": "0x8389c872f8547baeb48c5036f043e1543eed389de2b21401246c526121955c29",
      "transactionIndex": "0x37",
      "blockHash": "0x9a21492b8235fca45bbefb31d869688f936ccc87c4642a8ff675e5289d6e0d7e",
      "blockNumber": "0x9452a0",
      "gasUsed": "0x68c85",
      "effectiveGasPrice": "0xf4247",
      "from": "0xcc624ffa5df1f3f4b30aa8abd30186a86254f406",
      "to": "0x18f863b1b0a3eca6b2235dc1957291e357f490b0",
      "contractAddress": null
    }
  ],
  "libraries": [],
  "pending": [],
  "returns": {},
  "timestamp": 1764282913744,
  "chain": 11155111,
  "commit": "2145300"
}