{
  "transactions": [
    {
      "hash": "0x429df9e2d2647f4f82fd9e1e579a2575cf8c3252801da058041fc2532715c5f3",
      "transactionType": "CALL",
      "contractName": null,
      "contractAddress": "0xfe2c9c2a1f0c700d88c78dcbc2e7bd1a8bb30df0",
      "function": "registerCollateral((address,uint256,uint16,uint16,uint256,uint256,bool,bool,bool,string))",
      "arguments": [
        "(0x8C68933688f94BF115ad2F9C8c8e251AE5d4ade7, 1000000, 0, 500, 0, 0, true, false, false, USDC)"
      ],
      "transaction": {
        "from": "0xcc624ffa5df1f3f4b30aa8abd30186a86254f406",
        "to": "0xfe2c9c2a1f0c700d88c78dcbc2e7bd1a8bb30df0",
        "gas": "0x3e95d",
        "value": "0x0",
        "input": "0xf3339c2b00000000000000000000000000000000000000000000000000000000000000200000000000000000000000008c68933688f94bf115ad2f9c8c8e251ae5d4ade700000000000000000000000000000000000000000000000000000000000f4240000000000000000000000000000000000000000000000000000000000000000000000000000000000000000000000000000000000000000000000000000001f400000000000000000000000000000000000000000000000000000000000000000000000000000000000000000000000000000000000000000000000000000000000000000000000000000000000000000000000000000000000000000000000100000000000000000000000000000000000000000000000000000000000000000000000000000000000000000000000000000000000000000000000000000000000000000000000000000000000000000000000000000000000000000000014000000000000000000000000000000000000000000000000000000000000000045553444300000000000000000000000000000000000000000000000000000000",
        "nonce": "0x1ab",
        "chainId": "0xaa36a7"
      },
      "additionalContracts": [],
      "isFixedGasLimit": false
    }
  ],
  "receipts": [
    {
      "status": "0x1",
      "cumulativeGasUsed": "0x84c173",
      "logs": [
        {
          "address": "0xfe2c9c2a1f0c700d88c78dcbc2e7bd1a8bb30df0",
          "topics": [
            "0x579b083822bdc58bb71d251698d15cc735ca4c864b903f9d02f602972e0cecf2",
            "0x0000000000000000000000008c68933688f94bf115ad2f9c8c8e251ae5d4ade7"
          ],
          "data": "0x00000000000000000000000000000000000000000000000000000000000f4240000000000000000000000000000000000000000000000000000000000000000000000000000000000000000000000000000000000000000000000000000001f400000000000000000000000000000000000000000000000000000000000000000000000000000000000000000000000000000000000000000000000000000000000000000000000000000000000000000000000000000000000000000000000100000000000000000000000000000000000000000000000000000000000000000000000000000000000000000000000000000000000000000000000000000000000000000000000000000000000000000000000000000000000000000000012000000000000000000000000000000000000000000000000000000000000000045553444300000000000000000000000000000000000000000000000000000000",
          "blockHash": "0x2c6d5227b92894d35374aab5ba8b7ea722f008e364b06c22957192fd79952e24",
          "blockNumber": "0x939476",
          "blockTimestamp": "0x691faa24",
          "transactionHash": "0x429df9e2d2647f4f82fd9e1e579a2575cf8c3252801da058041fc2532715c5f3",
          "transactionIndex": "0x7b",
          "logIndex": "0x6e",
          "removed": false
        }
      ],
      "logsBloom": "0x00000000000000200000000000000000000000000000000000000000000000020000000000000000000000000000000000000000000000000000000000000000000000000000000000000000000000000000000000000000000000000000000000000000000000000000000000000000000000080000000000000000000000000000000000000000020000000000000000000080000000000000000000000000000000400200000000000080000000000000000000000000000000000000000000000000000000000000000000000000000000000000040000000000000000000000000000000000000000000000000000000000000000000000000000000000",
      "type": "0x2",
      "transactionHash": "0x429df9e2d2647f4f82fd9e1e579a2575cf8c3252801da058041fc2532715c5f3",
      "transactionIndex": "0x7b",
      "blockHash": "0x2c6d5227b92894d35374aab5ba8b7ea722f008e364b06c22957192fd79952e24",
      "blockNumber": "0x939476",
      "gasUsed": "0x2acb2",
      "effectiveGasPrice": "0xf4240",
      "from": "0xcc624ffa5df1f3f4b30aa8abd30186a86254f406",
      "to": "0xfe2c9c2a1f0c700d88c78dcbc2e7bd1a8bb30df0",
      "contractAddress": null
    }
  ],
  "libraries": [],
  "pending": [],
  "returns": {},
  "timestamp": 1763682854516,
  "chain": 11155111,
  "commit": "f013650"
}