{
  "transactions": [
    {
      "hash": "0x33b946a3f2b7eedd27ec62c630316fb9b31d2a3e0798d7c5ed5b9581155a0753",
      "transactionType": "CALL",
      "contractName": null,
      "contractAddress": "0x3f9b634b9f09e7f8e84348122c86d3c2324841b5",
      "function": "setOracle(address)",
      "arguments": [
        "0x3cA2Da03e4b6dB8fe5a24c22Cf5EB2A34B59cbad"
      ],
      "transaction": {
        "from": "0xcc624ffa5df1f3f4b30aa8abd30186a86254f406",
        "to": "0x3f9b634b9f09e7f8e84348122c86d3c2324841b5",
        "gas": "0xc925",
        "value": "0x0",
        "input": "0x7adbf9730000000000000000000000003ca2da03e4b6db8fe5a24c22cf5eb2a34b59cbad",
        "nonce": "0x1b1",
        "chainId": "0xaa36a7"
      },
      "additionalContracts": [],
      "isFixedGasLimit": false
    }
  ],
  "receipts": [
    {
      "status": "0x1",
      "cumulativeGasUsed": "0x4685e1",
      "logs": [
        {
          "address": "0x3f9b634b9f09e7f8e84348122c86d3c2324841b5",
          "topics": [
            "0x0e05ae75e8b926552cf6fcd744d19f422561e3ced1e426868730852702dbe418",
            "0x0000000000000000000000003ca2da03e4b6db8fe5a24c22cf5eb2a34b59cbad"
          ],
          "data": "0x",
          "blockHash": "0x426fdbd1147624dec1860db23c8326bdad9dfc47c0ba46f26b7a1c6874caaa31",
          "blockNumber": "0x939567",
          "blockTimestamp": "0x691fb588",
          "transactionHash": "0x33b946a3f2b7eedd27ec62c630316fb9b31d2a3e0798d7c5ed5b9581155a0753",
          "transactionIndex": "0x20",
          "logIndex": "0x34",
          "removed": false
        }
      ],
      "logsBloom": "0x00000000000000000000000000000000000000000080000000000000000000000000000000000000000000000000000000000000000000000000000001000000000000000000040000000000000004000000010000000000000000000010000000000002000000000000000000000000000000000000000000000000000000000000000000000000000000000000000000000000000000000000000000000000000000000000040000000000000000000000000000000000000000000000000000000000000000000000000000000000000010000000000000000000000000000000000000000000000000000000000000000000000000000000000000000000",
      "type": "0x2",
      "transactionHash": "0x33b946a3f2b7eedd27ec62c630316fb9b31d2a3e0798d7c5ed5b9581155a0753",
      "transactionIndex": "0x20",
      "blockHash": "0x426fdbd1147624dec1860db23c8326bdad9dfc47c0ba46f26b7a1c6874caaa31",
      "blockNumber": "0x939567",
      "gasUsed": "0x8989",
      "effectiveGasPrice": "0x11b832",
      "from": "0xcc624ffa5df1f3f4b30aa8abd30186a86254f406",
      "to": "0x3f9b634b9f09e7f8e84348122c86d3c2324841b5",
      "contractAddress": null
    }
  ],
  "libraries": [],
  "pending": [],
  "returns": {},
  "timestamp": 1763685769515,
  "chain": 11155111,
  "commit": "f013650"
}