{
  "transactions": [
    {
      "hash": "0x6e55b1085f50d4ef2d856b5eb796365c69a5603b9d732681f2a1cae58d055cf0",
      "transactionType": "CALL",
      "contractName": null,
      "contractAddress": "0x0be85ed0948779a01effb6b017ae87a4e9eb7fd6",
      "function": "openPosition(bytes32,bool,uint128,uint256)",
      "arguments": [
        "0x923fe13dd90eff0f2f8b82db89ef27daef5f899aca7fba59ebb0b01a6343bfb5",
        "true",
        "100000000000000",
        "4000000000000000000"
      ],
      "transaction": {
        "from": "0xcc624ffa5df1f3f4b30aa8abd30186a86254f406",
        "to": "0x0be85ed0948779a01effb6b017ae87a4e9eb7fd6",
        "gas": "0xa46a9",
        "value": "0x0",
        "input": "0xd5528f5d923fe13dd90eff0f2f8b82db89ef27daef5f899aca7fba59ebb0b01a6343bfb5000000000000000000000000000000000000000000000000000000000000000100000000000000000000000000000000000000000000000000005af3107a40000000000000000000000000000000000000000000000000003782dace9d900000",
        "nonce": "0x1ae",
        "chainId": "0xaa36a7"
      },
      "additionalContracts": [],
      "isFixedGasLimit": false
    }
  ],
  "receipts": [
    {
      "status": "0x1",
      "cumulativeGasUsed": "0xe24b26",
      "logs": [
        {
          "address": "0x3f9b634b9f09e7f8e84348122c86d3c2324841b5",
          "topics": [
            "0xddfd84b577dccbe1bdf135a0357c6ff7762b3a135746d56893b8ccb2eda23e6b"
          ],
          "data": "0xfffffffffffffffffffffffffffffffffffffffffffffffffc813681d357cabf00000000000000000000000000000000000000000000000000000000691fab74fffffffffffffffffffffffffffffffffffffffffffffffffffb0e371ce54ff0",
          "blockHash": "0x5a3fdcdef99f5844add1444df9fa01f3fff70b37ae92a21fe56f605be3fd7863",
          "blockNumber": "0x939492",
          "blockTimestamp": "0x691fab74",
          "transactionHash": "0x6e55b1085f50d4ef2d856b5eb796365c69a5603b9d732681f2a1cae58d055cf0",
          "transactionIndex": "0x79",
          "logIndex": "0x96",
          "removed": false
        },
        {
          "address": "0x3f9b634b9f09e7f8e84348122c86d3c2324841b5",
          "topics": [
            "0xab7fa439d3be82c9e9dc9527df7b0ebc3b65c9911e3112698997d509abf02882",
            "0x0000000000000000000000000be85ed0948779a01effb6b017ae87a4e9eb7fd6"
          ],
          "data": "0x00000000000000000000000000000000000000000000000000005af3107a4000fffffffffffffffffffffffffffffffffffffffffffffffffffeaa98959a197b000000000000000000000000000000000000000000000000341817ac2c7cab50",
          "blockHash": "0x5a3fdcdef99f5844add1444df9fa01f3fff70b37ae92a21fe56f605be3fd7863",
          "blockNumber": "0x939492",
          "blockTimestamp": "0x691fab74",
          "transactionHash": "0x6e55b1085f50d4ef2d856b5eb796365c69a5603b9d732681f2a1cae58d055cf0",
          "transactionIndex": "0x79",
          "logIndex": "0x97",
          "removed": false
        },
        {
          "address": "0x8c68933688f94bf115ad2f9c8c8e251ae5d4ade7",
          "topics": [
            "0xddf252ad1be2c89b69c2b068fc378daa952ba7f163c4a11628f55a4df523b3ef",
            "0x0000000000000000000000003c1085df918a38a95f84945e6705cc857b664074",
            "0x000000000000000000000000a75839a6d2bb2f47fe98dc81ec47ead01d4a2c1f"
          ],
          "data": "0x0000000000000000000000000000000000000000000000000000000000000003",
          "blockHash": "0x5a3fdcdef99f5844add1444df9fa01f3fff70b37ae92a21fe56f605be3fd7863",
          "blockNumber": "0x939492",
          "blockTimestamp": "0x691fab74",
          "transactionHash": "0x6e55b1085f50d4ef2d856b5eb796365c69a5603b9d732681f2a1cae58d055cf0",
          "transactionIndex": "0x79",
          "logIndex": "0x98",
          "removed": false
        },
        {
          "address": "0x3c1085df918a38a95f84945e6705cc857b664074",
          "topics": [
            "0x5afeca38b2064c23a692c4cf353015d80ab3ecc417b4f893f372690c11fbd9a6",
            "0x000000000000000000000000a75839a6d2bb2f47fe98dc81ec47ead01d4a2c1f"
          ],
          "data": "0x0000000000000000000000000000000000000000000000000000000000000003",
          "blockHash": "0x5a3fdcdef99f5844add1444df9fa01f3fff70b37ae92a21fe56f605be3fd7863",
          "blockNumber": "0x939492",
          "blockTimestamp": "0x691fab74",
          "transactionHash": "0x6e55b1085f50d4ef2d856b5eb796365c69a5603b9d732681f2a1cae58d055cf0",
          "transactionIndex": "0x79",
          "logIndex": "0x99",
          "removed": false
        },
        {
          "address": "0x8c68933688f94bf115ad2f9c8c8e251ae5d4ade7",
          "topics": [
            "0xddf252ad1be2c89b69c2b068fc378daa952ba7f163c4a11628f55a4df523b3ef",
            "0x000000000000000000000000a75839a6d2bb2f47fe98dc81ec47ead01d4a2c1f",
            "0x0000000000000000000000003c1085df918a38a95f84945e6705cc857b664074"
          ],
          "data": "0x0000000000000000000000000000000000000000000000000000000000000001",
          "blockHash": "0x5a3fdcdef99f5844add1444df9fa01f3fff70b37ae92a21fe56f605be3fd7863",
          "blockNumber": "0x939492",
          "blockTimestamp": "0x691fab74",
          "transactionHash": "0x6e55b1085f50d4ef2d856b5eb796365c69a5603b9d732681f2a1cae58d055cf0",
          "transactionIndex": "0x79",
          "logIndex": "0x9a",
          "removed": false
        },
        {
          "address": "0x3c1085df918a38a95f84945e6705cc857b664074",
          "topics": [
            "0xbb527541f6cc244ae00ab689f8c23d072a30a3b4176021df62ea1c2bac8aa226",
            "0x000000000000000000000000a75839a6d2bb2f47fe98dc81ec47ead01d4a2c1f"
          ],
          "data": "0x0000000000000000000000000000000000000000000000000000000000000001",
          "blockHash": "0x5a3fdcdef99f5844add1444df9fa01f3fff70b37ae92a21fe56f605be3fd7863",
          "blockNumber": "0x939492",
          "blockTimestamp": "0x691fab74",
          "transactionHash": "0x6e55b1085f50d4ef2d856b5eb796365c69a5603b9d732681f2a1cae58d055cf0",
          "transactionIndex": "0x79",
          "logIndex": "0x9b",
          "removed": false
        }
      ],
      "logsBloom": "0x4000000000000000000000000000000000000000000000004000000000000000020000000000000000000000000002000000000200000000000000010100040000000000008000000000000c0000000000810080000000000000000000000000000000020000004000000000000000000000000000001000000000100000000000000000000000080080004000000000000000000000000000000000000000000000000000000000000000000000000000000000000000000008000000000000000000020000000000000000001000000000100800800000000000000000000000000000000800400000000000000000000000040000a0000000004000000000",
      "type": "0x2",
      "transactionHash": "0x6e55b1085f50d4ef2d856b5eb796365c69a5603b9d732681f2a1cae58d055cf0",
      "transactionIndex": "0x79",
      "blockHash": "0x5a3fdcdef99f5844add1444df9fa01f3fff70b37ae92a21fe56f605be3fd7863",
      "blockNumber": "0x939492",
      "gasUsed": "0x7708e",
      "effectiveGasPrice": "0xf4248",
      "from": "0xcc624ffa5df1f3f4b30aa8abd30186a86254f406",
      "to": "0x0be85ed0948779a01effb6b017ae87a4e9eb7fd6",
      "contractAddress": null
    }
  ],
  "libraries": [],
  "pending": [],
  "returns": {},
  "timestamp": 1763683189274,
  "chain": 11155111,
  "commit": "f013650"
}