{
  "transactions": [
    {
      "hash": "0x993d56c49c91e2d6dd0edc27530c43b28408ddaab98fec5785928b94800a1e41",
      "transactionType": "CALL",
      "contractName": null,
      "contractAddress": "0xfe2c9c2a1f0c700d88c78dcbc2e7bd1a8bb30df0",
      "function": "setCollateralParams(address,(address,uint256,uint16,uint16,uint256,uint256,bool,bool,bool,string))",
      "arguments": [
        "0x37D5154731eE25C83E06E1abC312075AB4B4D8fF",
        "(0x37D5154731eE25C83E06E1abC312075AB4B4D8fF, 1000000, 0, 200, 0, 0, false, false, false, USDC)"
      ],
      "transaction": {
        "from": "0xcc624ffa5df1f3f4b30aa8abd30186a86254f406",
        "to": "0xfe2c9c2a1f0c700d88c78dcbc2e7bd1a8bb30df0",
        "gas": "0xfa01",
        "value": "0x0",
        "input": "0xf4aad44500000000000000000000000037d5154731ee25c83e06e1abc312075ab4b4d8ff000000000000000000000000000000000000000000000000000000000000004000000000000000000000000037d5154731ee25c83e06e1abc312075ab4b4d8ff00000000000000000000000000000000000000000000000000000000000f4240000000000000000000000000000000000000000000000000000000000000000000000000000000000000000000000000000000000000000000000000000000c800000000000000000000000000000000000000000000000000000000000000000000000000000000000000000000000000000000000000000000000000000000000000000000000000000000000000000000000000000000000000000000000000000000000000000000000000000000000000000000000000000000000000000000000000000000000000000000000000000000000000000000000000000000000000000000000000000000000000000000000000000000000000000000014000000000000000000000000000000000000000000000000000000000000000045553444300000000000000000000000000000000000000000000000000000000",
        "nonce": "0x219",
        "chainId": "0xaa36a7"
      },
      "additionalContracts": [],
      "isFixedGasLimit": false
    },
    {
      "hash": "0x300dbda4c5fb77ae4af1ba057d4e67ace943d78432101dfcb8273a4aef26d142",
      "transactionType": "CALL",
      "contractName": null,
      "contractAddress": "0xfe2c9c2a1f0c700d88c78dcbc2e7bd1a8bb30df0",
      "function": "setCollateralParams(address,(address,uint256,uint16,uint16,uint256,uint256,bool,bool,bool,string))",
      "arguments": [
        "0x71075745A2A63dff3BD4819e9639D0E412c14AA9",
        "(0x71075745A2A63dff3BD4819e9639D0E412c14AA9, 1000000, 0, 500, 0, 0, false, false, false, USDC)"
      ],
      "transaction": {
        "from": "0xcc624ffa5df1f3f4b30aa8abd30186a86254f406",
        "to": "0xfe2c9c2a1f0c700d88c78dcbc2e7bd1a8bb30df0",
        "gas": "0xfa11",
        "value": "0x0",
        "input": "0xf4aad44500000000000000000000000071075745a2a63dff3bd4819e9639d0e412c14aa9000000000000000000000000000000000000000000000000000000000000004000000000000000000000000071075745a2a63dff3bd4819e9639d0e412c14aa900000000000000000000000000000000000000000000000000000000000f4240000000000000000000000000000000000000000000000000000000000000000000000000000000000000000000000000000000000000000000000000000001f400000000000000000000000000000000000000000000000000000000000000000000000000000000000000000000000000000000000000000000000000000000000000000000000000000000000000000000000000000000000000000000000000000000000000000000000000000000000000000000000000000000000000000000000000000000000000000000000000000000000000000000000000000000000000000000000000000000000000000000000000000000000000000000014000000000000000000000000000000000000000000000000000000000000000045553444300000000000000000000000000000000000000000000000000000000",
        "nonce": "0x21a",
        "chainId": "0xaa36a7"
      },
      "additionalContracts": [],
      "isFixedGasLimit": false
    }
  ],
  "receipts": [
    {
      "status": "0x1",
      "cumulativeGasUsed": "0x7c2a3e",
      "logs": [
        {
          "address": "0xfe2c9c2a1f0c700d88c78dcbc2e7bd1a8bb30df0",
          "topics": [
            "0x9101e49cfe6155787039fd2259da30ad237328bea3f567d6f7d05b4274b9e417",
            "0x00000000000000000000000037d5154731ee25c83e06e1abc312075ab4b4d8ff"
          ],
          "data": "0x000000000000000000000000000000000000000000000000000000000000000000000000000000000000000000000000000000000000000000000000000000c800000000000000000000000000000000000000000000000000000000000000000000000000000000000000000000000000000000000000000000000000000000000000000000000000000000000000000000000000000000000000000000000000000000000000000000000000000000000000000000000000000000000000000000000000000000000000000000000000000000000000000000000000000000000000000000000000000000000000000000000000000000000000000000010000000000000000000000000000000000000000000000000000000000000000045553444300000000000000000000000000000000000000000000000000000000",
          "blockHash": "0xb0e81740820fafec1c55db312b0843d21c45761cd7235e2785b8983a3e012454",
          "blockNumber": "0x944f0b",
          "blockTimestamp": "0x6928a118",
          "transactionHash": "0x993d56c49c91e2d6dd0edc27530c43b28408ddaab98fec5785928b94800a1e41",
          "transactionIndex": "0x2f",
          "logIndex": "0x3d",
          "removed": false
        }
      ],
      "logsBloom": "0x00000000000000000000000000000000000000000000000000000000000000000000000000000000000000000000000000000000000080000000000000000000000000000000000000000000000000000000000000000000000000000000000100000000000400000000000000000000000000080000000000000000000000000000000000000000000000000001080000000080000000000000000000000000000000000200000000000000000000000000008000000000000000000000000000000000000000000000000000000000000000000000000000000000000000000000000000000000000000000000000000000000000000000000000000000000",
      "type": "0x2",
      "transactionHash": "0x993d56c49c91e2d6dd0edc27530c43b28408ddaab98fec5785928b94800a1e41",
      "transactionIndex": "0x2f",
      "blockHash": "0xb0e81740820fafec1c55db312b0843d21c45761cd7235e2785b8983a3e012454",
      "blockNumber": "0x944f0b",
      "gasUsed": "0xb500",
      "effectiveGasPrice": "0xf4248",
      "from": "0xcc624ffa5df1f3f4b30aa8abd30186a86254f406",
      "to": "0xfe2c9c2a1f0c700d88c78dcbc2e7bd1a8bb30df0",
      "contractAddress": null
    },
    {
      "status": "0x1",
      "cumulativeGasUsed": "0x7cdf4a",
      "logs": [
        {
          "address": "0xfe2c9c2a1f0c700d88c78dcbc2e7bd1a8bb30df0",
          "topics": [
            "0x9101e49cfe6155787039fd2259da30ad237328bea3f567d6f7d05b4274b9e417",
            "0x00000000000000000000000071075745a2a63dff3bd4819e9639d0e412c14aa9"
          ],
          "data": "0x000000000000000000000000000000000000000000000000000000000000000000000000000000000000000000000000000000000000000000000000000001f400000000000000000000000000000000000000000000000000000000000000000000000000000000000000000000000000000000000000000000000000000000000000000000000000000000000000000000000000000000000000000000000000000000000000000000000000000000000000000000000000000000000000000000000000000000000000000000000000000000000000000000000000000000000000000000000000000000000000000000000000000000000000000000010000000000000000000000000000000000000000000000000000000000000000045553444300000000000000000000000000000000000000000000000000000000",
          "blockHash": "0xb0e81740820fafec1c55db312b0843d21c45761cd7235e2785b8983a3e012454",
          "blockNumber": "0x944f0b",
          "blockTimestamp": "0x6928a118",
          "transactionHash": "0x300dbda4c5fb77ae4af1ba057d4e67ace943d78432101dfcb8273a4aef26d142",
          "transactionIndex": "0x30",
          "logIndex": "0x3e",
          "removed": false
        }
      ],
      "logsBloom": "0x00000000000000000000000000000000000000000000000000000000000000000000000000000000000010000000000000000000800080000000000000000000000000000000000000000000000000000000000000000000000000000000000100000000000400100000000000000000000000080000000000000000000000000000000000000000000000000000000000000080000000000000000000000000000000000200000000000000000000000000000000000000000000000000000000000000000000000000000000000000000000000000000000000000000000000000000000000000000000000000000000000000000000000000000000000000",
      "type": "0x2",
      "transactionHash": "0x300dbda4c5fb77ae4af1ba057d4e67ace943d78432101dfcb8273a4aef26d142",
      "transactionIndex": "0x30",
      "blockHash": "0xb0e81740820fafec1c55db312b0843d21c45761cd7235e2785b8983a3e012454",
      "blockNumber": "0x944f0b",
      "gasUsed": "0xb50c",
      "effectiveGasPrice": "0xf4248",
      "from": "0xcc624ffa5df1f3f4b30aa8abd30186a86254f406",
      "to": "0xfe2c9c2a1f0c700d88c78dcbc2e7bd1a8bb30df0",
      "contractAddress": null
    }
  ],
  "libraries": [],
  "pending": [],
  "returns": {},
  "timestamp": 1764270361262,
  "chain": 11155111,
  "commit": "2145300"
}